{"contracts/LittlefingerGame.sol":{"LittlefingerGame":{"abi":[{"inputs":[],"stateMutability":"payable","type":"constructor"},{"inputs":[],"name":"GameExhausted","type":"error"},{"inputs":[{"internalType":"uint256","name":"requiredFee","type":"uint256"},{"internalType":"uint256","name":"sentFee","type":"uint256"}],"name":"InsufficientQueryFee","type":"error"},{"inputs":[],"name":"InvalidQuery","type":"error"},{"inputs":[],"name":"InvalidRecipient","type":"error"},{"inputs":[{"internalType":"uint256","name":"maxQueries","type":"uint256"}],"name":"MaxQueriesReached","type":"error"},{"inputs":[],"name":"Unauthorized","type":"error"},{"anonymous":false,"inputs":[{"indexed":false,"internalType":"uint256","name":"prizePool","type":"uint256"}],"name":"CurrentPrizePool","type":"event"},{"anonymous":false,"inputs":[{"indexed":false,"internalType":"uint256","name":"currentTimestamp","type":"uint256"},{"indexed":false,"internalType":"uint256","name":"lastInteraction","type":"uint256"}],"name":"GameEnded","type":"event"},{"anonymous":false,"inputs":[{"indexed":false,"internalType":"uint256","name":"lastInteraction","type":"uint256"}],"name":"GameIdleSince","type":"event"},{"anonymous":false,"inputs":[{"indexed":false,"internalType":"uint256","name":"timestamp","type":"uint256"}],"name":"GameResetByOwner","type":"event"},{"anonymous":false,"inputs":[{"indexed":false,"internalType":"uint256","name":"timestamp","type":"uint256"}],"name":"GameStarted","type":"event"},{"anonymous":false,"inputs":[{"indexed":false,"internalType":"uint256","name":"newIdleTimeLimit","type":"uint256"}],"name":"IdleTimeLimitUpdated","type":"event"},{"anonymous":false,"inputs":[{"indexed":true,"internalType":"address","name":"player","type":"address"},{"indexed":false,"internalType":"uint256","name":"amount","type":"uint256"}],"name":"LastPlayerRewardAfterGameExhaustion","type":"event"},{"anonymous":false,"inputs":[{"indexed":false,"internalType":"uint256","name":"newMaxQueries","type":"uint256"}],"name":"MaxQueriesUpdated","type":"event"},{"anonymous":false,"inputs":[{"indexed":false,"internalType":"uint256","name":"newMaxQueryFee","type":"uint256"}],"name":"MaxQueryFeeUpdated","type":"event"},{"anonymous":false,"inputs":[{"indexed":false,"internalType":"uint256","name":"nextFee","type":"uint256"},{"indexed":false,"internalType":"uint256","name":"currentCount","type":"uint256"}],"name":"NextQueryFee","type":"event"},{"anonymous":false,"inputs":[{"indexed":true,"internalType":"address","name":"winner","type":"address"},{"indexed":false,"internalType":"uint256","name":"amount","type":"uint256"}],"name":"PrizeTransferApproved","type":"event"},{"anonymous":false,"inputs":[{"indexed":true,"internalType":"address","name":"player","type":"address"},{"indexed":false,"internalType":"uint256","name":"feeAmount","type":"uint256"},{"indexed":false,"internalType":"string","name":"queryID","type":"string"},{"indexed":false,"internalType":"uint256","name":"blockNumber","type":"uint256"},{"indexed":false,"internalType":"uint256","name":"timestamp","type":"uint256"}],"name":"QueryFeePaid","type":"event"},{"anonymous":false,"inputs":[{"indexed":false,"internalType":"uint256","name":"totalAmount","type":"uint256"}],"name":"RestOfThePlayersRewardAfterGameExhaustion","type":"event"},{"anonymous":false,"inputs":[{"indexed":false,"internalType":"uint256","name":"totalUniquePlayers","type":"uint256"}],"name":"TotalParticipants","type":"event"},{"anonymous":false,"inputs":[{"indexed":false,"internalType":"uint256","name":"globalQueryCount","type":"uint256"}],"name":"TotalQueries","type":"event"},{"anonymous":false,"inputs":[{"indexed":true,"internalType":"address","name":"owner","type":"address"},{"indexed":false,"internalType":"uint256","name":"amount","type":"uint256"}],"name":"Withdrawal","type":"event"},{"stateMutability":"payable","type":"fallback"},{"inputs":[],"name":"IDLE_TIME_LIMIT","outputs":[{"internalType":"uint256","name":"","type":"uint256"}],"stateMutability":"view","type":"function"},{"inputs":[],"name":"MAX_QUERIES","outputs":[{"internalType":"uint256","name":"","type":"uint256"}],"stateMutability":"view","type":"function"},{"inputs":[],"name":"MAX_QUERY_FEE","outputs":[{"internalType":"uint256","name":"","type":"uint256"}],"stateMutability":"view","type":"function"},{"inputs":[{"internalType":"address","name":"recipient","type":"address"}],"name":"approveTransfer","outputs":[],"stateMutability":"nonpayable","type":"function"},{"inputs":[],"name":"calculateNextQueryFee","outputs":[{"internalType":"uint256","name":"","type":"uint256"}],"stateMutability":"view","type":"function"},{"inputs":[],"name":"calculateQueryFee","outputs":[{"internalType":"uint256","name":"","type":"uint256"}],"stateMutability":"view","type":"function"},{"inputs":[],"name":"endGameDueToExhaustion","outputs":[],"stateMutability":"nonpayable","type":"function"},{"inputs":[],"name":"gameEnded","outputs":[{"internalType":"bool","name":"","type":"bool"}],"stateMutability":"view","type":"function"},{"inputs":[],"name":"getAllPlayers","outputs":[{"internalType":"address[]","name":"","type":"address[]"}],"stateMutability":"view","type":"function"},{"inputs":[],"name":"globalQueryCount","outputs":[{"internalType":"uint256","name":"","type":"uint256"}],"stateMutability":"view","type":"function"},{"inputs":[],"name":"lastInteraction","outputs":[{"internalType":"uint256","name":"","type":"uint256"}],"stateMutability":"view","type":"function"},{"inputs":[],"name":"lastPlayer","outputs":[{"internalType":"address","name":"","type":"address"}],"stateMutability":"view","type":"function"},{"inputs":[],"name":"owner","outputs":[{"internalType":"address","name":"","type":"address"}],"stateMutability":"view","type":"function"},{"inputs":[{"internalType":"address","name":"","type":"address"}],"name":"playerQueryCount","outputs":[{"internalType":"uint256","name":"","type":"uint256"}],"stateMutability":"view","type":"function"},{"inputs":[{"internalType":"address","name":"","type":"address"}],"name":"playerTotalFee","outputs":[{"internalType":"uint256","name":"","type":"uint256"}],"stateMutability":"view","type":"function"},{"inputs":[{"internalType":"uint256","name":"","type":"uint256"}],"name":"players","outputs":[{"internalType":"address","name":"","type":"address"}],"stateMutability":"view","type":"function"},{"inputs":[],"name":"prizePool","outputs":[{"internalType":"uint256","name":"","type":"uint256"}],"stateMutability":"view","type":"function"},{"inputs":[],"name":"resetGame","outputs":[],"stateMutability":"payable","type":"function"},{"inputs":[{"internalType":"uint256","name":"newIdleTimeLimit","type":"uint256"}],"name":"setIdleTimeLimit","outputs":[],"stateMutability":"nonpayable","type":"function"},{"inputs":[{"internalType":"uint256","name":"newMaxQueries","type":"uint256"}],"name":"setMaxQueries","outputs":[],"stateMutability":"nonpayable","type":"function"},{"inputs":[{"internalType":"uint256","name":"newMaxQueryFee","type":"uint256"}],"name":"setMaxQueryFee","outputs":[],"stateMutability":"nonpayable","type":"function"},{"inputs":[{"internalType":"string","name":"query","type":"string"},{"internalType":"string","name":"queryID","type":"string"}],"name":"submitQuery","outputs":[],"stateMutability":"payable","type":"function"},{"inputs":[],"name":"totalUniquePlayers","outputs":[{"internalType":"uint256","name":"","type":"uint256"}],"stateMutability":"view","type":"function"},{"inputs":[],"name":"withdraw","outputs":[],"stateMutability":"nonpayable","type":"function"},{"stateMutability":"payable","type":"receive"}],"evm":{"bytecode":{"linkReferences":{},"object":"60806040526000600255600060035561138860045562093a80600555670de0b6b3a76400006006556000600b60006101000a81548160ff021916908315150217905550336000806101000a81548173ffffffffffffffffffffffffffffffffffffffff021916908373ffffffffffffffffffffffffffffffffffffffff16021790555060003411620000c8576040517f08c379a0000000000000000000000000000000000000000000000000000000008152600401620000bf90620001b2565b60405180910390fd5b42600a8190555060008054906101000a900473ffffffffffffffffffffffffffffffffffffffff16600160006101000a81548173ffffffffffffffffffffffffffffffffffffffff021916908373ffffffffffffffffffffffffffffffffffffffff1602179055506000600b60006101000a81548160ff021916908315150217905550620001d4565b600082825260208201905092915050565b7f496e697469616c2066756e64696e672072657175697265640000000000000000600082015250565b60006200019a60188362000151565b9150620001a78262000162565b602082019050919050565b60006020820190508181036000830152620001cd816200018b565b9050919050565b612cd480620001e46000396000f3fe60806040526004361061014f5760003560e01c80638da5cb5b116100b6578063ce4064e71161006f578063ce4064e71461046c578063e3450e1314610497578063efa1c482146104c2578063f6711fbe146104ed578063f71d96cb14610509578063fc442e3a1461054657610156565b80638da5cb5b1461038b5780638f71a265146103b65780639ae5bb0e146103e15780639b3e156a1461040c578063b3dbf4b414610437578063bb4722191461046257610156565b8063719ce73e11610108578063719ce73e1461027b578063768de1db146102a657806378d4b4df146102cf5780637fe6938f1461030c578063886e2034146103375780638a6091551461036057610156565b80632f6fe396146101915780633ccfd60b146101bc5780634355b9d2146101d35780634c9fb2bf146101fc5780634d7c49e9146102135780634edbdc8a1461025057610156565b3661015657005b6040517f08c379a0000000000000000000000000000000000000000000000000000000008152600401610188906120ab565b60405180910390fd5b34801561019d57600080fd5b506101a661056f565b6040516101b391906120e6565b60405180910390f35b3480156101c857600080fd5b506101d1610582565b005b3480156101df57600080fd5b506101fa60048036038101906101f59190612173565b6107c5565b005b34801561020857600080fd5b506102116109fc565b005b34801561021f57600080fd5b5061023a60048036038101906102359190612173565b610f69565b60405161024791906121b9565b60405180910390f35b34801561025c57600080fd5b50610265610f81565b60405161027291906121b9565b60405180910390f35b34801561028757600080fd5b50610290610f87565b60405161029d91906121b9565b60405180910390f35b3480156102b257600080fd5b506102cd60048036038101906102c89190612200565b610f8f565b005b3480156102db57600080fd5b506102f660048036038101906102f19190612173565b611098565b60405161030391906121b9565b60405180910390f35b34801561031857600080fd5b506103216110b0565b60405161032e91906121b9565b60405180910390f35b34801561034357600080fd5b5061035e60048036038101906103599190612200565b6110b6565b005b34801561036c57600080fd5b506103756111bf565b60405161038291906121b9565b60405180910390f35b34801561039757600080fd5b506103a06111c5565b6040516103ad919061223c565b60405180910390f35b3480156103c257600080fd5b506103cb6111e9565b6040516103d891906121b9565b60405180910390f35b3480156103ed57600080fd5b506103f66111ef565b60405161040391906121b9565b60405180910390f35b34801561041857600080fd5b506104216112b1565b60405161042e91906121b9565b60405180910390f35b34801561044357600080fd5b5061044c6112b7565b60405161045991906121b9565b60405180910390f35b61046a611361565b005b34801561047857600080fd5b50610481611692565b60405161048e91906121b9565b60405180910390f35b3480156104a357600080fd5b506104ac611698565b6040516104b9919061223c565b60405180910390f35b3480156104ce57600080fd5b506104d76116be565b6040516104e49190612315565b60405180910390f35b6105076004803603810190610502919061247d565b61174c565b005b34801561051557600080fd5b50610530600480360381019061052b9190612200565b611e06565b60405161053d919061223c565b60405180910390f35b34801561055257600080fd5b5061056d60048036038101906105689190612200565b611e45565b005b600b60009054906101000a900460ff1681565b60008054906101000a900473ffffffffffffffffffffffffffffffffffffffff1673ffffffffffffffffffffffffffffffffffffffff163373ffffffffffffffffffffffffffffffffffffffff1614610607576040517f82b4290000000000000000000000000000000000000000000000000000000000815260040160405180910390fd5b60004790506000811161064f576040517f08c379a000000000000000000000000000000000000000000000000000000000815260040161064690612567565b60405180910390fd5b60008060009054906101000a900473ffffffffffffffffffffffffffffffffffffffff1673ffffffffffffffffffffffffffffffffffffffff1682604051610696906125b8565b60006040518083038185875af1925050503d80600081146106d3576040519150601f19603f3d011682016040523d82523d6000602084013e6106d8565b606091505b505090508061071c576040517f08c379a000000000000000000000000000000000000000000000000000000000815260040161071390612619565b60405180910390fd5b60008054906101000a900473ffffffffffffffffffffffffffffffffffffffff1673ffffffffffffffffffffffffffffffffffffffff167f7fcf532c15f0a6db0bd6d0e038bea71d30d808c7d98cb3bf7268a95bf5081b658360405161078291906121b9565b60405180910390a27f8ac50fcf3d00dee234d54465411e35ea967c640e5c9aad390f167af64c2a8e83476040516107b991906121b9565b60405180910390a15050565b60008054906101000a900473ffffffffffffffffffffffffffffffffffffffff1673ffffffffffffffffffffffffffffffffffffffff163373ffffffffffffffffffffffffffffffffffffffff161461084a576040517f82b4290000000000000000000000000000000000000000000000000000000000815260040160405180910390fd5b6000610854610f87565b0361088b576040517fb76ca43d00000000000000000000000000000000000000000000000000000000815260040160405180910390fd5b600073ffffffffffffffffffffffffffffffffffffffff168173ffffffffffffffffffffffffffffffffffffffff16036108f1576040517f9c8d2cd200000000000000000000000000000000000000000000000000000000815260040160405180910390fd5b60006108fb610f87565b905060008273ffffffffffffffffffffffffffffffffffffffff1682604051610923906125b8565b60006040518083038185875af1925050503d8060008114610960576040519150601f19603f3d011682016040523d82523d6000602084013e610965565b606091505b50509050806109a9576040517f08c379a00000000000000000000000000000000000000000000000000000000081526004016109a090612685565b60405180910390fd5b8273ffffffffffffffffffffffffffffffffffffffff167f6fa1ae3f51a194d857cbe6cb9459898c29b220c48d53dc81d2d79adea5702b56836040516109ef91906121b9565b60405180910390a2505050565b60008054906101000a900473ffffffffffffffffffffffffffffffffffffffff1673ffffffffffffffffffffffffffffffffffffffff163373ffffffffffffffffffffffffffffffffffffffff1614610a81576040517f82b4290000000000000000000000000000000000000000000000000000000000815260040160405180910390fd5b600b60009054906101000a900460ff1615610ad1576040517f08c379a0000000000000000000000000000000000000000000000000000000008152600401610ac8906126f1565b60405180910390fd5b6000610adb610f87565b03610b12576040517fb76ca43d00000000000000000000000000000000000000000000000000000000815260040160405180910390fd5b600073ffffffffffffffffffffffffffffffffffffffff16600160009054906101000a900473ffffffffffffffffffffffffffffffffffffffff1673ffffffffffffffffffffffffffffffffffffffff1603610b9a576040517f9c8d2cd200000000000000000000000000000000000000000000000000000000815260040160405180910390fd5b6000610ba4610f87565b905060006064600a83610bb79190612740565b610bc191906127b1565b90506000600160009054906101000a900473ffffffffffffffffffffffffffffffffffffffff1673ffffffffffffffffffffffffffffffffffffffff1682604051610c0b906125b8565b60006040518083038185875af1925050503d8060008114610c48576040519150601f19603f3d011682016040523d82523d6000602084013e610c4d565b606091505b5050905080610c91576040517f08c379a0000000000000000000000000000000000000000000000000000000008152600401610c889061282e565b60405180910390fd5b600160009054906101000a900473ffffffffffffffffffffffffffffffffffffffff1673ffffffffffffffffffffffffffffffffffffffff167f9f8a5abfe9d79cc8b97238355d25de4797d9b9153383b831e776735b38d4cdb283604051610cf991906121b9565b60405180910390a260008284610d0f919061284e565b905060006003541115610e985760005b600780549050811015610e9657600060078281548110610d4257610d41612882565b5b9060005260206000200160009054906101000a900473ffffffffffffffffffffffffffffffffffffffff1690506000600354600860008473ffffffffffffffffffffffffffffffffffffffff1673ffffffffffffffffffffffffffffffffffffffff1681526020019081526020016000205485610dbf9190612740565b610dc991906127b1565b90506000811115610e81578173ffffffffffffffffffffffffffffffffffffffff1681604051610df8906125b8565b60006040518083038185875af1925050503d8060008114610e35576040519150601f19603f3d011682016040523d82523d6000602084013e610e3a565b606091505b50508095505084610e80576040517f08c379a0000000000000000000000000000000000000000000000000000000008152600401610e77906128fd565b60405180910390fd5b5b50508080610e8e9061291d565b915050610d1f565b505b7f7d26ae2e18a5cd23971453551df3a6cecfe10ac466cf513431fde2467840ed7f81604051610ec791906121b9565b60405180910390a16001600b60006101000a81548160ff0219169083151502179055507f4c4660db760944215f41e957066d756ad5fd0eed1b4640632322eb06f77b034d42600a54604051610f1d929190612965565b60405180910390a17f8ac50fcf3d00dee234d54465411e35ea967c640e5c9aad390f167af64c2a8e83610f4e610f87565b604051610f5b91906121b9565b60405180910390a150505050565b60086020528060005260406000206000915090505481565b60035481565b600047905090565b60008054906101000a900473ffffffffffffffffffffffffffffffffffffffff1673ffffffffffffffffffffffffffffffffffffffff163373ffffffffffffffffffffffffffffffffffffffff1614611014576040517f82b4290000000000000000000000000000000000000000000000000000000000815260040160405180910390fd5b60008111611057576040517f08c379a000000000000000000000000000000000000000000000000000000000815260040161104e90612a00565b60405180910390fd5b806004819055507ff11fddb6cfb2f6a89b6fa411be3b1fe813a389446b2c7ebf85fca9d0e08d092c8160405161108d91906121b9565b60405180910390a150565b60096020528060005260406000206000915090505481565b60055481565b60008054906101000a900473ffffffffffffffffffffffffffffffffffffffff1673ffffffffffffffffffffffffffffffffffffffff163373ffffffffffffffffffffffffffffffffffffffff161461113b576040517f82b4290000000000000000000000000000000000000000000000000000000000815260040160405180910390fd5b6000811161117e576040517f08c379a000000000000000000000000000000000000000000000000000000000815260040161117590612a92565b60405180910390fd5b806006819055507f93d2574a7b2675112bb4a34c59c274079e3087894d7f15a15641d450a9c97acb816040516111b491906121b9565b60405180910390a150565b60025481565b60008054906101000a900473ffffffffffffffffffffffffffffffffffffffff1681565b600a5481565b6000601e6003541161123557600160035461120a9190612ab2565b66038d7ea4c6800061121c9190612740565b6611c37937e0800061122e9190612ab2565b90506112ae565b6000667c58508723800090506000601e60016003546112549190612ab2565b61125e919061284e565b9050600061126d606483611f4e565b611278607d84611f4e565b61128291906127b1565b9050600081846112929190612740565b905060065481116112a357806112a7565b6006545b9450505050505b90565b60045481565b6000601e600354116112f15760035466038d7ea4c680006112d89190612740565b6611c37937e080006112ea9190612ab2565b905061135e565b6000667c58508723800090506000601e60035461130e919061284e565b9050600061131d606483611f4e565b611328607d84611f4e565b61133291906127b1565b9050600081846113429190612740565b905060065481116113535780611357565b6006545b9450505050505b90565b60008054906101000a900473ffffffffffffffffffffffffffffffffffffffff1673ffffffffffffffffffffffffffffffffffffffff163373ffffffffffffffffffffffffffffffffffffffff16146113e6576040517f82b4290000000000000000000000000000000000000000000000000000000000815260040160405180910390fd5b6000341115611427577f8ac50fcf3d00dee234d54465411e35ea967c640e5c9aad390f167af64c2a8e834760405161141e91906121b9565b60405180910390a15b60005b6007805490508110156115145760006007828154811061144d5761144c612882565b5b9060005260206000200160009054906101000a900473ffffffffffffffffffffffffffffffffffffffff169050600860008273ffffffffffffffffffffffffffffffffffffffff1673ffffffffffffffffffffffffffffffffffffffff16815260200190815260200160002060009055600960008273ffffffffffffffffffffffffffffffffffffffff1673ffffffffffffffffffffffffffffffffffffffff1681526020019081526020016000206000905550808061150c9061291d565b91505061142a565b50600760006115239190611fea565b6000600b60006101000a81548160ff021916908315150217905550600060038190555060008054906101000a900473ffffffffffffffffffffffffffffffffffffffff16600160006101000a81548173ffffffffffffffffffffffffffffffffffffffff021916908373ffffffffffffffffffffffffffffffffffffffff16021790555042600a819055507f389a851c813bc96190bd02f7aa164331a438c2275cb1083cd03931f8a526e58f600a546040516115df91906121b9565b60405180910390a17f50ad08f58a27f2851d7e3a1b3a6a46b290f2ce677e99642d30ff639721e77790600a5460405161161891906121b9565b60405180910390a17f097f38bd15981ec437e7e5f59ce1ea94c4c0520fbbfaeebde079ca4ba5a771fc600a5460405161165191906121b9565b60405180910390a17f8ac50fcf3d00dee234d54465411e35ea967c640e5c9aad390f167af64c2a8e834760405161168891906121b9565b60405180910390a1565b60065481565b600160009054906101000a900473ffffffffffffffffffffffffffffffffffffffff1681565b6060600780548060200260200160405190810160405280929190818152602001828054801561174257602002820191906000526020600020905b8160009054906101000a900473ffffffffffffffffffffffffffffffffffffffff1673ffffffffffffffffffffffffffffffffffffffff16815260200190600101908083116116f8575b5050505050905090565b600554600a5461175c9190612ab2565b421115611795576040517fb76ca43d00000000000000000000000000000000000000000000000000000000815260040160405180910390fd5b600b60009054906101000a900460ff16156117dc576040517fb76ca43d00000000000000000000000000000000000000000000000000000000815260040160405180910390fd5b60008054906101000a900473ffffffffffffffffffffffffffffffffffffffff1673ffffffffffffffffffffffffffffffffffffffff163373ffffffffffffffffffffffffffffffffffffffff1603611861576040517f82b4290000000000000000000000000000000000000000000000000000000000815260040160405180910390fd5b600061186b610f87565b036118a2576040517fb76ca43d00000000000000000000000000000000000000000000000000000000815260040160405180910390fd5b60008251036118dd576040517f19e4cb1000000000000000000000000000000000000000000000000000000000815260040160405180910390fd5b600454600860003373ffffffffffffffffffffffffffffffffffffffff1673ffffffffffffffffffffffffffffffffffffffff1681526020019081526020016000205410611964576004546040517fd688341100000000000000000000000000000000000000000000000000000000815260040161195b91906121b9565b60405180910390fd5b600061196e6112b7565b9050803410156119b75780346040517f2f5983220000000000000000000000000000000000000000000000000000000081526004016119ae929190612965565b60405180910390fd5b600060646050346119c89190612740565b6119d291906127b1565b9050600081346119e2919061284e565b905060008060009054906101000a900473ffffffffffffffffffffffffffffffffffffffff1673ffffffffffffffffffffffffffffffffffffffff1682604051611a2b906125b8565b60006040518083038185875af1925050503d8060008114611a68576040519150601f19603f3d011682016040523d82523d6000602084013e611a6d565b606091505b5050905080611ab1576040517f08c379a0000000000000000000000000000000000000000000000000000000008152600401611aa890612b32565b60405180910390fd5b6000600860003373ffffffffffffffffffffffffffffffffffffffff1673ffffffffffffffffffffffffffffffffffffffff1681526020019081526020016000205403611b74576007339080600181540180825580915050600190039060005260206000200160009091909190916101000a81548173ffffffffffffffffffffffffffffffffffffffff021916908373ffffffffffffffffffffffffffffffffffffffff16021790555060026000815480929190611b6e9061291d565b91905055505b600860003373ffffffffffffffffffffffffffffffffffffffff1673ffffffffffffffffffffffffffffffffffffffff1681526020019081526020016000206000815480929190611bc49061291d565b919050555083600960003373ffffffffffffffffffffffffffffffffffffffff1673ffffffffffffffffffffffffffffffffffffffff1681526020019081526020016000206000828254611c189190612ab2565b9250508190555033600160006101000a81548173ffffffffffffffffffffffffffffffffffffffff021916908373ffffffffffffffffffffffffffffffffffffffff16021790555060036000815480929190611c739061291d565b919050555042600a819055503373ffffffffffffffffffffffffffffffffffffffff167f484cf9a2b144a79d50ad4a6c852c88d377be171af3edce6f3fa94a6718f1d14734874342604051611ccb9493929190612bc0565b60405180910390a27f1d10a40d09ae13f42d8a863f4881bb8c7fc588a0a0d8ad00dd7c4ef77d23ce42611cfc6111ef565b600354604051611d0d929190612965565b60405180910390a17f8ac50fcf3d00dee234d54465411e35ea967c640e5c9aad390f167af64c2a8e83611d3e610f87565b604051611d4b91906121b9565b60405180910390a17f097f38bd15981ec437e7e5f59ce1ea94c4c0520fbbfaeebde079ca4ba5a771fc600a54604051611d8491906121b9565b60405180910390a17fed8d1315e9eb6ebe7c3f2c6c84931e9e72f34c13c09eda0392c8e704d4dc199f600354604051611dbd91906121b9565b60405180910390a17ffa0270d8853acb2923387f25a5030a0a0117a0f27dc518d436d86c3548723924600254604051611df691906121b9565b60405180910390a1505050505050565b60078181548110611e1657600080fd5b906000526020600020016000915054906101000a900473ffffffffffffffffffffffffffffffffffffffff1681565b60008054906101000a900473ffffffffffffffffffffffffffffffffffffffff1673ffffffffffffffffffffffffffffffffffffffff163373ffffffffffffffffffffffffffffffffffffffff1614611eca576040517f82b4290000000000000000000000000000000000000000000000000000000000815260040160405180910390fd5b60008111611f0d576040517f08c379a0000000000000000000000000000000000000000000000000000000008152600401611f0490612c7e565b60405180910390fd5b806005819055507f4c1644e685edccbaa71de19cc8947d453fbe78ba8ee874764a69f0f4fd32c1fc81604051611f4391906121b9565b60405180910390a150565b6000806001905060005b83811015611fde578482611f6c9190612740565b9150847fffffffffffffffffffffffffffffffffffffffffffffffffffffffffffffffff611f9a91906127b1565b821115611fcb577fffffffffffffffffffffffffffffffffffffffffffffffffffffffffffffffff92505050611fe4565b8080611fd69061291d565b915050611f58565b50809150505b92915050565b5080546000825590600052602060002090810190612008919061200b565b50565b5b8082111561202457600081600090555060010161200c565b5090565b600082825260208201905092915050565b7f46616c6c6261636b2066756e6374696f6e206973206e6f7420696d706c656d6560008201527f6e74656400000000000000000000000000000000000000000000000000000000602082015250565b6000612095602483612028565b91506120a082612039565b604082019050919050565b600060208201905081810360008301526120c481612088565b9050919050565b60008115159050919050565b6120e0816120cb565b82525050565b60006020820190506120fb60008301846120d7565b92915050565b6000604051905090565b600080fd5b600080fd5b600073ffffffffffffffffffffffffffffffffffffffff82169050919050565b600061214082612115565b9050919050565b61215081612135565b811461215b57600080fd5b50565b60008135905061216d81612147565b92915050565b6000602082840312156121895761218861210b565b5b60006121978482850161215e565b91505092915050565b6000819050919050565b6121b3816121a0565b82525050565b60006020820190506121ce60008301846121aa565b92915050565b6121dd816121a0565b81146121e857600080fd5b50565b6000813590506121fa816121d4565b92915050565b6000602082840312156122165761221561210b565b5b6000612224848285016121eb565b91505092915050565b61223681612135565b82525050565b6000602082019050612251600083018461222d565b92915050565b600081519050919050565b600082825260208201905092915050565b6000819050602082019050919050565b61228c81612135565b82525050565b600061229e8383612283565b60208301905092915050565b6000602082019050919050565b60006122c282612257565b6122cc8185612262565b93506122d783612273565b8060005b838110156123085781516122ef8882612292565b97506122fa836122aa565b9250506001810190506122db565b5085935050505092915050565b6000602082019050818103600083015261232f81846122b7565b905092915050565b600080fd5b600080fd5b6000601f19601f8301169050919050565b7f4e487b7100000000000000000000000000000000000000000000000000000000600052604160045260246000fd5b61238a82612341565b810181811067ffffffffffffffff821117156123a9576123a8612352565b5b80604052505050565b60006123bc612101565b90506123c88282612381565b919050565b600067ffffffffffffffff8211156123e8576123e7612352565b5b6123f182612341565b9050602081019050919050565b82818337600083830152505050565b600061242061241b846123cd565b6123b2565b90508281526020810184848401111561243c5761243b61233c565b5b6124478482856123fe565b509392505050565b600082601f83011261246457612463612337565b5b813561247484826020860161240d565b91505092915050565b600080604083850312156124945761249361210b565b5b600083013567ffffffffffffffff8111156124b2576124b1612110565b5b6124be8582860161244f565b925050602083013567ffffffffffffffff8111156124df576124de612110565b5b6124eb8582860161244f565b9150509250929050565b7f4e6f2066756e647320617661696c61626c6520666f722077697468647261776160008201527f6c00000000000000000000000000000000000000000000000000000000000000602082015250565b6000612551602183612028565b915061255c826124f5565b604082019050919050565b6000602082019050818103600083015261258081612544565b9050919050565b600081905092915050565b50565b60006125a2600083612587565b91506125ad82612592565b600082019050919050565b60006125c382612595565b9150819050919050565b7f5769746864726177616c206661696c6564000000000000000000000000000000600082015250565b6000612603601183612028565b915061260e826125cd565b602082019050919050565b60006020820190508181036000830152612632816125f6565b9050919050565b7f5472616e7366657220746f20726563697069656e74206661696c656400000000600082015250565b600061266f601c83612028565b915061267a82612639565b602082019050919050565b6000602082019050818103600083015261269e81612662565b9050919050565b7f47616d652068617320616c726561647920656e64656400000000000000000000600082015250565b60006126db601683612028565b91506126e6826126a5565b602082019050919050565b6000602082019050818103600083015261270a816126ce565b9050919050565b7f4e487b7100000000000000000000000000000000000000000000000000000000600052601160045260246000fd5b600061274b826121a0565b9150612756836121a0565b9250828202612764816121a0565b9150828204841483151761277b5761277a612711565b5b5092915050565b7f4e487b7100000000000000000000000000000000000000000000000000000000600052601260045260246000fd5b60006127bc826121a0565b91506127c7836121a0565b9250826127d7576127d6612782565b5b828204905092915050565b7f5472616e7366657220746f206c61737420706c61796572206661696c65640000600082015250565b6000612818601e83612028565b9150612823826127e2565b602082019050919050565b600060208201905081810360008301526128478161280b565b9050919050565b6000612859826121a0565b9150612864836121a0565b925082820390508181111561287c5761287b612711565b5b92915050565b7f4e487b7100000000000000000000000000000000000000000000000000000000600052603260045260246000fd5b7f506c6179657220726577617264207472616e73666572206661696c6564000000600082015250565b60006128e7601d83612028565b91506128f2826128b1565b602082019050919050565b60006020820190508181036000830152612916816128da565b9050919050565b6000612928826121a0565b91507fffffffffffffffffffffffffffffffffffffffffffffffffffffffffffffffff820361295a57612959612711565b5b600182019050919050565b600060408201905061297a60008301856121aa565b61298760208301846121aa565b9392505050565b7f4d41585f51554552494553206d7573742062652067726561746572207468616e60008201527f2030000000000000000000000000000000000000000000000000000000000000602082015250565b60006129ea602283612028565b91506129f58261298e565b604082019050919050565b60006020820190508181036000830152612a19816129dd565b9050919050565b7f4d41585f51554552595f464545206d757374206265206772656174657220746860008201527f616e203000000000000000000000000000000000000000000000000000000000602082015250565b6000612a7c602483612028565b9150612a8782612a20565b604082019050919050565b60006020820190508181036000830152612aab81612a6f565b9050919050565b6000612abd826121a0565b9150612ac8836121a0565b9250828201905080821115612ae057612adf612711565b5b92915050565b7f4f776e6572207472616e73666572206661696c65640000000000000000000000600082015250565b6000612b1c601583612028565b9150612b2782612ae6565b602082019050919050565b60006020820190508181036000830152612b4b81612b0f565b9050919050565b600081519050919050565b60005b83811015612b7b578082015181840152602081019050612b60565b60008484015250505050565b6000612b9282612b52565b612b9c8185612028565b9350612bac818560208601612b5d565b612bb581612341565b840191505092915050565b6000608082019050612bd560008301876121aa565b8181036020830152612be78186612b87565b9050612bf660408301856121aa565b612c0360608301846121aa565b95945050505050565b7f49444c455f54494d455f4c494d4954206d75737420626520677265617465722060008201527f7468616e20300000000000000000000000000000000000000000000000000000602082015250565b6000612c68602683612028565b9150612c7382612c0c565b604082019050919050565b60006020820190508181036000830152612c9781612c5b565b905091905056fea2646970667358221220ab137f761305ee90891ad5399ef46d1eda2467c9dbd454422d9707347dce020b64736f6c63430008120033","opcodes":"PUSH1 0x80 PUSH1 0x40 MSTORE PUSH1 0x0 PUSH1 0x2 SSTORE PUSH1 0x0 PUSH1 0x3 SSTORE PUSH2 0x1388 PUSH1 0x4 SSTORE PUSH3 0x93A80 PUSH1 0x5 SSTORE PUSH8 0xDE0B6B3A7640000 PUSH1 0x6 SSTORE PUSH1 0x0 PUSH1 0xB PUSH1 0x0 PUSH2 0x100 EXP DUP2 SLOAD DUP2 PUSH1 0xFF MUL NOT AND SWAP1 DUP4 ISZERO ISZERO MUL OR SWAP1 SSTORE POP CALLER PUSH1 0x0 DUP1 PUSH2 0x100 EXP DUP2 SLOAD DUP2 PUSH20 0xFFFFFFFFFFFFFFFFFFFFFFFFFFFFFFFFFFFFFFFF MUL NOT AND SWAP1 DUP4 PUSH20 0xFFFFFFFFFFFFFFFFFFFFFFFFFFFFFFFFFFFFFFFF AND MUL OR SWAP1 SSTORE POP PUSH1 0x0 CALLVALUE GT PUSH3 0xC8 JUMPI PUSH1 0x40 MLOAD PUSH32 0x8C379A000000000000000000000000000000000000000000000000000000000 DUP2 MSTORE PUSH1 0x4 ADD PUSH3 0xBF SWAP1 PUSH3 0x1B2 JUMP JUMPDEST PUSH1 0x40 MLOAD DUP1 SWAP2 SUB SWAP1 REVERT JUMPDEST TIMESTAMP PUSH1 0xA DUP2 SWAP1 SSTORE POP PUSH1 0x0 DUP1 SLOAD SWAP1 PUSH2 0x100 EXP SWAP1 DIV PUSH20 0xFFFFFFFFFFFFFFFFFFFFFFFFFFFFFFFFFFFFFFFF AND PUSH1 0x1 PUSH1 0x0 PUSH2 0x100 EXP DUP2 SLOAD DUP2 PUSH20 0xFFFFFFFFFFFFFFFFFFFFFFFFFFFFFFFFFFFFFFFF MUL NOT AND SWAP1 DUP4 PUSH20 0xFFFFFFFFFFFFFFFFFFFFFFFFFFFFFFFFFFFFFFFF AND MUL OR SWAP1 SSTORE POP PUSH1 0x0 PUSH1 0xB PUSH1 0x0 PUSH2 0x100 EXP DUP2 SLOAD DUP2 PUSH1 0xFF MUL NOT AND SWAP1 DUP4 ISZERO ISZERO MUL OR SWAP1 SSTORE POP PUSH3 0x1D4 JUMP JUMPDEST PUSH1 0x0 DUP3 DUP3 MSTORE PUSH1 0x20 DUP3 ADD SWAP1 POP SWAP3 SWAP2 POP POP JUMP JUMPDEST PUSH32 0x496E697469616C2066756E64696E672072657175697265640000000000000000 PUSH1 0x0 DUP3 ADD MSTORE POP JUMP JUMPDEST PUSH1 0x0 PUSH3 0x19A PUSH1 0x18 DUP4 PUSH3 0x151 JUMP JUMPDEST SWAP2 POP PUSH3 0x1A7 DUP3 PUSH3 0x162 JUMP JUMPDEST PUSH1 0x20 DUP3 ADD SWAP1 POP SWAP2 SWAP1 POP JUMP JUMPDEST PUSH1 0x0 PUSH1 0x20 DUP3 ADD SWAP1 POP DUP2 DUP2 SUB PUSH1 0x0 DUP4 ADD MSTORE PUSH3 0x1CD DUP2 PUSH3 0x18B JUMP JUMPDEST SWAP1 POP SWAP2 SWAP1 POP JUMP JUMPDEST PUSH2 0x2CD4 DUP1 PUSH3 0x1E4 PUSH1 0x0 CODECOPY PUSH1 0x0 RETURN INVALID PUSH1 0x80 PUSH1 0x40 MSTORE PUSH1 0x4 CALLDATASIZE LT PUSH2 0x14F JUMPI PUSH1 0x0 CALLDATALOAD PUSH1 0xE0 SHR DUP1 PUSH4 0x8DA5CB5B GT PUSH2 0xB6 JUMPI DUP1 PUSH4 0xCE4064E7 GT PUSH2 0x6F JUMPI DUP1 PUSH4 0xCE4064E7 EQ PUSH2 0x46C JUMPI DUP1 PUSH4 0xE3450E13 EQ PUSH2 0x497 JUMPI DUP1 PUSH4 0xEFA1C482 EQ PUSH2 0x4C2 JUMPI DUP1 PUSH4 0xF6711FBE EQ PUSH2 0x4ED JUMPI DUP1 PUSH4 0xF71D96CB EQ PUSH2 0x509 JUMPI DUP1 PUSH4 0xFC442E3A EQ PUSH2 0x546 JUMPI PUSH2 0x156 JUMP JUMPDEST DUP1 PUSH4 0x8DA5CB5B EQ PUSH2 0x38B JUMPI DUP1 PUSH4 0x8F71A265 EQ PUSH2 0x3B6 JUMPI DUP1 PUSH4 0x9AE5BB0E EQ PUSH2 0x3E1 JUMPI DUP1 PUSH4 0x9B3E156A EQ PUSH2 0x40C JUMPI DUP1 PUSH4 0xB3DBF4B4 EQ PUSH2 0x437 JUMPI DUP1 PUSH4 0xBB472219 EQ PUSH2 0x462 JUMPI PUSH2 0x156 JUMP JUMPDEST DUP1 PUSH4 0x719CE73E GT PUSH2 0x108 JUMPI DUP1 PUSH4 0x719CE73E EQ PUSH2 0x27B JUMPI DUP1 PUSH4 0x768DE1DB EQ PUSH2 0x2A6 JUMPI DUP1 PUSH4 0x78D4B4DF EQ PUSH2 0x2CF JUMPI DUP1 PUSH4 0x7FE6938F EQ PUSH2 0x30C JUMPI DUP1 PUSH4 0x886E2034 EQ PUSH2 0x337 JUMPI DUP1 PUSH4 0x8A609155 EQ PUSH2 0x360 JUMPI PUSH2 0x156 JUMP JUMPDEST DUP1 PUSH4 0x2F6FE396 EQ PUSH2 0x191 JUMPI DUP1 PUSH4 0x3CCFD60B EQ PUSH2 0x1BC JUMPI DUP1 PUSH4 0x4355B9D2 EQ PUSH2 0x1D3 JUMPI DUP1 PUSH4 0x4C9FB2BF EQ PUSH2 0x1FC JUMPI DUP1 PUSH4 0x4D7C49E9 EQ PUSH2 0x213 JUMPI DUP1 PUSH4 0x4EDBDC8A EQ PUSH2 0x250 JUMPI PUSH2 0x156 JUMP JUMPDEST CALLDATASIZE PUSH2 0x156 JUMPI STOP JUMPDEST PUSH1 0x40 MLOAD PUSH32 0x8C379A000000000000000000000000000000000000000000000000000000000 DUP2 MSTORE PUSH1 0x4 ADD PUSH2 0x188 SWAP1 PUSH2 0x20AB JUMP JUMPDEST PUSH1 0x40 MLOAD DUP1 SWAP2 SUB SWAP1 REVERT JUMPDEST CALLVALUE DUP1 ISZERO PUSH2 0x19D JUMPI PUSH1 0x0 DUP1 REVERT JUMPDEST POP PUSH2 0x1A6 PUSH2 0x56F JUMP JUMPDEST PUSH1 0x40 MLOAD PUSH2 0x1B3 SWAP2 SWAP1 PUSH2 0x20E6 JUMP JUMPDEST PUSH1 0x40 MLOAD DUP1 SWAP2 SUB SWAP1 RETURN JUMPDEST CALLVALUE DUP1 ISZERO PUSH2 0x1C8 JUMPI PUSH1 0x0 DUP1 REVERT JUMPDEST POP PUSH2 0x1D1 PUSH2 0x582 JUMP JUMPDEST STOP JUMPDEST CALLVALUE DUP1 ISZERO PUSH2 0x1DF JUMPI PUSH1 0x0 DUP1 REVERT JUMPDEST POP PUSH2 0x1FA PUSH1 0x4 DUP1 CALLDATASIZE SUB DUP2 ADD SWAP1 PUSH2 0x1F5 SWAP2 SWAP1 PUSH2 0x2173 JUMP JUMPDEST PUSH2 0x7C5 JUMP JUMPDEST STOP JUMPDEST CALLVALUE DUP1 ISZERO PUSH2 0x208 JUMPI PUSH1 0x0 DUP1 REVERT JUMPDEST POP PUSH2 0x211 PUSH2 0x9FC JUMP JUMPDEST STOP JUMPDEST CALLVALUE DUP1 ISZERO PUSH2 0x21F JUMPI PUSH1 0x0 DUP1 REVERT JUMPDEST POP PUSH2 0x23A PUSH1 0x4 DUP1 CALLDATASIZE SUB DUP2 ADD SWAP1 PUSH2 0x235 SWAP2 SWAP1 PUSH2 0x2173 JUMP JUMPDEST PUSH2 0xF69 JUMP JUMPDEST PUSH1 0x40 MLOAD PUSH2 0x247 SWAP2 SWAP1 PUSH2 0x21B9 JUMP JUMPDEST PUSH1 0x40 MLOAD DUP1 SWAP2 SUB SWAP1 RETURN JUMPDEST CALLVALUE DUP1 ISZERO PUSH2 0x25C JUMPI PUSH1 0x0 DUP1 REVERT JUMPDEST POP PUSH2 0x265 PUSH2 0xF81 JUMP JUMPDEST PUSH1 0x40 MLOAD PUSH2 0x272 SWAP2 SWAP1 PUSH2 0x21B9 JUMP JUMPDEST PUSH1 0x40 MLOAD DUP1 SWAP2 SUB SWAP1 RETURN JUMPDEST CALLVALUE DUP1 ISZERO PUSH2 0x287 JUMPI PUSH1 0x0 DUP1 REVERT JUMPDEST POP PUSH2 0x290 PUSH2 0xF87 JUMP JUMPDEST PUSH1 0x40 MLOAD PUSH2 0x29D SWAP2 SWAP1 PUSH2 0x21B9 JUMP JUMPDEST PUSH1 0x40 MLOAD DUP1 SWAP2 SUB SWAP1 RETURN JUMPDEST CALLVALUE DUP1 ISZERO PUSH2 0x2B2 JUMPI PUSH1 0x0 DUP1 REVERT JUMPDEST POP PUSH2 0x2CD PUSH1 0x4 DUP1 CALLDATASIZE SUB DUP2 ADD SWAP1 PUSH2 0x2C8 SWAP2 SWAP1 PUSH2 0x2200 JUMP JUMPDEST PUSH2 0xF8F JUMP JUMPDEST STOP JUMPDEST CALLVALUE DUP1 ISZERO PUSH2 0x2DB JUMPI PUSH1 0x0 DUP1 REVERT JUMPDEST POP PUSH2 0x2F6 PUSH1 0x4 DUP1 CALLDATASIZE SUB DUP2 ADD SWAP1 PUSH2 0x2F1 SWAP2 SWAP1 PUSH2 0x2173 JUMP JUMPDEST PUSH2 0x1098 JUMP JUMPDEST PUSH1 0x40 MLOAD PUSH2 0x303 SWAP2 SWAP1 PUSH2 0x21B9 JUMP JUMPDEST PUSH1 0x40 MLOAD DUP1 SWAP2 SUB SWAP1 RETURN JUMPDEST CALLVALUE DUP1 ISZERO PUSH2 0x318 JUMPI PUSH1 0x0 DUP1 REVERT JUMPDEST POP PUSH2 0x321 PUSH2 0x10B0 JUMP JUMPDEST PUSH1 0x40 MLOAD PUSH2 0x32E SWAP2 SWAP1 PUSH2 0x21B9 JUMP JUMPDEST PUSH1 0x40 MLOAD DUP1 SWAP2 SUB SWAP1 RETURN JUMPDEST CALLVALUE DUP1 ISZERO PUSH2 0x343 JUMPI PUSH1 0x0 DUP1 REVERT JUMPDEST POP PUSH2 0x35E PUSH1 0x4 DUP1 CALLDATASIZE SUB DUP2 ADD SWAP1 PUSH2 0x359 SWAP2 SWAP1 PUSH2 0x2200 JUMP JUMPDEST PUSH2 0x10B6 JUMP JUMPDEST STOP JUMPDEST CALLVALUE DUP1 ISZERO PUSH2 0x36C JUMPI PUSH1 0x0 DUP1 REVERT JUMPDEST POP PUSH2 0x375 PUSH2 0x11BF JUMP JUMPDEST PUSH1 0x40 MLOAD PUSH2 0x382 SWAP2 SWAP1 PUSH2 0x21B9 JUMP JUMPDEST PUSH1 0x40 MLOAD DUP1 SWAP2 SUB SWAP1 RETURN JUMPDEST CALLVALUE DUP1 ISZERO PUSH2 0x397 JUMPI PUSH1 0x0 DUP1 REVERT JUMPDEST POP PUSH2 0x3A0 PUSH2 0x11C5 JUMP JUMPDEST PUSH1 0x40 MLOAD PUSH2 0x3AD SWAP2 SWAP1 PUSH2 0x223C JUMP JUMPDEST PUSH1 0x40 MLOAD DUP1 SWAP2 SUB SWAP1 RETURN JUMPDEST CALLVALUE DUP1 ISZERO PUSH2 0x3C2 JUMPI PUSH1 0x0 DUP1 REVERT JUMPDEST POP PUSH2 0x3CB PUSH2 0x11E9 JUMP JUMPDEST PUSH1 0x40 MLOAD PUSH2 0x3D8 SWAP2 SWAP1 PUSH2 0x21B9 JUMP JUMPDEST PUSH1 0x40 MLOAD DUP1 SWAP2 SUB SWAP1 RETURN JUMPDEST CALLVALUE DUP1 ISZERO PUSH2 0x3ED JUMPI PUSH1 0x0 DUP1 REVERT JUMPDEST POP PUSH2 0x3F6 PUSH2 0x11EF JUMP JUMPDEST PUSH1 0x40 MLOAD PUSH2 0x403 SWAP2 SWAP1 PUSH2 0x21B9 JUMP JUMPDEST PUSH1 0x40 MLOAD DUP1 SWAP2 SUB SWAP1 RETURN JUMPDEST CALLVALUE DUP1 ISZERO PUSH2 0x418 JUMPI PUSH1 0x0 DUP1 REVERT JUMPDEST POP PUSH2 0x421 PUSH2 0x12B1 JUMP JUMPDEST PUSH1 0x40 MLOAD PUSH2 0x42E SWAP2 SWAP1 PUSH2 0x21B9 JUMP JUMPDEST PUSH1 0x40 MLOAD DUP1 SWAP2 SUB SWAP1 RETURN JUMPDEST CALLVALUE DUP1 ISZERO PUSH2 0x443 JUMPI PUSH1 0x0 DUP1 REVERT JUMPDEST POP PUSH2 0x44C PUSH2 0x12B7 JUMP JUMPDEST PUSH1 0x40 MLOAD PUSH2 0x459 SWAP2 SWAP1 PUSH2 0x21B9 JUMP JUMPDEST PUSH1 0x40 MLOAD DUP1 SWAP2 SUB SWAP1 RETURN JUMPDEST PUSH2 0x46A PUSH2 0x1361 JUMP JUMPDEST STOP JUMPDEST CALLVALUE DUP1 ISZERO PUSH2 0x478 JUMPI PUSH1 0x0 DUP1 REVERT JUMPDEST POP PUSH2 0x481 PUSH2 0x1692 JUMP JUMPDEST PUSH1 0x40 MLOAD PUSH2 0x48E SWAP2 SWAP1 PUSH2 0x21B9 JUMP JUMPDEST PUSH1 0x40 MLOAD DUP1 SWAP2 SUB SWAP1 RETURN JUMPDEST CALLVALUE DUP1 ISZERO PUSH2 0x4A3 JUMPI PUSH1 0x0 DUP1 REVERT JUMPDEST POP PUSH2 0x4AC PUSH2 0x1698 JUMP JUMPDEST PUSH1 0x40 MLOAD PUSH2 0x4B9 SWAP2 SWAP1 PUSH2 0x223C JUMP JUMPDEST PUSH1 0x40 MLOAD DUP1 SWAP2 SUB SWAP1 RETURN JUMPDEST CALLVALUE DUP1 ISZERO PUSH2 0x4CE JUMPI PUSH1 0x0 DUP1 REVERT JUMPDEST POP PUSH2 0x4D7 PUSH2 0x16BE JUMP JUMPDEST PUSH1 0x40 MLOAD PUSH2 0x4E4 SWAP2 SWAP1 PUSH2 0x2315 JUMP JUMPDEST PUSH1 0x40 MLOAD DUP1 SWAP2 SUB SWAP1 RETURN JUMPDEST PUSH2 0x507 PUSH1 0x4 DUP1 CALLDATASIZE SUB DUP2 ADD SWAP1 PUSH2 0x502 SWAP2 SWAP1 PUSH2 0x247D JUMP JUMPDEST PUSH2 0x174C JUMP JUMPDEST STOP JUMPDEST CALLVALUE DUP1 ISZERO PUSH2 0x515 JUMPI PUSH1 0x0 DUP1 REVERT JUMPDEST POP PUSH2 0x530 PUSH1 0x4 DUP1 CALLDATASIZE SUB DUP2 ADD SWAP1 PUSH2 0x52B SWAP2 SWAP1 PUSH2 0x2200 JUMP JUMPDEST PUSH2 0x1E06 JUMP JUMPDEST PUSH1 0x40 MLOAD PUSH2 0x53D SWAP2 SWAP1 PUSH2 0x223C JUMP JUMPDEST PUSH1 0x40 MLOAD DUP1 SWAP2 SUB SWAP1 RETURN JUMPDEST CALLVALUE DUP1 ISZERO PUSH2 0x552 JUMPI PUSH1 0x0 DUP1 REVERT JUMPDEST POP PUSH2 0x56D PUSH1 0x4 DUP1 CALLDATASIZE SUB DUP2 ADD SWAP1 PUSH2 0x568 SWAP2 SWAP1 PUSH2 0x2200 JUMP JUMPDEST PUSH2 0x1E45 JUMP JUMPDEST STOP JUMPDEST PUSH1 0xB PUSH1 0x0 SWAP1 SLOAD SWAP1 PUSH2 0x100 EXP SWAP1 DIV PUSH1 0xFF AND DUP2 JUMP JUMPDEST PUSH1 0x0 DUP1 SLOAD SWAP1 PUSH2 0x100 EXP SWAP1 DIV PUSH20 0xFFFFFFFFFFFFFFFFFFFFFFFFFFFFFFFFFFFFFFFF AND PUSH20 0xFFFFFFFFFFFFFFFFFFFFFFFFFFFFFFFFFFFFFFFF AND CALLER PUSH20 0xFFFFFFFFFFFFFFFFFFFFFFFFFFFFFFFFFFFFFFFF AND EQ PUSH2 0x607 JUMPI PUSH1 0x40 MLOAD PUSH32 0x82B4290000000000000000000000000000000000000000000000000000000000 DUP2 MSTORE PUSH1 0x4 ADD PUSH1 0x40 MLOAD DUP1 SWAP2 SUB SWAP1 REVERT JUMPDEST PUSH1 0x0 SELFBALANCE SWAP1 POP PUSH1 0x0 DUP2 GT PUSH2 0x64F JUMPI PUSH1 0x40 MLOAD PUSH32 0x8C379A000000000000000000000000000000000000000000000000000000000 DUP2 MSTORE PUSH1 0x4 ADD PUSH2 0x646 SWAP1 PUSH2 0x2567 JUMP JUMPDEST PUSH1 0x40 MLOAD DUP1 SWAP2 SUB SWAP1 REVERT JUMPDEST PUSH1 0x0 DUP1 PUSH1 0x0 SWAP1 SLOAD SWAP1 PUSH2 0x100 EXP SWAP1 DIV PUSH20 0xFFFFFFFFFFFFFFFFFFFFFFFFFFFFFFFFFFFFFFFF AND PUSH20 0xFFFFFFFFFFFFFFFFFFFFFFFFFFFFFFFFFFFFFFFF AND DUP3 PUSH1 0x40 MLOAD PUSH2 0x696 SWAP1 PUSH2 0x25B8 JUMP JUMPDEST PUSH1 0x0 PUSH1 0x40 MLOAD DUP1 DUP4 SUB DUP2 DUP6 DUP8 GAS CALL SWAP3 POP POP POP RETURNDATASIZE DUP1 PUSH1 0x0 DUP2 EQ PUSH2 0x6D3 JUMPI PUSH1 0x40 MLOAD SWAP2 POP PUSH1 0x1F NOT PUSH1 0x3F RETURNDATASIZE ADD AND DUP3 ADD PUSH1 0x40 MSTORE RETURNDATASIZE DUP3 MSTORE RETURNDATASIZE PUSH1 0x0 PUSH1 0x20 DUP5 ADD RETURNDATACOPY PUSH2 0x6D8 JUMP JUMPDEST PUSH1 0x60 SWAP2 POP JUMPDEST POP POP SWAP1 POP DUP1 PUSH2 0x71C JUMPI PUSH1 0x40 MLOAD PUSH32 0x8C379A000000000000000000000000000000000000000000000000000000000 DUP2 MSTORE PUSH1 0x4 ADD PUSH2 0x713 SWAP1 PUSH2 0x2619 JUMP JUMPDEST PUSH1 0x40 MLOAD DUP1 SWAP2 SUB SWAP1 REVERT JUMPDEST PUSH1 0x0 DUP1 SLOAD SWAP1 PUSH2 0x100 EXP SWAP1 DIV PUSH20 0xFFFFFFFFFFFFFFFFFFFFFFFFFFFFFFFFFFFFFFFF AND PUSH20 0xFFFFFFFFFFFFFFFFFFFFFFFFFFFFFFFFFFFFFFFF AND PUSH32 0x7FCF532C15F0A6DB0BD6D0E038BEA71D30D808C7D98CB3BF7268A95BF5081B65 DUP4 PUSH1 0x40 MLOAD PUSH2 0x782 SWAP2 SWAP1 PUSH2 0x21B9 JUMP JUMPDEST PUSH1 0x40 MLOAD DUP1 SWAP2 SUB SWAP1 LOG2 PUSH32 0x8AC50FCF3D00DEE234D54465411E35EA967C640E5C9AAD390F167AF64C2A8E83 SELFBALANCE PUSH1 0x40 MLOAD PUSH2 0x7B9 SWAP2 SWAP1 PUSH2 0x21B9 JUMP JUMPDEST PUSH1 0x40 MLOAD DUP1 SWAP2 SUB SWAP1 LOG1 POP POP JUMP JUMPDEST PUSH1 0x0 DUP1 SLOAD SWAP1 PUSH2 0x100 EXP SWAP1 DIV PUSH20 0xFFFFFFFFFFFFFFFFFFFFFFFFFFFFFFFFFFFFFFFF AND PUSH20 0xFFFFFFFFFFFFFFFFFFFFFFFFFFFFFFFFFFFFFFFF AND CALLER PUSH20 0xFFFFFFFFFFFFFFFFFFFFFFFFFFFFFFFFFFFFFFFF AND EQ PUSH2 0x84A JUMPI PUSH1 0x40 MLOAD PUSH32 0x82B4290000000000000000000000000000000000000000000000000000000000 DUP2 MSTORE PUSH1 0x4 ADD PUSH1 0x40 MLOAD DUP1 SWAP2 SUB SWAP1 REVERT JUMPDEST PUSH1 0x0 PUSH2 0x854 PUSH2 0xF87 JUMP JUMPDEST SUB PUSH2 0x88B JUMPI PUSH1 0x40 MLOAD PUSH32 0xB76CA43D00000000000000000000000000000000000000000000000000000000 DUP2 MSTORE PUSH1 0x4 ADD PUSH1 0x40 MLOAD DUP1 SWAP2 SUB SWAP1 REVERT JUMPDEST PUSH1 0x0 PUSH20 0xFFFFFFFFFFFFFFFFFFFFFFFFFFFFFFFFFFFFFFFF AND DUP2 PUSH20 0xFFFFFFFFFFFFFFFFFFFFFFFFFFFFFFFFFFFFFFFF AND SUB PUSH2 0x8F1 JUMPI PUSH1 0x40 MLOAD PUSH32 0x9C8D2CD200000000000000000000000000000000000000000000000000000000 DUP2 MSTORE PUSH1 0x4 ADD PUSH1 0x40 MLOAD DUP1 SWAP2 SUB SWAP1 REVERT JUMPDEST PUSH1 0x0 PUSH2 0x8FB PUSH2 0xF87 JUMP JUMPDEST SWAP1 POP PUSH1 0x0 DUP3 PUSH20 0xFFFFFFFFFFFFFFFFFFFFFFFFFFFFFFFFFFFFFFFF AND DUP3 PUSH1 0x40 MLOAD PUSH2 0x923 SWAP1 PUSH2 0x25B8 JUMP JUMPDEST PUSH1 0x0 PUSH1 0x40 MLOAD DUP1 DUP4 SUB DUP2 DUP6 DUP8 GAS CALL SWAP3 POP POP POP RETURNDATASIZE DUP1 PUSH1 0x0 DUP2 EQ PUSH2 0x960 JUMPI PUSH1 0x40 MLOAD SWAP2 POP PUSH1 0x1F NOT PUSH1 0x3F RETURNDATASIZE ADD AND DUP3 ADD PUSH1 0x40 MSTORE RETURNDATASIZE DUP3 MSTORE RETURNDATASIZE PUSH1 0x0 PUSH1 0x20 DUP5 ADD RETURNDATACOPY PUSH2 0x965 JUMP JUMPDEST PUSH1 0x60 SWAP2 POP JUMPDEST POP POP SWAP1 POP DUP1 PUSH2 0x9A9 JUMPI PUSH1 0x40 MLOAD PUSH32 0x8C379A000000000000000000000000000000000000000000000000000000000 DUP2 MSTORE PUSH1 0x4 ADD PUSH2 0x9A0 SWAP1 PUSH2 0x2685 JUMP JUMPDEST PUSH1 0x40 MLOAD DUP1 SWAP2 SUB SWAP1 REVERT JUMPDEST DUP3 PUSH20 0xFFFFFFFFFFFFFFFFFFFFFFFFFFFFFFFFFFFFFFFF AND PUSH32 0x6FA1AE3F51A194D857CBE6CB9459898C29B220C48D53DC81D2D79ADEA5702B56 DUP4 PUSH1 0x40 MLOAD PUSH2 0x9EF SWAP2 SWAP1 PUSH2 0x21B9 JUMP JUMPDEST PUSH1 0x40 MLOAD DUP1 SWAP2 SUB SWAP1 LOG2 POP POP POP JUMP JUMPDEST PUSH1 0x0 DUP1 SLOAD SWAP1 PUSH2 0x100 EXP SWAP1 DIV PUSH20 0xFFFFFFFFFFFFFFFFFFFFFFFFFFFFFFFFFFFFFFFF AND PUSH20 0xFFFFFFFFFFFFFFFFFFFFFFFFFFFFFFFFFFFFFFFF AND CALLER PUSH20 0xFFFFFFFFFFFFFFFFFFFFFFFFFFFFFFFFFFFFFFFF AND EQ PUSH2 0xA81 JUMPI PUSH1 0x40 MLOAD PUSH32 0x82B4290000000000000000000000000000000000000000000000000000000000 DUP2 MSTORE PUSH1 0x4 ADD PUSH1 0x40 MLOAD DUP1 SWAP2 SUB SWAP1 REVERT JUMPDEST PUSH1 0xB PUSH1 0x0 SWAP1 SLOAD SWAP1 PUSH2 0x100 EXP SWAP1 DIV PUSH1 0xFF AND ISZERO PUSH2 0xAD1 JUMPI PUSH1 0x40 MLOAD PUSH32 0x8C379A000000000000000000000000000000000000000000000000000000000 DUP2 MSTORE PUSH1 0x4 ADD PUSH2 0xAC8 SWAP1 PUSH2 0x26F1 JUMP JUMPDEST PUSH1 0x40 MLOAD DUP1 SWAP2 SUB SWAP1 REVERT JUMPDEST PUSH1 0x0 PUSH2 0xADB PUSH2 0xF87 JUMP JUMPDEST SUB PUSH2 0xB12 JUMPI PUSH1 0x40 MLOAD PUSH32 0xB76CA43D00000000000000000000000000000000000000000000000000000000 DUP2 MSTORE PUSH1 0x4 ADD PUSH1 0x40 MLOAD DUP1 SWAP2 SUB SWAP1 REVERT JUMPDEST PUSH1 0x0 PUSH20 0xFFFFFFFFFFFFFFFFFFFFFFFFFFFFFFFFFFFFFFFF AND PUSH1 0x1 PUSH1 0x0 SWAP1 SLOAD SWAP1 PUSH2 0x100 EXP SWAP1 DIV PUSH20 0xFFFFFFFFFFFFFFFFFFFFFFFFFFFFFFFFFFFFFFFF AND PUSH20 0xFFFFFFFFFFFFFFFFFFFFFFFFFFFFFFFFFFFFFFFF AND SUB PUSH2 0xB9A JUMPI PUSH1 0x40 MLOAD PUSH32 0x9C8D2CD200000000000000000000000000000000000000000000000000000000 DUP2 MSTORE PUSH1 0x4 ADD PUSH1 0x40 MLOAD DUP1 SWAP2 SUB SWAP1 REVERT JUMPDEST PUSH1 0x0 PUSH2 0xBA4 PUSH2 0xF87 JUMP JUMPDEST SWAP1 POP PUSH1 0x0 PUSH1 0x64 PUSH1 0xA DUP4 PUSH2 0xBB7 SWAP2 SWAP1 PUSH2 0x2740 JUMP JUMPDEST PUSH2 0xBC1 SWAP2 SWAP1 PUSH2 0x27B1 JUMP JUMPDEST SWAP1 POP PUSH1 0x0 PUSH1 0x1 PUSH1 0x0 SWAP1 SLOAD SWAP1 PUSH2 0x100 EXP SWAP1 DIV PUSH20 0xFFFFFFFFFFFFFFFFFFFFFFFFFFFFFFFFFFFFFFFF AND PUSH20 0xFFFFFFFFFFFFFFFFFFFFFFFFFFFFFFFFFFFFFFFF AND DUP3 PUSH1 0x40 MLOAD PUSH2 0xC0B SWAP1 PUSH2 0x25B8 JUMP JUMPDEST PUSH1 0x0 PUSH1 0x40 MLOAD DUP1 DUP4 SUB DUP2 DUP6 DUP8 GAS CALL SWAP3 POP POP POP RETURNDATASIZE DUP1 PUSH1 0x0 DUP2 EQ PUSH2 0xC48 JUMPI PUSH1 0x40 MLOAD SWAP2 POP PUSH1 0x1F NOT PUSH1 0x3F RETURNDATASIZE ADD AND DUP3 ADD PUSH1 0x40 MSTORE RETURNDATASIZE DUP3 MSTORE RETURNDATASIZE PUSH1 0x0 PUSH1 0x20 DUP5 ADD RETURNDATACOPY PUSH2 0xC4D JUMP JUMPDEST PUSH1 0x60 SWAP2 POP JUMPDEST POP POP SWAP1 POP DUP1 PUSH2 0xC91 JUMPI PUSH1 0x40 MLOAD PUSH32 0x8C379A000000000000000000000000000000000000000000000000000000000 DUP2 MSTORE PUSH1 0x4 ADD PUSH2 0xC88 SWAP1 PUSH2 0x282E JUMP JUMPDEST PUSH1 0x40 MLOAD DUP1 SWAP2 SUB SWAP1 REVERT JUMPDEST PUSH1 0x1 PUSH1 0x0 SWAP1 SLOAD SWAP1 PUSH2 0x100 EXP SWAP1 DIV PUSH20 0xFFFFFFFFFFFFFFFFFFFFFFFFFFFFFFFFFFFFFFFF AND PUSH20 0xFFFFFFFFFFFFFFFFFFFFFFFFFFFFFFFFFFFFFFFF AND PUSH32 0x9F8A5ABFE9D79CC8B97238355D25DE4797D9B9153383B831E776735B38D4CDB2 DUP4 PUSH1 0x40 MLOAD PUSH2 0xCF9 SWAP2 SWAP1 PUSH2 0x21B9 JUMP JUMPDEST PUSH1 0x40 MLOAD DUP1 SWAP2 SUB SWAP1 LOG2 PUSH1 0x0 DUP3 DUP5 PUSH2 0xD0F SWAP2 SWAP1 PUSH2 0x284E JUMP JUMPDEST SWAP1 POP PUSH1 0x0 PUSH1 0x3 SLOAD GT ISZERO PUSH2 0xE98 JUMPI PUSH1 0x0 JUMPDEST PUSH1 0x7 DUP1 SLOAD SWAP1 POP DUP2 LT ISZERO PUSH2 0xE96 JUMPI PUSH1 0x0 PUSH1 0x7 DUP3 DUP2 SLOAD DUP2 LT PUSH2 0xD42 JUMPI PUSH2 0xD41 PUSH2 0x2882 JUMP JUMPDEST JUMPDEST SWAP1 PUSH1 0x0 MSTORE PUSH1 0x20 PUSH1 0x0 KECCAK256 ADD PUSH1 0x0 SWAP1 SLOAD SWAP1 PUSH2 0x100 EXP SWAP1 DIV PUSH20 0xFFFFFFFFFFFFFFFFFFFFFFFFFFFFFFFFFFFFFFFF AND SWAP1 POP PUSH1 0x0 PUSH1 0x3 SLOAD PUSH1 0x8 PUSH1 0x0 DUP5 PUSH20 0xFFFFFFFFFFFFFFFFFFFFFFFFFFFFFFFFFFFFFFFF AND PUSH20 0xFFFFFFFFFFFFFFFFFFFFFFFFFFFFFFFFFFFFFFFF AND DUP2 MSTORE PUSH1 0x20 ADD SWAP1 DUP2 MSTORE PUSH1 0x20 ADD PUSH1 0x0 KECCAK256 SLOAD DUP6 PUSH2 0xDBF SWAP2 SWAP1 PUSH2 0x2740 JUMP JUMPDEST PUSH2 0xDC9 SWAP2 SWAP1 PUSH2 0x27B1 JUMP JUMPDEST SWAP1 POP PUSH1 0x0 DUP2 GT ISZERO PUSH2 0xE81 JUMPI DUP2 PUSH20 0xFFFFFFFFFFFFFFFFFFFFFFFFFFFFFFFFFFFFFFFF AND DUP2 PUSH1 0x40 MLOAD PUSH2 0xDF8 SWAP1 PUSH2 0x25B8 JUMP JUMPDEST PUSH1 0x0 PUSH1 0x40 MLOAD DUP1 DUP4 SUB DUP2 DUP6 DUP8 GAS CALL SWAP3 POP POP POP RETURNDATASIZE DUP1 PUSH1 0x0 DUP2 EQ PUSH2 0xE35 JUMPI PUSH1 0x40 MLOAD SWAP2 POP PUSH1 0x1F NOT PUSH1 0x3F RETURNDATASIZE ADD AND DUP3 ADD PUSH1 0x40 MSTORE RETURNDATASIZE DUP3 MSTORE RETURNDATASIZE PUSH1 0x0 PUSH1 0x20 DUP5 ADD RETURNDATACOPY PUSH2 0xE3A JUMP JUMPDEST PUSH1 0x60 SWAP2 POP JUMPDEST POP POP DUP1 SWAP6 POP POP DUP5 PUSH2 0xE80 JUMPI PUSH1 0x40 MLOAD PUSH32 0x8C379A000000000000000000000000000000000000000000000000000000000 DUP2 MSTORE PUSH1 0x4 ADD PUSH2 0xE77 SWAP1 PUSH2 0x28FD JUMP JUMPDEST PUSH1 0x40 MLOAD DUP1 SWAP2 SUB SWAP1 REVERT JUMPDEST JUMPDEST POP POP DUP1 DUP1 PUSH2 0xE8E SWAP1 PUSH2 0x291D JUMP JUMPDEST SWAP2 POP POP PUSH2 0xD1F JUMP JUMPDEST POP JUMPDEST PUSH32 0x7D26AE2E18A5CD23971453551DF3A6CECFE10AC466CF513431FDE2467840ED7F DUP2 PUSH1 0x40 MLOAD PUSH2 0xEC7 SWAP2 SWAP1 PUSH2 0x21B9 JUMP JUMPDEST PUSH1 0x40 MLOAD DUP1 SWAP2 SUB SWAP1 LOG1 PUSH1 0x1 PUSH1 0xB PUSH1 0x0 PUSH2 0x100 EXP DUP2 SLOAD DUP2 PUSH1 0xFF MUL NOT AND SWAP1 DUP4 ISZERO ISZERO MUL OR SWAP1 SSTORE POP PUSH32 0x4C4660DB760944215F41E957066D756AD5FD0EED1B4640632322EB06F77B034D TIMESTAMP PUSH1 0xA SLOAD PUSH1 0x40 MLOAD PUSH2 0xF1D SWAP3 SWAP2 SWAP1 PUSH2 0x2965 JUMP JUMPDEST PUSH1 0x40 MLOAD DUP1 SWAP2 SUB SWAP1 LOG1 PUSH32 0x8AC50FCF3D00DEE234D54465411E35EA967C640E5C9AAD390F167AF64C2A8E83 PUSH2 0xF4E PUSH2 0xF87 JUMP JUMPDEST PUSH1 0x40 MLOAD PUSH2 0xF5B SWAP2 SWAP1 PUSH2 0x21B9 JUMP JUMPDEST PUSH1 0x40 MLOAD DUP1 SWAP2 SUB SWAP1 LOG1 POP POP POP POP JUMP JUMPDEST PUSH1 0x8 PUSH1 0x20 MSTORE DUP1 PUSH1 0x0 MSTORE PUSH1 0x40 PUSH1 0x0 KECCAK256 PUSH1 0x0 SWAP2 POP SWAP1 POP SLOAD DUP2 JUMP JUMPDEST PUSH1 0x3 SLOAD DUP2 JUMP JUMPDEST PUSH1 0x0 SELFBALANCE SWAP1 POP SWAP1 JUMP JUMPDEST PUSH1 0x0 DUP1 SLOAD SWAP1 PUSH2 0x100 EXP SWAP1 DIV PUSH20 0xFFFFFFFFFFFFFFFFFFFFFFFFFFFFFFFFFFFFFFFF AND PUSH20 0xFFFFFFFFFFFFFFFFFFFFFFFFFFFFFFFFFFFFFFFF AND CALLER PUSH20 0xFFFFFFFFFFFFFFFFFFFFFFFFFFFFFFFFFFFFFFFF AND EQ PUSH2 0x1014 JUMPI PUSH1 0x40 MLOAD PUSH32 0x82B4290000000000000000000000000000000000000000000000000000000000 DUP2 MSTORE PUSH1 0x4 ADD PUSH1 0x40 MLOAD DUP1 SWAP2 SUB SWAP1 REVERT JUMPDEST PUSH1 0x0 DUP2 GT PUSH2 0x1057 JUMPI PUSH1 0x40 MLOAD PUSH32 0x8C379A000000000000000000000000000000000000000000000000000000000 DUP2 MSTORE PUSH1 0x4 ADD PUSH2 0x104E SWAP1 PUSH2 0x2A00 JUMP JUMPDEST PUSH1 0x40 MLOAD DUP1 SWAP2 SUB SWAP1 REVERT JUMPDEST DUP1 PUSH1 0x4 DUP2 SWAP1 SSTORE POP PUSH32 0xF11FDDB6CFB2F6A89B6FA411BE3B1FE813A389446B2C7EBF85FCA9D0E08D092C DUP2 PUSH1 0x40 MLOAD PUSH2 0x108D SWAP2 SWAP1 PUSH2 0x21B9 JUMP JUMPDEST PUSH1 0x40 MLOAD DUP1 SWAP2 SUB SWAP1 LOG1 POP JUMP JUMPDEST PUSH1 0x9 PUSH1 0x20 MSTORE DUP1 PUSH1 0x0 MSTORE PUSH1 0x40 PUSH1 0x0 KECCAK256 PUSH1 0x0 SWAP2 POP SWAP1 POP SLOAD DUP2 JUMP JUMPDEST PUSH1 0x5 SLOAD DUP2 JUMP JUMPDEST PUSH1 0x0 DUP1 SLOAD SWAP1 PUSH2 0x100 EXP SWAP1 DIV PUSH20 0xFFFFFFFFFFFFFFFFFFFFFFFFFFFFFFFFFFFFFFFF AND PUSH20 0xFFFFFFFFFFFFFFFFFFFFFFFFFFFFFFFFFFFFFFFF AND CALLER PUSH20 0xFFFFFFFFFFFFFFFFFFFFFFFFFFFFFFFFFFFFFFFF AND EQ PUSH2 0x113B JUMPI PUSH1 0x40 MLOAD PUSH32 0x82B4290000000000000000000000000000000000000000000000000000000000 DUP2 MSTORE PUSH1 0x4 ADD PUSH1 0x40 MLOAD DUP1 SWAP2 SUB SWAP1 REVERT JUMPDEST PUSH1 0x0 DUP2 GT PUSH2 0x117E JUMPI PUSH1 0x40 MLOAD PUSH32 0x8C379A000000000000000000000000000000000000000000000000000000000 DUP2 MSTORE PUSH1 0x4 ADD PUSH2 0x1175 SWAP1 PUSH2 0x2A92 JUMP JUMPDEST PUSH1 0x40 MLOAD DUP1 SWAP2 SUB SWAP1 REVERT JUMPDEST DUP1 PUSH1 0x6 DUP2 SWAP1 SSTORE POP PUSH32 0x93D2574A7B2675112BB4A34C59C274079E3087894D7F15A15641D450A9C97ACB DUP2 PUSH1 0x40 MLOAD PUSH2 0x11B4 SWAP2 SWAP1 PUSH2 0x21B9 JUMP JUMPDEST PUSH1 0x40 MLOAD DUP1 SWAP2 SUB SWAP1 LOG1 POP JUMP JUMPDEST PUSH1 0x2 SLOAD DUP2 JUMP JUMPDEST PUSH1 0x0 DUP1 SLOAD SWAP1 PUSH2 0x100 EXP SWAP1 DIV PUSH20 0xFFFFFFFFFFFFFFFFFFFFFFFFFFFFFFFFFFFFFFFF AND DUP2 JUMP JUMPDEST PUSH1 0xA SLOAD DUP2 JUMP JUMPDEST PUSH1 0x0 PUSH1 0x1E PUSH1 0x3 SLOAD GT PUSH2 0x1235 JUMPI PUSH1 0x1 PUSH1 0x3 SLOAD PUSH2 0x120A SWAP2 SWAP1 PUSH2 0x2AB2 JUMP JUMPDEST PUSH7 0x38D7EA4C68000 PUSH2 0x121C SWAP2 SWAP1 PUSH2 0x2740 JUMP JUMPDEST PUSH7 0x11C37937E08000 PUSH2 0x122E SWAP2 SWAP1 PUSH2 0x2AB2 JUMP JUMPDEST SWAP1 POP PUSH2 0x12AE JUMP JUMPDEST PUSH1 0x0 PUSH7 0x7C585087238000 SWAP1 POP PUSH1 0x0 PUSH1 0x1E PUSH1 0x1 PUSH1 0x3 SLOAD PUSH2 0x1254 SWAP2 SWAP1 PUSH2 0x2AB2 JUMP JUMPDEST PUSH2 0x125E SWAP2 SWAP1 PUSH2 0x284E JUMP JUMPDEST SWAP1 POP PUSH1 0x0 PUSH2 0x126D PUSH1 0x64 DUP4 PUSH2 0x1F4E JUMP JUMPDEST PUSH2 0x1278 PUSH1 0x7D DUP5 PUSH2 0x1F4E JUMP JUMPDEST PUSH2 0x1282 SWAP2 SWAP1 PUSH2 0x27B1 JUMP JUMPDEST SWAP1 POP PUSH1 0x0 DUP2 DUP5 PUSH2 0x1292 SWAP2 SWAP1 PUSH2 0x2740 JUMP JUMPDEST SWAP1 POP PUSH1 0x6 SLOAD DUP2 GT PUSH2 0x12A3 JUMPI DUP1 PUSH2 0x12A7 JUMP JUMPDEST PUSH1 0x6 SLOAD JUMPDEST SWAP5 POP POP POP POP POP JUMPDEST SWAP1 JUMP JUMPDEST PUSH1 0x4 SLOAD DUP2 JUMP JUMPDEST PUSH1 0x0 PUSH1 0x1E PUSH1 0x3 SLOAD GT PUSH2 0x12F1 JUMPI PUSH1 0x3 SLOAD PUSH7 0x38D7EA4C68000 PUSH2 0x12D8 SWAP2 SWAP1 PUSH2 0x2740 JUMP JUMPDEST PUSH7 0x11C37937E08000 PUSH2 0x12EA SWAP2 SWAP1 PUSH2 0x2AB2 JUMP JUMPDEST SWAP1 POP PUSH2 0x135E JUMP JUMPDEST PUSH1 0x0 PUSH7 0x7C585087238000 SWAP1 POP PUSH1 0x0 PUSH1 0x1E PUSH1 0x3 SLOAD PUSH2 0x130E SWAP2 SWAP1 PUSH2 0x284E JUMP JUMPDEST SWAP1 POP PUSH1 0x0 PUSH2 0x131D PUSH1 0x64 DUP4 PUSH2 0x1F4E JUMP JUMPDEST PUSH2 0x1328 PUSH1 0x7D DUP5 PUSH2 0x1F4E JUMP JUMPDEST PUSH2 0x1332 SWAP2 SWAP1 PUSH2 0x27B1 JUMP JUMPDEST SWAP1 POP PUSH1 0x0 DUP2 DUP5 PUSH2 0x1342 SWAP2 SWAP1 PUSH2 0x2740 JUMP JUMPDEST SWAP1 POP PUSH1 0x6 SLOAD DUP2 GT PUSH2 0x1353 JUMPI DUP1 PUSH2 0x1357 JUMP JUMPDEST PUSH1 0x6 SLOAD JUMPDEST SWAP5 POP POP POP POP POP JUMPDEST SWAP1 JUMP JUMPDEST PUSH1 0x0 DUP1 SLOAD SWAP1 PUSH2 0x100 EXP SWAP1 DIV PUSH20 0xFFFFFFFFFFFFFFFFFFFFFFFFFFFFFFFFFFFFFFFF AND PUSH20 0xFFFFFFFFFFFFFFFFFFFFFFFFFFFFFFFFFFFFFFFF AND CALLER PUSH20 0xFFFFFFFFFFFFFFFFFFFFFFFFFFFFFFFFFFFFFFFF AND EQ PUSH2 0x13E6 JUMPI PUSH1 0x40 MLOAD PUSH32 0x82B4290000000000000000000000000000000000000000000000000000000000 DUP2 MSTORE PUSH1 0x4 ADD PUSH1 0x40 MLOAD DUP1 SWAP2 SUB SWAP1 REVERT JUMPDEST PUSH1 0x0 CALLVALUE GT ISZERO PUSH2 0x1427 JUMPI PUSH32 0x8AC50FCF3D00DEE234D54465411E35EA967C640E5C9AAD390F167AF64C2A8E83 SELFBALANCE PUSH1 0x40 MLOAD PUSH2 0x141E SWAP2 SWAP1 PUSH2 0x21B9 JUMP JUMPDEST PUSH1 0x40 MLOAD DUP1 SWAP2 SUB SWAP1 LOG1 JUMPDEST PUSH1 0x0 JUMPDEST PUSH1 0x7 DUP1 SLOAD SWAP1 POP DUP2 LT ISZERO PUSH2 0x1514 JUMPI PUSH1 0x0 PUSH1 0x7 DUP3 DUP2 SLOAD DUP2 LT PUSH2 0x144D JUMPI PUSH2 0x144C PUSH2 0x2882 JUMP JUMPDEST JUMPDEST SWAP1 PUSH1 0x0 MSTORE PUSH1 0x20 PUSH1 0x0 KECCAK256 ADD PUSH1 0x0 SWAP1 SLOAD SWAP1 PUSH2 0x100 EXP SWAP1 DIV PUSH20 0xFFFFFFFFFFFFFFFFFFFFFFFFFFFFFFFFFFFFFFFF AND SWAP1 POP PUSH1 0x8 PUSH1 0x0 DUP3 PUSH20 0xFFFFFFFFFFFFFFFFFFFFFFFFFFFFFFFFFFFFFFFF AND PUSH20 0xFFFFFFFFFFFFFFFFFFFFFFFFFFFFFFFFFFFFFFFF AND DUP2 MSTORE PUSH1 0x20 ADD SWAP1 DUP2 MSTORE PUSH1 0x20 ADD PUSH1 0x0 KECCAK256 PUSH1 0x0 SWAP1 SSTORE PUSH1 0x9 PUSH1 0x0 DUP3 PUSH20 0xFFFFFFFFFFFFFFFFFFFFFFFFFFFFFFFFFFFFFFFF AND PUSH20 0xFFFFFFFFFFFFFFFFFFFFFFFFFFFFFFFFFFFFFFFF AND DUP2 MSTORE PUSH1 0x20 ADD SWAP1 DUP2 MSTORE PUSH1 0x20 ADD PUSH1 0x0 KECCAK256 PUSH1 0x0 SWAP1 SSTORE POP DUP1 DUP1 PUSH2 0x150C SWAP1 PUSH2 0x291D JUMP JUMPDEST SWAP2 POP POP PUSH2 0x142A JUMP JUMPDEST POP PUSH1 0x7 PUSH1 0x0 PUSH2 0x1523 SWAP2 SWAP1 PUSH2 0x1FEA JUMP JUMPDEST PUSH1 0x0 PUSH1 0xB PUSH1 0x0 PUSH2 0x100 EXP DUP2 SLOAD DUP2 PUSH1 0xFF MUL NOT AND SWAP1 DUP4 ISZERO ISZERO MUL OR SWAP1 SSTORE POP PUSH1 0x0 PUSH1 0x3 DUP2 SWAP1 SSTORE POP PUSH1 0x0 DUP1 SLOAD SWAP1 PUSH2 0x100 EXP SWAP1 DIV PUSH20 0xFFFFFFFFFFFFFFFFFFFFFFFFFFFFFFFFFFFFFFFF AND PUSH1 0x1 PUSH1 0x0 PUSH2 0x100 EXP DUP2 SLOAD DUP2 PUSH20 0xFFFFFFFFFFFFFFFFFFFFFFFFFFFFFFFFFFFFFFFF MUL NOT AND SWAP1 DUP4 PUSH20 0xFFFFFFFFFFFFFFFFFFFFFFFFFFFFFFFFFFFFFFFF AND MUL OR SWAP1 SSTORE POP TIMESTAMP PUSH1 0xA DUP2 SWAP1 SSTORE POP PUSH32 0x389A851C813BC96190BD02F7AA164331A438C2275CB1083CD03931F8A526E58F PUSH1 0xA SLOAD PUSH1 0x40 MLOAD PUSH2 0x15DF SWAP2 SWAP1 PUSH2 0x21B9 JUMP JUMPDEST PUSH1 0x40 MLOAD DUP1 SWAP2 SUB SWAP1 LOG1 PUSH32 0x50AD08F58A27F2851D7E3A1B3A6A46B290F2CE677E99642D30FF639721E77790 PUSH1 0xA SLOAD PUSH1 0x40 MLOAD PUSH2 0x1618 SWAP2 SWAP1 PUSH2 0x21B9 JUMP JUMPDEST PUSH1 0x40 MLOAD DUP1 SWAP2 SUB SWAP1 LOG1 PUSH32 0x97F38BD15981EC437E7E5F59CE1EA94C4C0520FBBFAEEBDE079CA4BA5A771FC PUSH1 0xA SLOAD PUSH1 0x40 MLOAD PUSH2 0x1651 SWAP2 SWAP1 PUSH2 0x21B9 JUMP JUMPDEST PUSH1 0x40 MLOAD DUP1 SWAP2 SUB SWAP1 LOG1 PUSH32 0x8AC50FCF3D00DEE234D54465411E35EA967C640E5C9AAD390F167AF64C2A8E83 SELFBALANCE PUSH1 0x40 MLOAD PUSH2 0x1688 SWAP2 SWAP1 PUSH2 0x21B9 JUMP JUMPDEST PUSH1 0x40 MLOAD DUP1 SWAP2 SUB SWAP1 LOG1 JUMP JUMPDEST PUSH1 0x6 SLOAD DUP2 JUMP JUMPDEST PUSH1 0x1 PUSH1 0x0 SWAP1 SLOAD SWAP1 PUSH2 0x100 EXP SWAP1 DIV PUSH20 0xFFFFFFFFFFFFFFFFFFFFFFFFFFFFFFFFFFFFFFFF AND DUP2 JUMP JUMPDEST PUSH1 0x60 PUSH1 0x7 DUP1 SLOAD DUP1 PUSH1 0x20 MUL PUSH1 0x20 ADD PUSH1 0x40 MLOAD SWAP1 DUP2 ADD PUSH1 0x40 MSTORE DUP1 SWAP3 SWAP2 SWAP1 DUP2 DUP2 MSTORE PUSH1 0x20 ADD DUP3 DUP1 SLOAD DUP1 ISZERO PUSH2 0x1742 JUMPI PUSH1 0x20 MUL DUP3 ADD SWAP2 SWAP1 PUSH1 0x0 MSTORE PUSH1 0x20 PUSH1 0x0 KECCAK256 SWAP1 JUMPDEST DUP2 PUSH1 0x0 SWAP1 SLOAD SWAP1 PUSH2 0x100 EXP SWAP1 DIV PUSH20 0xFFFFFFFFFFFFFFFFFFFFFFFFFFFFFFFFFFFFFFFF AND PUSH20 0xFFFFFFFFFFFFFFFFFFFFFFFFFFFFFFFFFFFFFFFF AND DUP2 MSTORE PUSH1 0x20 ADD SWAP1 PUSH1 0x1 ADD SWAP1 DUP1 DUP4 GT PUSH2 0x16F8 JUMPI JUMPDEST POP POP POP POP POP SWAP1 POP SWAP1 JUMP JUMPDEST PUSH1 0x5 SLOAD PUSH1 0xA SLOAD PUSH2 0x175C SWAP2 SWAP1 PUSH2 0x2AB2 JUMP JUMPDEST TIMESTAMP GT ISZERO PUSH2 0x1795 JUMPI PUSH1 0x40 MLOAD PUSH32 0xB76CA43D00000000000000000000000000000000000000000000000000000000 DUP2 MSTORE PUSH1 0x4 ADD PUSH1 0x40 MLOAD DUP1 SWAP2 SUB SWAP1 REVERT JUMPDEST PUSH1 0xB PUSH1 0x0 SWAP1 SLOAD SWAP1 PUSH2 0x100 EXP SWAP1 DIV PUSH1 0xFF AND ISZERO PUSH2 0x17DC JUMPI PUSH1 0x40 MLOAD PUSH32 0xB76CA43D00000000000000000000000000000000000000000000000000000000 DUP2 MSTORE PUSH1 0x4 ADD PUSH1 0x40 MLOAD DUP1 SWAP2 SUB SWAP1 REVERT JUMPDEST PUSH1 0x0 DUP1 SLOAD SWAP1 PUSH2 0x100 EXP SWAP1 DIV PUSH20 0xFFFFFFFFFFFFFFFFFFFFFFFFFFFFFFFFFFFFFFFF AND PUSH20 0xFFFFFFFFFFFFFFFFFFFFFFFFFFFFFFFFFFFFFFFF AND CALLER PUSH20 0xFFFFFFFFFFFFFFFFFFFFFFFFFFFFFFFFFFFFFFFF AND SUB PUSH2 0x1861 JUMPI PUSH1 0x40 MLOAD PUSH32 0x82B4290000000000000000000000000000000000000000000000000000000000 DUP2 MSTORE PUSH1 0x4 ADD PUSH1 0x40 MLOAD DUP1 SWAP2 SUB SWAP1 REVERT JUMPDEST PUSH1 0x0 PUSH2 0x186B PUSH2 0xF87 JUMP JUMPDEST SUB PUSH2 0x18A2 JUMPI PUSH1 0x40 MLOAD PUSH32 0xB76CA43D00000000000000000000000000000000000000000000000000000000 DUP2 MSTORE PUSH1 0x4 ADD PUSH1 0x40 MLOAD DUP1 SWAP2 SUB SWAP1 REVERT JUMPDEST PUSH1 0x0 DUP3 MLOAD SUB PUSH2 0x18DD JUMPI PUSH1 0x40 MLOAD PUSH32 0x19E4CB1000000000000000000000000000000000000000000000000000000000 DUP2 MSTORE PUSH1 0x4 ADD PUSH1 0x40 MLOAD DUP1 SWAP2 SUB SWAP1 REVERT JUMPDEST PUSH1 0x4 SLOAD PUSH1 0x8 PUSH1 0x0 CALLER PUSH20 0xFFFFFFFFFFFFFFFFFFFFFFFFFFFFFFFFFFFFFFFF AND PUSH20 0xFFFFFFFFFFFFFFFFFFFFFFFFFFFFFFFFFFFFFFFF AND DUP2 MSTORE PUSH1 0x20 ADD SWAP1 DUP2 MSTORE PUSH1 0x20 ADD PUSH1 0x0 KECCAK256 SLOAD LT PUSH2 0x1964 JUMPI PUSH1 0x4 SLOAD PUSH1 0x40 MLOAD PUSH32 0xD688341100000000000000000000000000000000000000000000000000000000 DUP2 MSTORE PUSH1 0x4 ADD PUSH2 0x195B SWAP2 SWAP1 PUSH2 0x21B9 JUMP JUMPDEST PUSH1 0x40 MLOAD DUP1 SWAP2 SUB SWAP1 REVERT JUMPDEST PUSH1 0x0 PUSH2 0x196E PUSH2 0x12B7 JUMP JUMPDEST SWAP1 POP DUP1 CALLVALUE LT ISZERO PUSH2 0x19B7 JUMPI DUP1 CALLVALUE PUSH1 0x40 MLOAD PUSH32 0x2F59832200000000000000000000000000000000000000000000000000000000 DUP2 MSTORE PUSH1 0x4 ADD PUSH2 0x19AE SWAP3 SWAP2 SWAP1 PUSH2 0x2965 JUMP JUMPDEST PUSH1 0x40 MLOAD DUP1 SWAP2 SUB SWAP1 REVERT JUMPDEST PUSH1 0x0 PUSH1 0x64 PUSH1 0x50 CALLVALUE PUSH2 0x19C8 SWAP2 SWAP1 PUSH2 0x2740 JUMP JUMPDEST PUSH2 0x19D2 SWAP2 SWAP1 PUSH2 0x27B1 JUMP JUMPDEST SWAP1 POP PUSH1 0x0 DUP2 CALLVALUE PUSH2 0x19E2 SWAP2 SWAP1 PUSH2 0x284E JUMP JUMPDEST SWAP1 POP PUSH1 0x0 DUP1 PUSH1 0x0 SWAP1 SLOAD SWAP1 PUSH2 0x100 EXP SWAP1 DIV PUSH20 0xFFFFFFFFFFFFFFFFFFFFFFFFFFFFFFFFFFFFFFFF AND PUSH20 0xFFFFFFFFFFFFFFFFFFFFFFFFFFFFFFFFFFFFFFFF AND DUP3 PUSH1 0x40 MLOAD PUSH2 0x1A2B SWAP1 PUSH2 0x25B8 JUMP JUMPDEST PUSH1 0x0 PUSH1 0x40 MLOAD DUP1 DUP4 SUB DUP2 DUP6 DUP8 GAS CALL SWAP3 POP POP POP RETURNDATASIZE DUP1 PUSH1 0x0 DUP2 EQ PUSH2 0x1A68 JUMPI PUSH1 0x40 MLOAD SWAP2 POP PUSH1 0x1F NOT PUSH1 0x3F RETURNDATASIZE ADD AND DUP3 ADD PUSH1 0x40 MSTORE RETURNDATASIZE DUP3 MSTORE RETURNDATASIZE PUSH1 0x0 PUSH1 0x20 DUP5 ADD RETURNDATACOPY PUSH2 0x1A6D JUMP JUMPDEST PUSH1 0x60 SWAP2 POP JUMPDEST POP POP SWAP1 POP DUP1 PUSH2 0x1AB1 JUMPI PUSH1 0x40 MLOAD PUSH32 0x8C379A000000000000000000000000000000000000000000000000000000000 DUP2 MSTORE PUSH1 0x4 ADD PUSH2 0x1AA8 SWAP1 PUSH2 0x2B32 JUMP JUMPDEST PUSH1 0x40 MLOAD DUP1 SWAP2 SUB SWAP1 REVERT JUMPDEST PUSH1 0x0 PUSH1 0x8 PUSH1 0x0 CALLER PUSH20 0xFFFFFFFFFFFFFFFFFFFFFFFFFFFFFFFFFFFFFFFF AND PUSH20 0xFFFFFFFFFFFFFFFFFFFFFFFFFFFFFFFFFFFFFFFF AND DUP2 MSTORE PUSH1 0x20 ADD SWAP1 DUP2 MSTORE PUSH1 0x20 ADD PUSH1 0x0 KECCAK256 SLOAD SUB PUSH2 0x1B74 JUMPI PUSH1 0x7 CALLER SWAP1 DUP1 PUSH1 0x1 DUP2 SLOAD ADD DUP1 DUP3 SSTORE DUP1 SWAP2 POP POP PUSH1 0x1 SWAP1 SUB SWAP1 PUSH1 0x0 MSTORE PUSH1 0x20 PUSH1 0x0 KECCAK256 ADD PUSH1 0x0 SWAP1 SWAP2 SWAP1 SWAP2 SWAP1 SWAP2 PUSH2 0x100 EXP DUP2 SLOAD DUP2 PUSH20 0xFFFFFFFFFFFFFFFFFFFFFFFFFFFFFFFFFFFFFFFF MUL NOT AND SWAP1 DUP4 PUSH20 0xFFFFFFFFFFFFFFFFFFFFFFFFFFFFFFFFFFFFFFFF AND MUL OR SWAP1 SSTORE POP PUSH1 0x2 PUSH1 0x0 DUP2 SLOAD DUP1 SWAP3 SWAP2 SWAP1 PUSH2 0x1B6E SWAP1 PUSH2 0x291D JUMP JUMPDEST SWAP2 SWAP1 POP SSTORE POP JUMPDEST PUSH1 0x8 PUSH1 0x0 CALLER PUSH20 0xFFFFFFFFFFFFFFFFFFFFFFFFFFFFFFFFFFFFFFFF AND PUSH20 0xFFFFFFFFFFFFFFFFFFFFFFFFFFFFFFFFFFFFFFFF AND DUP2 MSTORE PUSH1 0x20 ADD SWAP1 DUP2 MSTORE PUSH1 0x20 ADD PUSH1 0x0 KECCAK256 PUSH1 0x0 DUP2 SLOAD DUP1 SWAP3 SWAP2 SWAP1 PUSH2 0x1BC4 SWAP1 PUSH2 0x291D JUMP JUMPDEST SWAP2 SWAP1 POP SSTORE POP DUP4 PUSH1 0x9 PUSH1 0x0 CALLER PUSH20 0xFFFFFFFFFFFFFFFFFFFFFFFFFFFFFFFFFFFFFFFF AND PUSH20 0xFFFFFFFFFFFFFFFFFFFFFFFFFFFFFFFFFFFFFFFF AND DUP2 MSTORE PUSH1 0x20 ADD SWAP1 DUP2 MSTORE PUSH1 0x20 ADD PUSH1 0x0 KECCAK256 PUSH1 0x0 DUP3 DUP3 SLOAD PUSH2 0x1C18 SWAP2 SWAP1 PUSH2 0x2AB2 JUMP JUMPDEST SWAP3 POP POP DUP2 SWAP1 SSTORE POP CALLER PUSH1 0x1 PUSH1 0x0 PUSH2 0x100 EXP DUP2 SLOAD DUP2 PUSH20 0xFFFFFFFFFFFFFFFFFFFFFFFFFFFFFFFFFFFFFFFF MUL NOT AND SWAP1 DUP4 PUSH20 0xFFFFFFFFFFFFFFFFFFFFFFFFFFFFFFFFFFFFFFFF AND MUL OR SWAP1 SSTORE POP PUSH1 0x3 PUSH1 0x0 DUP2 SLOAD DUP1 SWAP3 SWAP2 SWAP1 PUSH2 0x1C73 SWAP1 PUSH2 0x291D JUMP JUMPDEST SWAP2 SWAP1 POP SSTORE POP TIMESTAMP PUSH1 0xA DUP2 SWAP1 SSTORE POP CALLER PUSH20 0xFFFFFFFFFFFFFFFFFFFFFFFFFFFFFFFFFFFFFFFF AND PUSH32 0x484CF9A2B144A79D50AD4A6C852C88D377BE171AF3EDCE6F3FA94A6718F1D147 CALLVALUE DUP8 NUMBER TIMESTAMP PUSH1 0x40 MLOAD PUSH2 0x1CCB SWAP5 SWAP4 SWAP3 SWAP2 SWAP1 PUSH2 0x2BC0 JUMP JUMPDEST PUSH1 0x40 MLOAD DUP1 SWAP2 SUB SWAP1 LOG2 PUSH32 0x1D10A40D09AE13F42D8A863F4881BB8C7FC588A0A0D8AD00DD7C4EF77D23CE42 PUSH2 0x1CFC PUSH2 0x11EF JUMP JUMPDEST PUSH1 0x3 SLOAD PUSH1 0x40 MLOAD PUSH2 0x1D0D SWAP3 SWAP2 SWAP1 PUSH2 0x2965 JUMP JUMPDEST PUSH1 0x40 MLOAD DUP1 SWAP2 SUB SWAP1 LOG1 PUSH32 0x8AC50FCF3D00DEE234D54465411E35EA967C640E5C9AAD390F167AF64C2A8E83 PUSH2 0x1D3E PUSH2 0xF87 JUMP JUMPDEST PUSH1 0x40 MLOAD PUSH2 0x1D4B SWAP2 SWAP1 PUSH2 0x21B9 JUMP JUMPDEST PUSH1 0x40 MLOAD DUP1 SWAP2 SUB SWAP1 LOG1 PUSH32 0x97F38BD15981EC437E7E5F59CE1EA94C4C0520FBBFAEEBDE079CA4BA5A771FC PUSH1 0xA SLOAD PUSH1 0x40 MLOAD PUSH2 0x1D84 SWAP2 SWAP1 PUSH2 0x21B9 JUMP JUMPDEST PUSH1 0x40 MLOAD DUP1 SWAP2 SUB SWAP1 LOG1 PUSH32 0xED8D1315E9EB6EBE7C3F2C6C84931E9E72F34C13C09EDA0392C8E704D4DC199F PUSH1 0x3 SLOAD PUSH1 0x40 MLOAD PUSH2 0x1DBD SWAP2 SWAP1 PUSH2 0x21B9 JUMP JUMPDEST PUSH1 0x40 MLOAD DUP1 SWAP2 SUB SWAP1 LOG1 PUSH32 0xFA0270D8853ACB2923387F25A5030A0A0117A0F27DC518D436D86C3548723924 PUSH1 0x2 SLOAD PUSH1 0x40 MLOAD PUSH2 0x1DF6 SWAP2 SWAP1 PUSH2 0x21B9 JUMP JUMPDEST PUSH1 0x40 MLOAD DUP1 SWAP2 SUB SWAP1 LOG1 POP POP POP POP POP POP JUMP JUMPDEST PUSH1 0x7 DUP2 DUP2 SLOAD DUP2 LT PUSH2 0x1E16 JUMPI PUSH1 0x0 DUP1 REVERT JUMPDEST SWAP1 PUSH1 0x0 MSTORE PUSH1 0x20 PUSH1 0x0 KECCAK256 ADD PUSH1 0x0 SWAP2 POP SLOAD SWAP1 PUSH2 0x100 EXP SWAP1 DIV PUSH20 0xFFFFFFFFFFFFFFFFFFFFFFFFFFFFFFFFFFFFFFFF AND DUP2 JUMP JUMPDEST PUSH1 0x0 DUP1 SLOAD SWAP1 PUSH2 0x100 EXP SWAP1 DIV PUSH20 0xFFFFFFFFFFFFFFFFFFFFFFFFFFFFFFFFFFFFFFFF AND PUSH20 0xFFFFFFFFFFFFFFFFFFFFFFFFFFFFFFFFFFFFFFFF AND CALLER PUSH20 0xFFFFFFFFFFFFFFFFFFFFFFFFFFFFFFFFFFFFFFFF AND EQ PUSH2 0x1ECA JUMPI PUSH1 0x40 MLOAD PUSH32 0x82B4290000000000000000000000000000000000000000000000000000000000 DUP2 MSTORE PUSH1 0x4 ADD PUSH1 0x40 MLOAD DUP1 SWAP2 SUB SWAP1 REVERT JUMPDEST PUSH1 0x0 DUP2 GT PUSH2 0x1F0D JUMPI PUSH1 0x40 MLOAD PUSH32 0x8C379A000000000000000000000000000000000000000000000000000000000 DUP2 MSTORE PUSH1 0x4 ADD PUSH2 0x1F04 SWAP1 PUSH2 0x2C7E JUMP JUMPDEST PUSH1 0x40 MLOAD DUP1 SWAP2 SUB SWAP1 REVERT JUMPDEST DUP1 PUSH1 0x5 DUP2 SWAP1 SSTORE POP PUSH32 0x4C1644E685EDCCBAA71DE19CC8947D453FBE78BA8EE874764A69F0F4FD32C1FC DUP2 PUSH1 0x40 MLOAD PUSH2 0x1F43 SWAP2 SWAP1 PUSH2 0x21B9 JUMP JUMPDEST PUSH1 0x40 MLOAD DUP1 SWAP2 SUB SWAP1 LOG1 POP JUMP JUMPDEST PUSH1 0x0 DUP1 PUSH1 0x1 SWAP1 POP PUSH1 0x0 JUMPDEST DUP4 DUP2 LT ISZERO PUSH2 0x1FDE JUMPI DUP5 DUP3 PUSH2 0x1F6C SWAP2 SWAP1 PUSH2 0x2740 JUMP JUMPDEST SWAP2 POP DUP5 PUSH32 0xFFFFFFFFFFFFFFFFFFFFFFFFFFFFFFFFFFFFFFFFFFFFFFFFFFFFFFFFFFFFFFFF PUSH2 0x1F9A SWAP2 SWAP1 PUSH2 0x27B1 JUMP JUMPDEST DUP3 GT ISZERO PUSH2 0x1FCB JUMPI PUSH32 0xFFFFFFFFFFFFFFFFFFFFFFFFFFFFFFFFFFFFFFFFFFFFFFFFFFFFFFFFFFFFFFFF SWAP3 POP POP POP PUSH2 0x1FE4 JUMP JUMPDEST DUP1 DUP1 PUSH2 0x1FD6 SWAP1 PUSH2 0x291D JUMP JUMPDEST SWAP2 POP POP PUSH2 0x1F58 JUMP JUMPDEST POP DUP1 SWAP2 POP POP JUMPDEST SWAP3 SWAP2 POP POP JUMP JUMPDEST POP DUP1 SLOAD PUSH1 0x0 DUP3 SSTORE SWAP1 PUSH1 0x0 MSTORE PUSH1 0x20 PUSH1 0x0 KECCAK256 SWAP1 DUP2 ADD SWAP1 PUSH2 0x2008 SWAP2 SWAP1 PUSH2 0x200B JUMP JUMPDEST POP JUMP JUMPDEST JUMPDEST DUP1 DUP3 GT ISZERO PUSH2 0x2024 JUMPI PUSH1 0x0 DUP2 PUSH1 0x0 SWAP1 SSTORE POP PUSH1 0x1 ADD PUSH2 0x200C JUMP JUMPDEST POP SWAP1 JUMP JUMPDEST PUSH1 0x0 DUP3 DUP3 MSTORE PUSH1 0x20 DUP3 ADD SWAP1 POP SWAP3 SWAP2 POP POP JUMP JUMPDEST PUSH32 0x46616C6C6261636B2066756E6374696F6E206973206E6F7420696D706C656D65 PUSH1 0x0 DUP3 ADD MSTORE PUSH32 0x6E74656400000000000000000000000000000000000000000000000000000000 PUSH1 0x20 DUP3 ADD MSTORE POP JUMP JUMPDEST PUSH1 0x0 PUSH2 0x2095 PUSH1 0x24 DUP4 PUSH2 0x2028 JUMP JUMPDEST SWAP2 POP PUSH2 0x20A0 DUP3 PUSH2 0x2039 JUMP JUMPDEST PUSH1 0x40 DUP3 ADD SWAP1 POP SWAP2 SWAP1 POP JUMP JUMPDEST PUSH1 0x0 PUSH1 0x20 DUP3 ADD SWAP1 POP DUP2 DUP2 SUB PUSH1 0x0 DUP4 ADD MSTORE PUSH2 0x20C4 DUP2 PUSH2 0x2088 JUMP JUMPDEST SWAP1 POP SWAP2 SWAP1 POP JUMP JUMPDEST PUSH1 0x0 DUP2 ISZERO ISZERO SWAP1 POP SWAP2 SWAP1 POP JUMP JUMPDEST PUSH2 0x20E0 DUP2 PUSH2 0x20CB JUMP JUMPDEST DUP3 MSTORE POP POP JUMP JUMPDEST PUSH1 0x0 PUSH1 0x20 DUP3 ADD SWAP1 POP PUSH2 0x20FB PUSH1 0x0 DUP4 ADD DUP5 PUSH2 0x20D7 JUMP JUMPDEST SWAP3 SWAP2 POP POP JUMP JUMPDEST PUSH1 0x0 PUSH1 0x40 MLOAD SWAP1 POP SWAP1 JUMP JUMPDEST PUSH1 0x0 DUP1 REVERT JUMPDEST PUSH1 0x0 DUP1 REVERT JUMPDEST PUSH1 0x0 PUSH20 0xFFFFFFFFFFFFFFFFFFFFFFFFFFFFFFFFFFFFFFFF DUP3 AND SWAP1 POP SWAP2 SWAP1 POP JUMP JUMPDEST PUSH1 0x0 PUSH2 0x2140 DUP3 PUSH2 0x2115 JUMP JUMPDEST SWAP1 POP SWAP2 SWAP1 POP JUMP JUMPDEST PUSH2 0x2150 DUP2 PUSH2 0x2135 JUMP JUMPDEST DUP2 EQ PUSH2 0x215B JUMPI PUSH1 0x0 DUP1 REVERT JUMPDEST POP JUMP JUMPDEST PUSH1 0x0 DUP2 CALLDATALOAD SWAP1 POP PUSH2 0x216D DUP2 PUSH2 0x2147 JUMP JUMPDEST SWAP3 SWAP2 POP POP JUMP JUMPDEST PUSH1 0x0 PUSH1 0x20 DUP3 DUP5 SUB SLT ISZERO PUSH2 0x2189 JUMPI PUSH2 0x2188 PUSH2 0x210B JUMP JUMPDEST JUMPDEST PUSH1 0x0 PUSH2 0x2197 DUP5 DUP3 DUP6 ADD PUSH2 0x215E JUMP JUMPDEST SWAP2 POP POP SWAP3 SWAP2 POP POP JUMP JUMPDEST PUSH1 0x0 DUP2 SWAP1 POP SWAP2 SWAP1 POP JUMP JUMPDEST PUSH2 0x21B3 DUP2 PUSH2 0x21A0 JUMP JUMPDEST DUP3 MSTORE POP POP JUMP JUMPDEST PUSH1 0x0 PUSH1 0x20 DUP3 ADD SWAP1 POP PUSH2 0x21CE PUSH1 0x0 DUP4 ADD DUP5 PUSH2 0x21AA JUMP JUMPDEST SWAP3 SWAP2 POP POP JUMP JUMPDEST PUSH2 0x21DD DUP2 PUSH2 0x21A0 JUMP JUMPDEST DUP2 EQ PUSH2 0x21E8 JUMPI PUSH1 0x0 DUP1 REVERT JUMPDEST POP JUMP JUMPDEST PUSH1 0x0 DUP2 CALLDATALOAD SWAP1 POP PUSH2 0x21FA DUP2 PUSH2 0x21D4 JUMP JUMPDEST SWAP3 SWAP2 POP POP JUMP JUMPDEST PUSH1 0x0 PUSH1 0x20 DUP3 DUP5 SUB SLT ISZERO PUSH2 0x2216 JUMPI PUSH2 0x2215 PUSH2 0x210B JUMP JUMPDEST JUMPDEST PUSH1 0x0 PUSH2 0x2224 DUP5 DUP3 DUP6 ADD PUSH2 0x21EB JUMP JUMPDEST SWAP2 POP POP SWAP3 SWAP2 POP POP JUMP JUMPDEST PUSH2 0x2236 DUP2 PUSH2 0x2135 JUMP JUMPDEST DUP3 MSTORE POP POP JUMP JUMPDEST PUSH1 0x0 PUSH1 0x20 DUP3 ADD SWAP1 POP PUSH2 0x2251 PUSH1 0x0 DUP4 ADD DUP5 PUSH2 0x222D JUMP JUMPDEST SWAP3 SWAP2 POP POP JUMP JUMPDEST PUSH1 0x0 DUP2 MLOAD SWAP1 POP SWAP2 SWAP1 POP JUMP JUMPDEST PUSH1 0x0 DUP3 DUP3 MSTORE PUSH1 0x20 DUP3 ADD SWAP1 POP SWAP3 SWAP2 POP POP JUMP JUMPDEST PUSH1 0x0 DUP2 SWAP1 POP PUSH1 0x20 DUP3 ADD SWAP1 POP SWAP2 SWAP1 POP JUMP JUMPDEST PUSH2 0x228C DUP2 PUSH2 0x2135 JUMP JUMPDEST DUP3 MSTORE POP POP JUMP JUMPDEST PUSH1 0x0 PUSH2 0x229E DUP4 DUP4 PUSH2 0x2283 JUMP JUMPDEST PUSH1 0x20 DUP4 ADD SWAP1 POP SWAP3 SWAP2 POP POP JUMP JUMPDEST PUSH1 0x0 PUSH1 0x20 DUP3 ADD SWAP1 POP SWAP2 SWAP1 POP JUMP JUMPDEST PUSH1 0x0 PUSH2 0x22C2 DUP3 PUSH2 0x2257 JUMP JUMPDEST PUSH2 0x22CC DUP2 DUP6 PUSH2 0x2262 JUMP JUMPDEST SWAP4 POP PUSH2 0x22D7 DUP4 PUSH2 0x2273 JUMP JUMPDEST DUP1 PUSH1 0x0 JUMPDEST DUP4 DUP2 LT ISZERO PUSH2 0x2308 JUMPI DUP2 MLOAD PUSH2 0x22EF DUP9 DUP3 PUSH2 0x2292 JUMP JUMPDEST SWAP8 POP PUSH2 0x22FA DUP4 PUSH2 0x22AA JUMP JUMPDEST SWAP3 POP POP PUSH1 0x1 DUP2 ADD SWAP1 POP PUSH2 0x22DB JUMP JUMPDEST POP DUP6 SWAP4 POP POP POP POP SWAP3 SWAP2 POP POP JUMP JUMPDEST PUSH1 0x0 PUSH1 0x20 DUP3 ADD SWAP1 POP DUP2 DUP2 SUB PUSH1 0x0 DUP4 ADD MSTORE PUSH2 0x232F DUP2 DUP5 PUSH2 0x22B7 JUMP JUMPDEST SWAP1 POP SWAP3 SWAP2 POP POP JUMP JUMPDEST PUSH1 0x0 DUP1 REVERT JUMPDEST PUSH1 0x0 DUP1 REVERT JUMPDEST PUSH1 0x0 PUSH1 0x1F NOT PUSH1 0x1F DUP4 ADD AND SWAP1 POP SWAP2 SWAP1 POP JUMP JUMPDEST PUSH32 0x4E487B7100000000000000000000000000000000000000000000000000000000 PUSH1 0x0 MSTORE PUSH1 0x41 PUSH1 0x4 MSTORE PUSH1 0x24 PUSH1 0x0 REVERT JUMPDEST PUSH2 0x238A DUP3 PUSH2 0x2341 JUMP JUMPDEST DUP2 ADD DUP2 DUP2 LT PUSH8 0xFFFFFFFFFFFFFFFF DUP3 GT OR ISZERO PUSH2 0x23A9 JUMPI PUSH2 0x23A8 PUSH2 0x2352 JUMP JUMPDEST JUMPDEST DUP1 PUSH1 0x40 MSTORE POP POP POP JUMP JUMPDEST PUSH1 0x0 PUSH2 0x23BC PUSH2 0x2101 JUMP JUMPDEST SWAP1 POP PUSH2 0x23C8 DUP3 DUP3 PUSH2 0x2381 JUMP JUMPDEST SWAP2 SWAP1 POP JUMP JUMPDEST PUSH1 0x0 PUSH8 0xFFFFFFFFFFFFFFFF DUP3 GT ISZERO PUSH2 0x23E8 JUMPI PUSH2 0x23E7 PUSH2 0x2352 JUMP JUMPDEST JUMPDEST PUSH2 0x23F1 DUP3 PUSH2 0x2341 JUMP JUMPDEST SWAP1 POP PUSH1 0x20 DUP2 ADD SWAP1 POP SWAP2 SWAP1 POP JUMP JUMPDEST DUP3 DUP2 DUP4 CALLDATACOPY PUSH1 0x0 DUP4 DUP4 ADD MSTORE POP POP POP JUMP JUMPDEST PUSH1 0x0 PUSH2 0x2420 PUSH2 0x241B DUP5 PUSH2 0x23CD JUMP JUMPDEST PUSH2 0x23B2 JUMP JUMPDEST SWAP1 POP DUP3 DUP2 MSTORE PUSH1 0x20 DUP2 ADD DUP5 DUP5 DUP5 ADD GT ISZERO PUSH2 0x243C JUMPI PUSH2 0x243B PUSH2 0x233C JUMP JUMPDEST JUMPDEST PUSH2 0x2447 DUP5 DUP3 DUP6 PUSH2 0x23FE JUMP JUMPDEST POP SWAP4 SWAP3 POP POP POP JUMP JUMPDEST PUSH1 0x0 DUP3 PUSH1 0x1F DUP4 ADD SLT PUSH2 0x2464 JUMPI PUSH2 0x2463 PUSH2 0x2337 JUMP JUMPDEST JUMPDEST DUP2 CALLDATALOAD PUSH2 0x2474 DUP5 DUP3 PUSH1 0x20 DUP7 ADD PUSH2 0x240D JUMP JUMPDEST SWAP2 POP POP SWAP3 SWAP2 POP POP JUMP JUMPDEST PUSH1 0x0 DUP1 PUSH1 0x40 DUP4 DUP6 SUB SLT ISZERO PUSH2 0x2494 JUMPI PUSH2 0x2493 PUSH2 0x210B JUMP JUMPDEST JUMPDEST PUSH1 0x0 DUP4 ADD CALLDATALOAD PUSH8 0xFFFFFFFFFFFFFFFF DUP2 GT ISZERO PUSH2 0x24B2 JUMPI PUSH2 0x24B1 PUSH2 0x2110 JUMP JUMPDEST JUMPDEST PUSH2 0x24BE DUP6 DUP3 DUP7 ADD PUSH2 0x244F JUMP JUMPDEST SWAP3 POP POP PUSH1 0x20 DUP4 ADD CALLDATALOAD PUSH8 0xFFFFFFFFFFFFFFFF DUP2 GT ISZERO PUSH2 0x24DF JUMPI PUSH2 0x24DE PUSH2 0x2110 JUMP JUMPDEST JUMPDEST PUSH2 0x24EB DUP6 DUP3 DUP7 ADD PUSH2 0x244F JUMP JUMPDEST SWAP2 POP POP SWAP3 POP SWAP3 SWAP1 POP JUMP JUMPDEST PUSH32 0x4E6F2066756E647320617661696C61626C6520666F7220776974686472617761 PUSH1 0x0 DUP3 ADD MSTORE PUSH32 0x6C00000000000000000000000000000000000000000000000000000000000000 PUSH1 0x20 DUP3 ADD MSTORE POP JUMP JUMPDEST PUSH1 0x0 PUSH2 0x2551 PUSH1 0x21 DUP4 PUSH2 0x2028 JUMP JUMPDEST SWAP2 POP PUSH2 0x255C DUP3 PUSH2 0x24F5 JUMP JUMPDEST PUSH1 0x40 DUP3 ADD SWAP1 POP SWAP2 SWAP1 POP JUMP JUMPDEST PUSH1 0x0 PUSH1 0x20 DUP3 ADD SWAP1 POP DUP2 DUP2 SUB PUSH1 0x0 DUP4 ADD MSTORE PUSH2 0x2580 DUP2 PUSH2 0x2544 JUMP JUMPDEST SWAP1 POP SWAP2 SWAP1 POP JUMP JUMPDEST PUSH1 0x0 DUP2 SWAP1 POP SWAP3 SWAP2 POP POP JUMP JUMPDEST POP JUMP JUMPDEST PUSH1 0x0 PUSH2 0x25A2 PUSH1 0x0 DUP4 PUSH2 0x2587 JUMP JUMPDEST SWAP2 POP PUSH2 0x25AD DUP3 PUSH2 0x2592 JUMP JUMPDEST PUSH1 0x0 DUP3 ADD SWAP1 POP SWAP2 SWAP1 POP JUMP JUMPDEST PUSH1 0x0 PUSH2 0x25C3 DUP3 PUSH2 0x2595 JUMP JUMPDEST SWAP2 POP DUP2 SWAP1 POP SWAP2 SWAP1 POP JUMP JUMPDEST PUSH32 0x5769746864726177616C206661696C6564000000000000000000000000000000 PUSH1 0x0 DUP3 ADD MSTORE POP JUMP JUMPDEST PUSH1 0x0 PUSH2 0x2603 PUSH1 0x11 DUP4 PUSH2 0x2028 JUMP JUMPDEST SWAP2 POP PUSH2 0x260E DUP3 PUSH2 0x25CD JUMP JUMPDEST PUSH1 0x20 DUP3 ADD SWAP1 POP SWAP2 SWAP1 POP JUMP JUMPDEST PUSH1 0x0 PUSH1 0x20 DUP3 ADD SWAP1 POP DUP2 DUP2 SUB PUSH1 0x0 DUP4 ADD MSTORE PUSH2 0x2632 DUP2 PUSH2 0x25F6 JUMP JUMPDEST SWAP1 POP SWAP2 SWAP1 POP JUMP JUMPDEST PUSH32 0x5472616E7366657220746F20726563697069656E74206661696C656400000000 PUSH1 0x0 DUP3 ADD MSTORE POP JUMP JUMPDEST PUSH1 0x0 PUSH2 0x266F PUSH1 0x1C DUP4 PUSH2 0x2028 JUMP JUMPDEST SWAP2 POP PUSH2 0x267A DUP3 PUSH2 0x2639 JUMP JUMPDEST PUSH1 0x20 DUP3 ADD SWAP1 POP SWAP2 SWAP1 POP JUMP JUMPDEST PUSH1 0x0 PUSH1 0x20 DUP3 ADD SWAP1 POP DUP2 DUP2 SUB PUSH1 0x0 DUP4 ADD MSTORE PUSH2 0x269E DUP2 PUSH2 0x2662 JUMP JUMPDEST SWAP1 POP SWAP2 SWAP1 POP JUMP JUMPDEST PUSH32 0x47616D652068617320616C726561647920656E64656400000000000000000000 PUSH1 0x0 DUP3 ADD MSTORE POP JUMP JUMPDEST PUSH1 0x0 PUSH2 0x26DB PUSH1 0x16 DUP4 PUSH2 0x2028 JUMP JUMPDEST SWAP2 POP PUSH2 0x26E6 DUP3 PUSH2 0x26A5 JUMP JUMPDEST PUSH1 0x20 DUP3 ADD SWAP1 POP SWAP2 SWAP1 POP JUMP JUMPDEST PUSH1 0x0 PUSH1 0x20 DUP3 ADD SWAP1 POP DUP2 DUP2 SUB PUSH1 0x0 DUP4 ADD MSTORE PUSH2 0x270A DUP2 PUSH2 0x26CE JUMP JUMPDEST SWAP1 POP SWAP2 SWAP1 POP JUMP JUMPDEST PUSH32 0x4E487B7100000000000000000000000000000000000000000000000000000000 PUSH1 0x0 MSTORE PUSH1 0x11 PUSH1 0x4 MSTORE PUSH1 0x24 PUSH1 0x0 REVERT JUMPDEST PUSH1 0x0 PUSH2 0x274B DUP3 PUSH2 0x21A0 JUMP JUMPDEST SWAP2 POP PUSH2 0x2756 DUP4 PUSH2 0x21A0 JUMP JUMPDEST SWAP3 POP DUP3 DUP3 MUL PUSH2 0x2764 DUP2 PUSH2 0x21A0 JUMP JUMPDEST SWAP2 POP DUP3 DUP3 DIV DUP5 EQ DUP4 ISZERO OR PUSH2 0x277B JUMPI PUSH2 0x277A PUSH2 0x2711 JUMP JUMPDEST JUMPDEST POP SWAP3 SWAP2 POP POP JUMP JUMPDEST PUSH32 0x4E487B7100000000000000000000000000000000000000000000000000000000 PUSH1 0x0 MSTORE PUSH1 0x12 PUSH1 0x4 MSTORE PUSH1 0x24 PUSH1 0x0 REVERT JUMPDEST PUSH1 0x0 PUSH2 0x27BC DUP3 PUSH2 0x21A0 JUMP JUMPDEST SWAP2 POP PUSH2 0x27C7 DUP4 PUSH2 0x21A0 JUMP JUMPDEST SWAP3 POP DUP3 PUSH2 0x27D7 JUMPI PUSH2 0x27D6 PUSH2 0x2782 JUMP JUMPDEST JUMPDEST DUP3 DUP3 DIV SWAP1 POP SWAP3 SWAP2 POP POP JUMP JUMPDEST PUSH32 0x5472616E7366657220746F206C61737420706C61796572206661696C65640000 PUSH1 0x0 DUP3 ADD MSTORE POP JUMP JUMPDEST PUSH1 0x0 PUSH2 0x2818 PUSH1 0x1E DUP4 PUSH2 0x2028 JUMP JUMPDEST SWAP2 POP PUSH2 0x2823 DUP3 PUSH2 0x27E2 JUMP JUMPDEST PUSH1 0x20 DUP3 ADD SWAP1 POP SWAP2 SWAP1 POP JUMP JUMPDEST PUSH1 0x0 PUSH1 0x20 DUP3 ADD SWAP1 POP DUP2 DUP2 SUB PUSH1 0x0 DUP4 ADD MSTORE PUSH2 0x2847 DUP2 PUSH2 0x280B JUMP JUMPDEST SWAP1 POP SWAP2 SWAP1 POP JUMP JUMPDEST PUSH1 0x0 PUSH2 0x2859 DUP3 PUSH2 0x21A0 JUMP JUMPDEST SWAP2 POP PUSH2 0x2864 DUP4 PUSH2 0x21A0 JUMP JUMPDEST SWAP3 POP DUP3 DUP3 SUB SWAP1 POP DUP2 DUP2 GT ISZERO PUSH2 0x287C JUMPI PUSH2 0x287B PUSH2 0x2711 JUMP JUMPDEST JUMPDEST SWAP3 SWAP2 POP POP JUMP JUMPDEST PUSH32 0x4E487B7100000000000000000000000000000000000000000000000000000000 PUSH1 0x0 MSTORE PUSH1 0x32 PUSH1 0x4 MSTORE PUSH1 0x24 PUSH1 0x0 REVERT JUMPDEST PUSH32 0x506C6179657220726577617264207472616E73666572206661696C6564000000 PUSH1 0x0 DUP3 ADD MSTORE POP JUMP JUMPDEST PUSH1 0x0 PUSH2 0x28E7 PUSH1 0x1D DUP4 PUSH2 0x2028 JUMP JUMPDEST SWAP2 POP PUSH2 0x28F2 DUP3 PUSH2 0x28B1 JUMP JUMPDEST PUSH1 0x20 DUP3 ADD SWAP1 POP SWAP2 SWAP1 POP JUMP JUMPDEST PUSH1 0x0 PUSH1 0x20 DUP3 ADD SWAP1 POP DUP2 DUP2 SUB PUSH1 0x0 DUP4 ADD MSTORE PUSH2 0x2916 DUP2 PUSH2 0x28DA JUMP JUMPDEST SWAP1 POP SWAP2 SWAP1 POP JUMP JUMPDEST PUSH1 0x0 PUSH2 0x2928 DUP3 PUSH2 0x21A0 JUMP JUMPDEST SWAP2 POP PUSH32 0xFFFFFFFFFFFFFFFFFFFFFFFFFFFFFFFFFFFFFFFFFFFFFFFFFFFFFFFFFFFFFFFF DUP3 SUB PUSH2 0x295A JUMPI PUSH2 0x2959 PUSH2 0x2711 JUMP JUMPDEST JUMPDEST PUSH1 0x1 DUP3 ADD SWAP1 POP SWAP2 SWAP1 POP JUMP JUMPDEST PUSH1 0x0 PUSH1 0x40 DUP3 ADD SWAP1 POP PUSH2 0x297A PUSH1 0x0 DUP4 ADD DUP6 PUSH2 0x21AA JUMP JUMPDEST PUSH2 0x2987 PUSH1 0x20 DUP4 ADD DUP5 PUSH2 0x21AA JUMP JUMPDEST SWAP4 SWAP3 POP POP POP JUMP JUMPDEST PUSH32 0x4D41585F51554552494553206D7573742062652067726561746572207468616E PUSH1 0x0 DUP3 ADD MSTORE PUSH32 0x2030000000000000000000000000000000000000000000000000000000000000 PUSH1 0x20 DUP3 ADD MSTORE POP JUMP JUMPDEST PUSH1 0x0 PUSH2 0x29EA PUSH1 0x22 DUP4 PUSH2 0x2028 JUMP JUMPDEST SWAP2 POP PUSH2 0x29F5 DUP3 PUSH2 0x298E JUMP JUMPDEST PUSH1 0x40 DUP3 ADD SWAP1 POP SWAP2 SWAP1 POP JUMP JUMPDEST PUSH1 0x0 PUSH1 0x20 DUP3 ADD SWAP1 POP DUP2 DUP2 SUB PUSH1 0x0 DUP4 ADD MSTORE PUSH2 0x2A19 DUP2 PUSH2 0x29DD JUMP JUMPDEST SWAP1 POP SWAP2 SWAP1 POP JUMP JUMPDEST PUSH32 0x4D41585F51554552595F464545206D7573742062652067726561746572207468 PUSH1 0x0 DUP3 ADD MSTORE PUSH32 0x616E203000000000000000000000000000000000000000000000000000000000 PUSH1 0x20 DUP3 ADD MSTORE POP JUMP JUMPDEST PUSH1 0x0 PUSH2 0x2A7C PUSH1 0x24 DUP4 PUSH2 0x2028 JUMP JUMPDEST SWAP2 POP PUSH2 0x2A87 DUP3 PUSH2 0x2A20 JUMP JUMPDEST PUSH1 0x40 DUP3 ADD SWAP1 POP SWAP2 SWAP1 POP JUMP JUMPDEST PUSH1 0x0 PUSH1 0x20 DUP3 ADD SWAP1 POP DUP2 DUP2 SUB PUSH1 0x0 DUP4 ADD MSTORE PUSH2 0x2AAB DUP2 PUSH2 0x2A6F JUMP JUMPDEST SWAP1 POP SWAP2 SWAP1 POP JUMP JUMPDEST PUSH1 0x0 PUSH2 0x2ABD DUP3 PUSH2 0x21A0 JUMP JUMPDEST SWAP2 POP PUSH2 0x2AC8 DUP4 PUSH2 0x21A0 JUMP JUMPDEST SWAP3 POP DUP3 DUP3 ADD SWAP1 POP DUP1 DUP3 GT ISZERO PUSH2 0x2AE0 JUMPI PUSH2 0x2ADF PUSH2 0x2711 JUMP JUMPDEST JUMPDEST SWAP3 SWAP2 POP POP JUMP JUMPDEST PUSH32 0x4F776E6572207472616E73666572206661696C65640000000000000000000000 PUSH1 0x0 DUP3 ADD MSTORE POP JUMP JUMPDEST PUSH1 0x0 PUSH2 0x2B1C PUSH1 0x15 DUP4 PUSH2 0x2028 JUMP JUMPDEST SWAP2 POP PUSH2 0x2B27 DUP3 PUSH2 0x2AE6 JUMP JUMPDEST PUSH1 0x20 DUP3 ADD SWAP1 POP SWAP2 SWAP1 POP JUMP JUMPDEST PUSH1 0x0 PUSH1 0x20 DUP3 ADD SWAP1 POP DUP2 DUP2 SUB PUSH1 0x0 DUP4 ADD MSTORE PUSH2 0x2B4B DUP2 PUSH2 0x2B0F JUMP JUMPDEST SWAP1 POP SWAP2 SWAP1 POP JUMP JUMPDEST PUSH1 0x0 DUP2 MLOAD SWAP1 POP SWAP2 SWAP1 POP JUMP JUMPDEST PUSH1 0x0 JUMPDEST DUP4 DUP2 LT ISZERO PUSH2 0x2B7B JUMPI DUP1 DUP3 ADD MLOAD DUP2 DUP5 ADD MSTORE PUSH1 0x20 DUP2 ADD SWAP1 POP PUSH2 0x2B60 JUMP JUMPDEST PUSH1 0x0 DUP5 DUP5 ADD MSTORE POP POP POP POP JUMP JUMPDEST PUSH1 0x0 PUSH2 0x2B92 DUP3 PUSH2 0x2B52 JUMP JUMPDEST PUSH2 0x2B9C DUP2 DUP6 PUSH2 0x2028 JUMP JUMPDEST SWAP4 POP PUSH2 0x2BAC DUP2 DUP6 PUSH1 0x20 DUP7 ADD PUSH2 0x2B5D JUMP JUMPDEST PUSH2 0x2BB5 DUP2 PUSH2 0x2341 JUMP JUMPDEST DUP5 ADD SWAP2 POP POP SWAP3 SWAP2 POP POP JUMP JUMPDEST PUSH1 0x0 PUSH1 0x80 DUP3 ADD SWAP1 POP PUSH2 0x2BD5 PUSH1 0x0 DUP4 ADD DUP8 PUSH2 0x21AA JUMP JUMPDEST DUP2 DUP2 SUB PUSH1 0x20 DUP4 ADD MSTORE PUSH2 0x2BE7 DUP2 DUP7 PUSH2 0x2B87 JUMP JUMPDEST SWAP1 POP PUSH2 0x2BF6 PUSH1 0x40 DUP4 ADD DUP6 PUSH2 0x21AA JUMP JUMPDEST PUSH2 0x2C03 PUSH1 0x60 DUP4 ADD DUP5 PUSH2 0x21AA JUMP JUMPDEST SWAP6 SWAP5 POP POP POP POP POP JUMP JUMPDEST PUSH32 0x49444C455F54494D455F4C494D4954206D757374206265206772656174657220 PUSH1 0x0 DUP3 ADD MSTORE PUSH32 0x7468616E20300000000000000000000000000000000000000000000000000000 PUSH1 0x20 DUP3 ADD MSTORE POP JUMP JUMPDEST PUSH1 0x0 PUSH2 0x2C68 PUSH1 0x26 DUP4 PUSH2 0x2028 JUMP JUMPDEST SWAP2 POP PUSH2 0x2C73 DUP3 PUSH2 0x2C0C JUMP JUMPDEST PUSH1 0x40 DUP3 ADD SWAP1 POP SWAP2 SWAP1 POP JUMP JUMPDEST PUSH1 0x0 PUSH1 0x20 DUP3 ADD SWAP1 POP DUP2 DUP2 SUB PUSH1 0x0 DUP4 ADD MSTORE PUSH2 0x2C97 DUP2 PUSH2 0x2C5B JUMP JUMPDEST SWAP1 POP SWAP2 SWAP1 POP JUMP INVALID LOG2 PUSH5 0x6970667358 0x22 SLT KECCAK256 0xAB SGT PUSH32 0x761305EE90891AD5399EF46D1EDA2467C9DBD454422D9707347DCE020B64736F PUSH13 0x63430008120033000000000000 "},"methodIdentifiers":{"IDLE_TIME_LIMIT()":"7fe6938f","MAX_QUERIES()":"9b3e156a","MAX_QUERY_FEE()":"ce4064e7","approveTransfer(address)":"4355b9d2","calculateNextQueryFee()":"9ae5bb0e","calculateQueryFee()":"b3dbf4b4","endGameDueToExhaustion()":"4c9fb2bf","gameEnded()":"2f6fe396","getAllPlayers()":"efa1c482","globalQueryCount()":"4edbdc8a","lastInteraction()":"8f71a265","lastPlayer()":"e3450e13","owner()":"8da5cb5b","playerQueryCount(address)":"4d7c49e9","playerTotalFee(address)":"78d4b4df","players(uint256)":"f71d96cb","prizePool()":"719ce73e","resetGame()":"bb472219","setIdleTimeLimit(uint256)":"fc442e3a","setMaxQueries(uint256)":"768de1db","setMaxQueryFee(uint256)":"886e2034","submitQuery(string,string)":"f6711fbe","totalUniquePlayers()":"8a609155","withdraw()":"3ccfd60b"}}}}}