{
  "_format": "hh-sol-artifact-1",
  "contractName": "LittlefingerGame",
  "sourceName": "contracts/LittlefingerGame.sol",
  "abi": [
    {
      "inputs": [],
      "stateMutability": "payable",
      "type": "constructor"
    },
    {
      "inputs": [],
      "name": "GameExhausted",
      "type": "error"
    },
    {
      "inputs": [
        {
          "internalType": "uint256",
          "name": "requiredFee",
          "type": "uint256"
        },
        {
          "internalType": "uint256",
          "name": "sentFee",
          "type": "uint256"
        }
      ],
      "name": "InsufficientQueryFee",
      "type": "error"
    },
    {
      "inputs": [],
      "name": "InvalidQuery",
      "type": "error"
    },
    {
      "inputs": [],
      "name": "InvalidRecipient",
      "type": "error"
    },
    {
      "inputs": [
        {
          "internalType": "uint256",
          "name": "maxQueries",
          "type": "uint256"
        }
      ],
      "name": "MaxQueriesReached",
      "type": "error"
    },
    {
      "inputs": [],
      "name": "Unauthorized",
      "type": "error"
    },
    {
      "anonymous": false,
      "inputs": [
        {
          "indexed": false,
          "internalType": "uint256",
          "name": "nextFee",
          "type": "uint256"
        },
        {
          "indexed": false,
          "internalType": "uint256",
          "name": "currentCount",
          "type": "uint256"
        }
      ],
      "name": "NextQueryFee",
      "type": "event"
    },
    {
      "anonymous": false,
      "inputs": [
        {
          "indexed": false,
          "internalType": "uint256",
          "name": "remainingPrizePool",
          "type": "uint256"
        }
      ],
      "name": "PrizePoolBalanceAfterGameExhaustion",
      "type": "event"
    },
    {
      "anonymous": false,
      "inputs": [
        {
          "indexed": false,
          "internalType": "uint256",
          "name": "totalPrizePoolBeforeDistribution",
          "type": "uint256"
        }
      ],
      "name": "PrizeToBeDistributedDueToGameExhaustion",
      "type": "event"
    },
    {
      "anonymous": false,
      "inputs": [
        {
          "indexed": true,
          "internalType": "address",
          "name": "winner",
          "type": "address"
        },
        {
          "indexed": false,
          "internalType": "uint256",
          "name": "amount",
          "type": "uint256"
        }
      ],
      "name": "PrizeTransferApproved",
      "type": "event"
    },
    {
      "anonymous": false,
      "inputs": [
        {
          "indexed": true,
          "internalType": "address",
          "name": "player",
          "type": "address"
        }
      ],
      "name": "PrizeTransferRejected",
      "type": "event"
    },
    {
      "anonymous": false,
      "inputs": [
        {
          "indexed": true,
          "internalType": "address",
          "name": "player",
          "type": "address"
        },
        {
          "indexed": false,
          "internalType": "uint256",
          "name": "feeAmount",
          "type": "uint256"
        },
        {
          "indexed": false,
          "internalType": "string",
          "name": "queryID",
          "type": "string"
        }
      ],
      "name": "QueryFeePaid",
      "type": "event"
    },
    {
      "anonymous": false,
      "inputs": [
        {
          "indexed": false,
          "internalType": "uint256",
          "name": "timestamp",
          "type": "uint256"
        }
      ],
      "name": "TimerStarted",
      "type": "event"
    },
    {
      "anonymous": false,
      "inputs": [
        {
          "indexed": true,
          "internalType": "address",
          "name": "owner",
          "type": "address"
        },
        {
          "indexed": false,
          "internalType": "uint256",
          "name": "amount",
          "type": "uint256"
        }
      ],
      "name": "Withdrawal",
      "type": "event"
    },
    {
      "stateMutability": "payable",
      "type": "fallback"
    },
    {
      "inputs": [],
      "name": "IDLE_TIME_LIMIT",
      "outputs": [
        {
          "internalType": "uint256",
          "name": "",
          "type": "uint256"
        }
      ],
      "stateMutability": "view",
      "type": "function"
    },
    {
      "inputs": [],
      "name": "MAX_QUERIES",
      "outputs": [
        {
          "internalType": "uint256",
          "name": "",
          "type": "uint256"
        }
      ],
      "stateMutability": "view",
      "type": "function"
    },
    {
      "inputs": [],
      "name": "MAX_QUERY_FEE",
      "outputs": [
        {
          "internalType": "uint256",
          "name": "",
          "type": "uint256"
        }
      ],
      "stateMutability": "view",
      "type": "function"
    },
    {
      "inputs": [
        {
          "internalType": "address",
          "name": "recipient",
          "type": "address"
        }
      ],
      "name": "approveTransfer",
      "outputs": [],
      "stateMutability": "nonpayable",
      "type": "function"
    },
    {
      "inputs": [],
      "name": "calculateNextQueryFee",
      "outputs": [
        {
          "internalType": "uint256",
          "name": "",
          "type": "uint256"
        }
      ],
      "stateMutability": "view",
      "type": "function"
    },
    {
      "inputs": [],
      "name": "calculateQueryFee",
      "outputs": [
        {
          "internalType": "uint256",
          "name": "",
          "type": "uint256"
        }
      ],
      "stateMutability": "view",
      "type": "function"
    },
    {
      "inputs": [],
      "name": "endGameDueToExhaustion",
      "outputs": [],
      "stateMutability": "nonpayable",
      "type": "function"
    },
    {
      "inputs": [],
      "name": "getAllPlayers",
      "outputs": [
        {
          "internalType": "address[]",
          "name": "",
          "type": "address[]"
        }
      ],
      "stateMutability": "view",
      "type": "function"
    },
    {
      "inputs": [],
      "name": "globalQueryCount",
      "outputs": [
        {
          "internalType": "uint256",
          "name": "",
          "type": "uint256"
        }
      ],
      "stateMutability": "view",
      "type": "function"
    },
    {
      "inputs": [],
      "name": "lastInteraction",
      "outputs": [
        {
          "internalType": "uint256",
          "name": "",
          "type": "uint256"
        }
      ],
      "stateMutability": "view",
      "type": "function"
    },
    {
      "inputs": [],
      "name": "lastPlayer",
      "outputs": [
        {
          "internalType": "address",
          "name": "",
          "type": "address"
        }
      ],
      "stateMutability": "view",
      "type": "function"
    },
    {
      "inputs": [],
      "name": "owner",
      "outputs": [
        {
          "internalType": "address",
          "name": "",
          "type": "address"
        }
      ],
      "stateMutability": "view",
      "type": "function"
    },
    {
      "inputs": [
        {
          "internalType": "address",
          "name": "",
          "type": "address"
        }
      ],
      "name": "playerQueryCount",
      "outputs": [
        {
          "internalType": "uint256",
          "name": "",
          "type": "uint256"
        }
      ],
      "stateMutability": "view",
      "type": "function"
    },
    {
      "inputs": [
        {
          "internalType": "address",
          "name": "",
          "type": "address"
        }
      ],
      "name": "playerTotalFee",
      "outputs": [
        {
          "internalType": "uint256",
          "name": "",
          "type": "uint256"
        }
      ],
      "stateMutability": "view",
      "type": "function"
    },
    {
      "inputs": [
        {
          "internalType": "uint256",
          "name": "",
          "type": "uint256"
        }
      ],
      "name": "players",
      "outputs": [
        {
          "internalType": "address",
          "name": "",
          "type": "address"
        }
      ],
      "stateMutability": "view",
      "type": "function"
    },
    {
      "inputs": [],
      "name": "prizePool",
      "outputs": [
        {
          "internalType": "uint256",
          "name": "",
          "type": "uint256"
        }
      ],
      "stateMutability": "view",
      "type": "function"
    },
    {
      "inputs": [],
      "name": "rejectTransfer",
      "outputs": [],
      "stateMutability": "nonpayable",
      "type": "function"
    },
    {
      "inputs": [],
      "name": "restartTimer",
      "outputs": [],
      "stateMutability": "nonpayable",
      "type": "function"
    },
    {
      "inputs": [
        {
          "internalType": "string",
          "name": "query",
          "type": "string"
        },
        {
          "internalType": "string",
          "name": "queryID",
          "type": "string"
        }
      ],
      "name": "submitQuery",
      "outputs": [],
      "stateMutability": "payable",
      "type": "function"
    },
    {
      "inputs": [],
      "name": "totalQueriesCount",
      "outputs": [
        {
          "internalType": "uint256",
          "name": "",
          "type": "uint256"
        }
      ],
      "stateMutability": "view",
      "type": "function"
    },
    {
      "inputs": [],
      "name": "withdraw",
      "outputs": [],
      "stateMutability": "nonpayable",
      "type": "function"
    },
    {
      "stateMutability": "payable",
      "type": "receive"
    }
  ],
  "bytecode": "0x60806040526000600255336000806101000a81548173ffffffffffffffffffffffffffffffffffffffff021916908373ffffffffffffffffffffffffffffffffffffffff160217905550600034116200008f576040517f08c379a00000000000000000000000000000000000000000000000000000000081526004016200008690620000fd565b60405180910390fd5b426006819055506200011f565b600082825260208201905092915050565b7f496e697469616c2066756e64696e672072657175697265640000000000000000600082015250565b6000620000e56018836200009c565b9150620000f282620000ad565b602082019050919050565b600060208201905081810360008301526200011881620000d6565b9050919050565b612688806200012f6000396000f3fe60806040526004361061012e5760003560e01c80638f71a265116100ab578063ce4064e71161006f578063ce4064e7146103c7578063e3450e13146103f2578063efa1c4821461041d578063f1f564b214610448578063f6711fbe14610473578063f71d96cb1461048f57610135565b80638f71a265146103045780639ae5bb0e1461032f5780639b3e156a1461035a578063b119966b14610385578063b3dbf4b41461039c57610135565b80634edbdc8a116100f25780634edbdc8a1461021b578063719ce73e1461024657806378d4b4df146102715780637fe6938f146102ae5780638da5cb5b146102d957610135565b80630d71f24d146101705780633ccfd60b146101875780634355b9d21461019e5780634c9fb2bf146101c75780634d7c49e9146101de57610135565b3661013557005b6040517f08c379a000000000000000000000000000000000000000000000000000000000815260040161016790611ae9565b60405180910390fd5b34801561017c57600080fd5b506101856104cc565b005b34801561019357600080fd5b5061019c610693565b005b3480156101aa57600080fd5b506101c560048036038101906101c09190611b7b565b6108a8565b005b3480156101d357600080fd5b506101dc610bba565b005b3480156101ea57600080fd5b5061020560048036038101906102009190611b7b565b61101c565b6040516102129190611bc1565b60405180910390f35b34801561022757600080fd5b50610230611034565b60405161023d9190611bc1565b60405180910390f35b34801561025257600080fd5b5061025b61103a565b6040516102689190611bc1565b60405180910390f35b34801561027d57600080fd5b5061029860048036038101906102939190611b7b565b611042565b6040516102a59190611bc1565b60405180910390f35b3480156102ba57600080fd5b506102c361105a565b6040516102d09190611bc1565b60405180910390f35b3480156102e557600080fd5b506102ee611061565b6040516102fb9190611beb565b60405180910390f35b34801561031057600080fd5b50610319611085565b6040516103269190611bc1565b60405180910390f35b34801561033b57600080fd5b5061034461108b565b6040516103519190611bc1565b60405180910390f35b34801561036657600080fd5b5061036f6111a3565b60405161037c9190611bc1565b60405180910390f35b34801561039157600080fd5b5061039a6111a9565b005b3480156103a857600080fd5b506103b1611279565b6040516103be9190611bc1565b60405180910390f35b3480156103d357600080fd5b506103dc611386565b6040516103e99190611bc1565b60405180910390f35b3480156103fe57600080fd5b50610407611392565b6040516104149190611beb565b60405180910390f35b34801561042957600080fd5b506104326113b8565b60405161043f9190611cc4565b60405180910390f35b34801561045457600080fd5b5061045d611446565b60405161046a9190611bc1565b60405180910390f35b61048d60048036038101906104889190611e2c565b611503565b005b34801561049b57600080fd5b506104b660048036038101906104b19190611ed0565b6119ed565b6040516104c39190611beb565b60405180910390f35b60008054906101000a900473ffffffffffffffffffffffffffffffffffffffff1673ffffffffffffffffffffffffffffffffffffffff163373ffffffffffffffffffffffffffffffffffffffff161461055a576040517f08c379a000000000000000000000000000000000000000000000000000000000815260040161055190611f49565b60405180910390fd5b62093a8060065461056b9190611f98565b4211156105a4576040517fb76ca43d00000000000000000000000000000000000000000000000000000000815260040160405180910390fd5b600073ffffffffffffffffffffffffffffffffffffffff16600160009054906101000a900473ffffffffffffffffffffffffffffffffffffffff1673ffffffffffffffffffffffffffffffffffffffff160361062c576040517f9c8d2cd200000000000000000000000000000000000000000000000000000000815260040160405180910390fd5b600160009054906101000a900473ffffffffffffffffffffffffffffffffffffffff1673ffffffffffffffffffffffffffffffffffffffff167fd2bd31d33920f62aeaa1dce5d94c24bb867b1d99c96aa62d2c58362213d7617f60405160405180910390a2565b60008054906101000a900473ffffffffffffffffffffffffffffffffffffffff1673ffffffffffffffffffffffffffffffffffffffff163373ffffffffffffffffffffffffffffffffffffffff1614610721576040517f08c379a000000000000000000000000000000000000000000000000000000000815260040161071890611f49565b60405180910390fd5b600047905060008111610769576040517f08c379a00000000000000000000000000000000000000000000000000000000081526004016107609061203e565b60405180910390fd5b60008060009054906101000a900473ffffffffffffffffffffffffffffffffffffffff1673ffffffffffffffffffffffffffffffffffffffff16826040516107b09061208f565b60006040518083038185875af1925050503d80600081146107ed576040519150601f19603f3d011682016040523d82523d6000602084013e6107f2565b606091505b5050905080610836576040517f08c379a000000000000000000000000000000000000000000000000000000000815260040161082d906120f0565b60405180910390fd5b60008054906101000a900473ffffffffffffffffffffffffffffffffffffffff1673ffffffffffffffffffffffffffffffffffffffff167f7fcf532c15f0a6db0bd6d0e038bea71d30d808c7d98cb3bf7268a95bf5081b658360405161089c9190611bc1565b60405180910390a25050565b60008054906101000a900473ffffffffffffffffffffffffffffffffffffffff1673ffffffffffffffffffffffffffffffffffffffff163373ffffffffffffffffffffffffffffffffffffffff1614610936576040517f08c379a000000000000000000000000000000000000000000000000000000000815260040161092d90611f49565b60405180910390fd5b62093a806006546109479190611f98565b421115610980576040517fb76ca43d00000000000000000000000000000000000000000000000000000000815260040160405180910390fd5b600061098a61103a565b036109c1576040517fb76ca43d00000000000000000000000000000000000000000000000000000000815260040160405180910390fd5b600073ffffffffffffffffffffffffffffffffffffffff16600160009054906101000a900473ffffffffffffffffffffffffffffffffffffffff1673ffffffffffffffffffffffffffffffffffffffff1603610a49576040517f9c8d2cd200000000000000000000000000000000000000000000000000000000815260040160405180910390fd5b600073ffffffffffffffffffffffffffffffffffffffff168173ffffffffffffffffffffffffffffffffffffffff1603610aaf576040517f9c8d2cd200000000000000000000000000000000000000000000000000000000815260040160405180910390fd5b6000610ab961103a565b905060008273ffffffffffffffffffffffffffffffffffffffff1682604051610ae19061208f565b60006040518083038185875af1925050503d8060008114610b1e576040519150601f19603f3d011682016040523d82523d6000602084013e610b23565b606091505b5050905080610b67576040517f08c379a0000000000000000000000000000000000000000000000000000000008152600401610b5e9061215c565b60405180910390fd5b8273ffffffffffffffffffffffffffffffffffffffff167f6fa1ae3f51a194d857cbe6cb9459898c29b220c48d53dc81d2d79adea5702b5683604051610bad9190611bc1565b60405180910390a2505050565b60008054906101000a900473ffffffffffffffffffffffffffffffffffffffff1673ffffffffffffffffffffffffffffffffffffffff163373ffffffffffffffffffffffffffffffffffffffff1614610c48576040517f08c379a0000000000000000000000000000000000000000000000000000000008152600401610c3f90611f49565b60405180910390fd5b6000610c5261103a565b03610c89576040517fb76ca43d00000000000000000000000000000000000000000000000000000000815260040160405180910390fd5b600073ffffffffffffffffffffffffffffffffffffffff16600160009054906101000a900473ffffffffffffffffffffffffffffffffffffffff1673ffffffffffffffffffffffffffffffffffffffff1603610d11576040517f9c8d2cd200000000000000000000000000000000000000000000000000000000815260040160405180910390fd5b6000610d1b61103a565b90507f10a13b04105cff58783c509a8334574bae684df56c99263899ec5d1d16c2f1e581604051610d4c9190611bc1565b60405180910390a160006064600a83610d65919061217c565b610d6f91906121ed565b90506000600160009054906101000a900473ffffffffffffffffffffffffffffffffffffffff1673ffffffffffffffffffffffffffffffffffffffff1682604051610db99061208f565b60006040518083038185875af1925050503d8060008114610df6576040519150601f19603f3d011682016040523d82523d6000602084013e610dfb565b606091505b5050905080610e3f576040517f08c379a0000000000000000000000000000000000000000000000000000000008152600401610e369061226a565b60405180910390fd5b60008284610e4d919061228a565b90506000610e59611446565b90506000811115610fde5760005b600380549050811015610fdc57600060038281548110610e8a57610e896122be565b5b9060005260206000200160009054906101000a900473ffffffffffffffffffffffffffffffffffffffff169050600083600460008473ffffffffffffffffffffffffffffffffffffffff1673ffffffffffffffffffffffffffffffffffffffff1681526020019081526020016000205486610f05919061217c565b610f0f91906121ed565b90506000811115610fc7578173ffffffffffffffffffffffffffffffffffffffff1681604051610f3e9061208f565b60006040518083038185875af1925050503d8060008114610f7b576040519150601f19603f3d011682016040523d82523d6000602084013e610f80565b606091505b50508096505085610fc6576040517f08c379a0000000000000000000000000000000000000000000000000000000008152600401610fbd90612339565b60405180910390fd5b5b50508080610fd490612359565b915050610e67565b505b7f97c010080fa227bbaaeecc7a7c98e240f01c054b494446570f9b0912307dbd394760405161100d9190611bc1565b60405180910390a15050505050565b60046020528060005260406000206000915090505481565b60025481565b600047905090565b60056020528060005260406000206000915090505481565b62093a8081565b60008054906101000a900473ffffffffffffffffffffffffffffffffffffffff1681565b60065481565b600080600160025461109d9190611f98565b9050601e8110156110d5578066038d7ea4c680006110bb919061217c565b6611c37937e080006110cd9190611f98565b9150506111a0565b6000667c58508723800090506000611101607d83670de0b6b3a76400006110fc91906121ed565b611a2c565b601e61110d9190611f98565b905080831061112957670de0b6b3a764000093505050506111a0565b6000601e84611138919061228a565b606461114491906124d4565b601e85611151919061228a565b607d61115d91906124d4565b61116791906121ed565b905060008184611177919061217c565b9050670de0b6b3a7640000811161118e5780611198565b670de0b6b3a76400005b955050505050505b90565b6101f481565b60008054906101000a900473ffffffffffffffffffffffffffffffffffffffff1673ffffffffffffffffffffffffffffffffffffffff163373ffffffffffffffffffffffffffffffffffffffff1614611237576040517f08c379a000000000000000000000000000000000000000000000000000000000815260040161122e90611f49565b60405180910390fd5b426006819055507f90e4e1076e66d07aad698457e7a86b4425881ab1586d63c00ba753f88757e9a860065460405161126f9190611bc1565b60405180910390a1565b6000601e60025410156112b45760025466038d7ea4c6800061129b919061217c565b6611c37937e080006112ad9190611f98565b9050611383565b6000667c585087238000905060006112e0607d83670de0b6b3a76400006112db91906121ed565b611a2c565b601e6112ec9190611f98565b9050806002541061130957670de0b6b3a764000092505050611383565b6000601e60025461131a919061228a565b606461132691906124d4565b601e600254611335919061228a565b607d61134191906124d4565b61134b91906121ed565b90506000818461135b919061217c565b9050670de0b6b3a76400008111611372578061137c565b670de0b6b3a76400005b9450505050505b90565b670de0b6b3a764000081565b600160009054906101000a900473ffffffffffffffffffffffffffffffffffffffff1681565b6060600380548060200260200160405190810160405280929190818152602001828054801561143c57602002820191906000526020600020905b8160009054906101000a900473ffffffffffffffffffffffffffffffffffffffff1673ffffffffffffffffffffffffffffffffffffffff16815260200190600101908083116113f2575b5050505050905090565b6000806000905060005b6003805490508110156114fb576004600060038381548110611475576114746122be565b5b9060005260206000200160009054906101000a900473ffffffffffffffffffffffffffffffffffffffff1673ffffffffffffffffffffffffffffffffffffffff1673ffffffffffffffffffffffffffffffffffffffff16815260200190815260200160002054826114e69190611f98565b915080806114f390612359565b915050611450565b508091505090565b62093a806006546115149190611f98565b42111561154d576040517fb76ca43d00000000000000000000000000000000000000000000000000000000815260040160405180910390fd5b6000825103611588576040517f19e4cb1000000000000000000000000000000000000000000000000000000000815260040160405180910390fd5b6000611592611279565b9050803410156115db5780346040517f2f5983220000000000000000000000000000000000000000000000000000000081526004016115d292919061251f565b60405180910390fd5b60006115e561103a565b0361161c576040517fb76ca43d00000000000000000000000000000000000000000000000000000000815260040160405180910390fd5b6101f4600460003373ffffffffffffffffffffffffffffffffffffffff1673ffffffffffffffffffffffffffffffffffffffff16815260200190815260200160002054106116a3576101f46040517fd688341100000000000000000000000000000000000000000000000000000000815260040161169a9190611bc1565b60405180910390fd5b600060646050346116b4919061217c565b6116be91906121ed565b9050600081346116ce919061228a565b905060008060009054906101000a900473ffffffffffffffffffffffffffffffffffffffff1673ffffffffffffffffffffffffffffffffffffffff16826040516117179061208f565b60006040518083038185875af1925050503d8060008114611754576040519150601f19603f3d011682016040523d82523d6000602084013e611759565b606091505b505090508061179d576040517f08c379a000000000000000000000000000000000000000000000000000000000815260040161179490612594565b60405180910390fd5b6000600460003373ffffffffffffffffffffffffffffffffffffffff1673ffffffffffffffffffffffffffffffffffffffff1681526020019081526020016000205403611848576003339080600181540180825580915050600190039060005260206000200160009091909190916101000a81548173ffffffffffffffffffffffffffffffffffffffff021916908373ffffffffffffffffffffffffffffffffffffffff1602179055505b600460003373ffffffffffffffffffffffffffffffffffffffff1673ffffffffffffffffffffffffffffffffffffffff168152602001908152602001600020600081548092919061189890612359565b919050555083600560003373ffffffffffffffffffffffffffffffffffffffff1673ffffffffffffffffffffffffffffffffffffffff16815260200190815260200160002060008282546118ec9190611f98565b9250508190555033600160006101000a81548173ffffffffffffffffffffffffffffffffffffffff021916908373ffffffffffffffffffffffffffffffffffffffff1602179055506002600081548092919061194790612359565b9190505550426006819055503373ffffffffffffffffffffffffffffffffffffffff167f77beb23b14532076088af942cb1db6b625613562efc887fe4c37a60cfd74cd72858760405161199b929190612622565b60405180910390a27f1d10a40d09ae13f42d8a863f4881bb8c7fc588a0a0d8ad00dd7c4ef77d23ce426119cc61108b565b6002546040516119dd92919061251f565b60405180910390a1505050505050565b600381815481106119fd57600080fd5b906000526020600020016000915054906101000a900473ffffffffffffffffffffffffffffffffffffffff1681565b600080600090505b838310611a5c578383611a4791906121ed565b92508080611a5490612359565b915050611a34565b8091505092915050565b600082825260208201905092915050565b7f46616c6c6261636b2066756e6374696f6e206973206e6f7420696d706c656d6560008201527f6e74656400000000000000000000000000000000000000000000000000000000602082015250565b6000611ad3602483611a66565b9150611ade82611a77565b604082019050919050565b60006020820190508181036000830152611b0281611ac6565b9050919050565b6000604051905090565b600080fd5b600080fd5b600073ffffffffffffffffffffffffffffffffffffffff82169050919050565b6000611b4882611b1d565b9050919050565b611b5881611b3d565b8114611b6357600080fd5b50565b600081359050611b7581611b4f565b92915050565b600060208284031215611b9157611b90611b13565b5b6000611b9f84828501611b66565b91505092915050565b6000819050919050565b611bbb81611ba8565b82525050565b6000602082019050611bd66000830184611bb2565b92915050565b611be581611b3d565b82525050565b6000602082019050611c006000830184611bdc565b92915050565b600081519050919050565b600082825260208201905092915050565b6000819050602082019050919050565b611c3b81611b3d565b82525050565b6000611c4d8383611c32565b60208301905092915050565b6000602082019050919050565b6000611c7182611c06565b611c7b8185611c11565b9350611c8683611c22565b8060005b83811015611cb7578151611c9e8882611c41565b9750611ca983611c59565b925050600181019050611c8a565b5085935050505092915050565b60006020820190508181036000830152611cde8184611c66565b905092915050565b600080fd5b600080fd5b6000601f19601f8301169050919050565b7f4e487b7100000000000000000000000000000000000000000000000000000000600052604160045260246000fd5b611d3982611cf0565b810181811067ffffffffffffffff82111715611d5857611d57611d01565b5b80604052505050565b6000611d6b611b09565b9050611d778282611d30565b919050565b600067ffffffffffffffff821115611d9757611d96611d01565b5b611da082611cf0565b9050602081019050919050565b82818337600083830152505050565b6000611dcf611dca84611d7c565b611d61565b905082815260208101848484011115611deb57611dea611ceb565b5b611df6848285611dad565b509392505050565b600082601f830112611e1357611e12611ce6565b5b8135611e23848260208601611dbc565b91505092915050565b60008060408385031215611e4357611e42611b13565b5b600083013567ffffffffffffffff811115611e6157611e60611b18565b5b611e6d85828601611dfe565b925050602083013567ffffffffffffffff811115611e8e57611e8d611b18565b5b611e9a85828601611dfe565b9150509250929050565b611ead81611ba8565b8114611eb857600080fd5b50565b600081359050611eca81611ea4565b92915050565b600060208284031215611ee657611ee5611b13565b5b6000611ef484828501611ebb565b91505092915050565b7f556e617574686f72697a65640000000000000000000000000000000000000000600082015250565b6000611f33600c83611a66565b9150611f3e82611efd565b602082019050919050565b60006020820190508181036000830152611f6281611f26565b9050919050565b7f4e487b7100000000000000000000000000000000000000000000000000000000600052601160045260246000fd5b6000611fa382611ba8565b9150611fae83611ba8565b9250828201905080821115611fc657611fc5611f69565b5b92915050565b7f4e6f2066756e647320617661696c61626c6520666f722077697468647261776160008201527f6c00000000000000000000000000000000000000000000000000000000000000602082015250565b6000612028602183611a66565b915061203382611fcc565b604082019050919050565b600060208201905081810360008301526120578161201b565b9050919050565b600081905092915050565b50565b600061207960008361205e565b915061208482612069565b600082019050919050565b600061209a8261206c565b9150819050919050565b7f5769746864726177616c206661696c6564000000000000000000000000000000600082015250565b60006120da601183611a66565b91506120e5826120a4565b602082019050919050565b60006020820190508181036000830152612109816120cd565b9050919050565b7f5472616e7366657220746f20726563697069656e74206661696c656400000000600082015250565b6000612146601c83611a66565b915061215182612110565b602082019050919050565b6000602082019050818103600083015261217581612139565b9050919050565b600061218782611ba8565b915061219283611ba8565b92508282026121a081611ba8565b915082820484148315176121b7576121b6611f69565b5b5092915050565b7f4e487b7100000000000000000000000000000000000000000000000000000000600052601260045260246000fd5b60006121f882611ba8565b915061220383611ba8565b925082612213576122126121be565b5b828204905092915050565b7f5472616e7366657220746f206c61737420706c61796572206661696c65640000600082015250565b6000612254601e83611a66565b915061225f8261221e565b602082019050919050565b6000602082019050818103600083015261228381612247565b9050919050565b600061229582611ba8565b91506122a083611ba8565b92508282039050818111156122b8576122b7611f69565b5b92915050565b7f4e487b7100000000000000000000000000000000000000000000000000000000600052603260045260246000fd5b7f506c6179657220726577617264207472616e73666572206661696c6564000000600082015250565b6000612323601d83611a66565b915061232e826122ed565b602082019050919050565b6000602082019050818103600083015261235281612316565b9050919050565b600061236482611ba8565b91507fffffffffffffffffffffffffffffffffffffffffffffffffffffffffffffffff820361239657612395611f69565b5b600182019050919050565b60008160011c9050919050565b6000808291508390505b60018511156123f8578086048111156123d4576123d3611f69565b5b60018516156123e35780820291505b80810290506123f1856123a1565b94506123b8565b94509492505050565b60008261241157600190506124cd565b8161241f57600090506124cd565b8160018114612435576002811461243f5761246e565b60019150506124cd565b60ff84111561245157612450611f69565b5b8360020a91508482111561246857612467611f69565b5b506124cd565b5060208310610133831016604e8410600b84101617156124a35782820a90508381111561249e5761249d611f69565b5b6124cd565b6124b084848460016123ae565b925090508184048111156124c7576124c6611f69565b5b81810290505b9392505050565b60006124df82611ba8565b91506124ea83611ba8565b92506125177fffffffffffffffffffffffffffffffffffffffffffffffffffffffffffffffff8484612401565b905092915050565b60006040820190506125346000830185611bb2565b6125416020830184611bb2565b9392505050565b7f4f776e6572207472616e73666572206661696c65640000000000000000000000600082015250565b600061257e601583611a66565b915061258982612548565b602082019050919050565b600060208201905081810360008301526125ad81612571565b9050919050565b600081519050919050565b60005b838110156125dd5780820151818401526020810190506125c2565b60008484015250505050565b60006125f4826125b4565b6125fe8185611a66565b935061260e8185602086016125bf565b61261781611cf0565b840191505092915050565b60006040820190506126376000830185611bb2565b818103602083015261264981846125e9565b9050939250505056fea26469706673582212200f2b644cc6cd163bfde2e36e07ef003c4700ddf5397198eb9436a184e75e11b764736f6c63430008120033",
  "linkReferences": {},
  "deployedLinkReferences": {}
}