{
  "_format": "hh-sol-artifact-1",
  "contractName": "LittlefingerGame",
  "sourceName": "contracts/LittlefingerGame.sol",
  "abi": [
    {
      "inputs": [],
      "stateMutability": "payable",
      "type": "constructor"
    },
    {
      "inputs": [],
      "name": "GameExhausted",
      "type": "error"
    },
    {
      "inputs": [
        {
          "internalType": "uint256",
          "name": "requiredFee",
          "type": "uint256"
        },
        {
          "internalType": "uint256",
          "name": "sentFee",
          "type": "uint256"
        }
      ],
      "name": "InsufficientQueryFee",
      "type": "error"
    },
    {
      "inputs": [],
      "name": "InvalidQuery",
      "type": "error"
    },
    {
      "inputs": [],
      "name": "InvalidRecipient",
      "type": "error"
    },
    {
      "inputs": [
        {
          "internalType": "uint256",
          "name": "maxQueries",
          "type": "uint256"
        }
      ],
      "name": "MaxQueriesReached",
      "type": "error"
    },
    {
      "inputs": [],
      "name": "Unauthorized",
      "type": "error"
    },
    {
      "anonymous": false,
      "inputs": [
        {
          "indexed": false,
          "internalType": "uint256",
          "name": "prizePool",
          "type": "uint256"
        }
      ],
      "name": "CurrentPrizePool",
      "type": "event"
    },
    {
      "anonymous": false,
      "inputs": [
        {
          "indexed": false,
          "internalType": "uint256",
          "name": "currentTimestamp",
          "type": "uint256"
        },
        {
          "indexed": false,
          "internalType": "uint256",
          "name": "lastInteraction",
          "type": "uint256"
        }
      ],
      "name": "GameEnded",
      "type": "event"
    },
    {
      "anonymous": false,
      "inputs": [
        {
          "indexed": false,
          "internalType": "uint256",
          "name": "lastInteraction",
          "type": "uint256"
        }
      ],
      "name": "GameIdleSince",
      "type": "event"
    },
    {
      "anonymous": false,
      "inputs": [
        {
          "indexed": false,
          "internalType": "uint256",
          "name": "timestamp",
          "type": "uint256"
        }
      ],
      "name": "GameResetByOwner",
      "type": "event"
    },
    {
      "anonymous": false,
      "inputs": [
        {
          "indexed": false,
          "internalType": "uint256",
          "name": "timestamp",
          "type": "uint256"
        }
      ],
      "name": "GameStarted",
      "type": "event"
    },
    {
      "anonymous": false,
      "inputs": [
        {
          "indexed": false,
          "internalType": "uint256",
          "name": "newIdleTimeLimit",
          "type": "uint256"
        }
      ],
      "name": "IdleTimeLimitUpdated",
      "type": "event"
    },
    {
      "anonymous": false,
      "inputs": [
        {
          "indexed": true,
          "internalType": "address",
          "name": "player",
          "type": "address"
        },
        {
          "indexed": false,
          "internalType": "uint256",
          "name": "amount",
          "type": "uint256"
        }
      ],
      "name": "LastPlayerRewardAfterGameExhaustion",
      "type": "event"
    },
    {
      "anonymous": false,
      "inputs": [
        {
          "indexed": false,
          "internalType": "uint256",
          "name": "newMaxQueries",
          "type": "uint256"
        }
      ],
      "name": "MaxQueriesUpdated",
      "type": "event"
    },
    {
      "anonymous": false,
      "inputs": [
        {
          "indexed": false,
          "internalType": "uint256",
          "name": "newMaxQueryFee",
          "type": "uint256"
        }
      ],
      "name": "MaxQueryFeeUpdated",
      "type": "event"
    },
    {
      "anonymous": false,
      "inputs": [
        {
          "indexed": false,
          "internalType": "uint256",
          "name": "nextFee",
          "type": "uint256"
        },
        {
          "indexed": false,
          "internalType": "uint256",
          "name": "currentCount",
          "type": "uint256"
        }
      ],
      "name": "NextQueryFee",
      "type": "event"
    },
    {
      "anonymous": false,
      "inputs": [
        {
          "indexed": true,
          "internalType": "address",
          "name": "winner",
          "type": "address"
        },
        {
          "indexed": false,
          "internalType": "uint256",
          "name": "amount",
          "type": "uint256"
        }
      ],
      "name": "PrizeTransferApproved",
      "type": "event"
    },
    {
      "anonymous": false,
      "inputs": [
        {
          "indexed": true,
          "internalType": "address",
          "name": "player",
          "type": "address"
        },
        {
          "indexed": false,
          "internalType": "uint256",
          "name": "feeAmount",
          "type": "uint256"
        },
        {
          "indexed": false,
          "internalType": "string",
          "name": "queryID",
          "type": "string"
        },
        {
          "indexed": false,
          "internalType": "uint256",
          "name": "blockNumber",
          "type": "uint256"
        },
        {
          "indexed": false,
          "internalType": "uint256",
          "name": "timestamp",
          "type": "uint256"
        }
      ],
      "name": "QueryFeePaid",
      "type": "event"
    },
    {
      "anonymous": false,
      "inputs": [
        {
          "indexed": false,
          "internalType": "uint256",
          "name": "totalAmount",
          "type": "uint256"
        }
      ],
      "name": "RestOfThePlayersRewardAfterGameExhaustion",
      "type": "event"
    },
    {
      "anonymous": false,
      "inputs": [
        {
          "indexed": false,
          "internalType": "uint256",
          "name": "globalQueryCount",
          "type": "uint256"
        }
      ],
      "name": "TotalQueries",
      "type": "event"
    },
    {
      "anonymous": false,
      "inputs": [
        {
          "indexed": true,
          "internalType": "address",
          "name": "owner",
          "type": "address"
        },
        {
          "indexed": false,
          "internalType": "uint256",
          "name": "amount",
          "type": "uint256"
        }
      ],
      "name": "Withdrawal",
      "type": "event"
    },
    {
      "stateMutability": "payable",
      "type": "fallback"
    },
    {
      "inputs": [],
      "name": "IDLE_TIME_LIMIT",
      "outputs": [
        {
          "internalType": "uint256",
          "name": "",
          "type": "uint256"
        }
      ],
      "stateMutability": "view",
      "type": "function"
    },
    {
      "inputs": [],
      "name": "MAX_QUERIES",
      "outputs": [
        {
          "internalType": "uint256",
          "name": "",
          "type": "uint256"
        }
      ],
      "stateMutability": "view",
      "type": "function"
    },
    {
      "inputs": [],
      "name": "MAX_QUERY_FEE",
      "outputs": [
        {
          "internalType": "uint256",
          "name": "",
          "type": "uint256"
        }
      ],
      "stateMutability": "view",
      "type": "function"
    },
    {
      "inputs": [
        {
          "internalType": "address",
          "name": "recipient",
          "type": "address"
        }
      ],
      "name": "approveTransfer",
      "outputs": [],
      "stateMutability": "nonpayable",
      "type": "function"
    },
    {
      "inputs": [],
      "name": "calculateNextQueryFee",
      "outputs": [
        {
          "internalType": "uint256",
          "name": "",
          "type": "uint256"
        }
      ],
      "stateMutability": "view",
      "type": "function"
    },
    {
      "inputs": [],
      "name": "calculateQueryFee",
      "outputs": [
        {
          "internalType": "uint256",
          "name": "",
          "type": "uint256"
        }
      ],
      "stateMutability": "view",
      "type": "function"
    },
    {
      "inputs": [],
      "name": "endGameDueToExhaustion",
      "outputs": [],
      "stateMutability": "nonpayable",
      "type": "function"
    },
    {
      "inputs": [],
      "name": "gameEnded",
      "outputs": [
        {
          "internalType": "bool",
          "name": "",
          "type": "bool"
        }
      ],
      "stateMutability": "view",
      "type": "function"
    },
    {
      "inputs": [],
      "name": "getAllPlayers",
      "outputs": [
        {
          "internalType": "address[]",
          "name": "",
          "type": "address[]"
        }
      ],
      "stateMutability": "view",
      "type": "function"
    },
    {
      "inputs": [],
      "name": "globalQueryCount",
      "outputs": [
        {
          "internalType": "uint256",
          "name": "",
          "type": "uint256"
        }
      ],
      "stateMutability": "view",
      "type": "function"
    },
    {
      "inputs": [],
      "name": "lastInteraction",
      "outputs": [
        {
          "internalType": "uint256",
          "name": "",
          "type": "uint256"
        }
      ],
      "stateMutability": "view",
      "type": "function"
    },
    {
      "inputs": [],
      "name": "lastPlayer",
      "outputs": [
        {
          "internalType": "address",
          "name": "",
          "type": "address"
        }
      ],
      "stateMutability": "view",
      "type": "function"
    },
    {
      "inputs": [],
      "name": "owner",
      "outputs": [
        {
          "internalType": "address",
          "name": "",
          "type": "address"
        }
      ],
      "stateMutability": "view",
      "type": "function"
    },
    {
      "inputs": [
        {
          "internalType": "address",
          "name": "",
          "type": "address"
        }
      ],
      "name": "playerQueryCount",
      "outputs": [
        {
          "internalType": "uint256",
          "name": "",
          "type": "uint256"
        }
      ],
      "stateMutability": "view",
      "type": "function"
    },
    {
      "inputs": [
        {
          "internalType": "address",
          "name": "",
          "type": "address"
        }
      ],
      "name": "playerTotalFee",
      "outputs": [
        {
          "internalType": "uint256",
          "name": "",
          "type": "uint256"
        }
      ],
      "stateMutability": "view",
      "type": "function"
    },
    {
      "inputs": [
        {
          "internalType": "uint256",
          "name": "",
          "type": "uint256"
        }
      ],
      "name": "players",
      "outputs": [
        {
          "internalType": "address",
          "name": "",
          "type": "address"
        }
      ],
      "stateMutability": "view",
      "type": "function"
    },
    {
      "inputs": [],
      "name": "prizePool",
      "outputs": [
        {
          "internalType": "uint256",
          "name": "",
          "type": "uint256"
        }
      ],
      "stateMutability": "view",
      "type": "function"
    },
    {
      "inputs": [],
      "name": "resetGame",
      "outputs": [],
      "stateMutability": "payable",
      "type": "function"
    },
    {
      "inputs": [
        {
          "internalType": "uint256",
          "name": "newIdleTimeLimit",
          "type": "uint256"
        }
      ],
      "name": "setIdleTimeLimit",
      "outputs": [],
      "stateMutability": "nonpayable",
      "type": "function"
    },
    {
      "inputs": [
        {
          "internalType": "uint256",
          "name": "newMaxQueries",
          "type": "uint256"
        }
      ],
      "name": "setMaxQueries",
      "outputs": [],
      "stateMutability": "nonpayable",
      "type": "function"
    },
    {
      "inputs": [
        {
          "internalType": "uint256",
          "name": "newMaxQueryFee",
          "type": "uint256"
        }
      ],
      "name": "setMaxQueryFee",
      "outputs": [],
      "stateMutability": "nonpayable",
      "type": "function"
    },
    {
      "inputs": [
        {
          "internalType": "string",
          "name": "query",
          "type": "string"
        },
        {
          "internalType": "string",
          "name": "queryID",
          "type": "string"
        }
      ],
      "name": "submitQuery",
      "outputs": [],
      "stateMutability": "payable",
      "type": "function"
    },
    {
      "inputs": [],
      "name": "withdraw",
      "outputs": [],
      "stateMutability": "nonpayable",
      "type": "function"
    },
    {
      "stateMutability": "payable",
      "type": "receive"
    }
  ],
  "bytecode": "0x6080604052600060025561138860035562093a80600455670de0b6b3a76400006005556000600a60006101000a81548160ff021916908315150217905550336000806101000a81548173ffffffffffffffffffffffffffffffffffffffff021916908373ffffffffffffffffffffffffffffffffffffffff16021790555060003411620000c3576040517f08c379a0000000000000000000000000000000000000000000000000000000008152600401620000ba90620001ad565b60405180910390fd5b4260098190555060008054906101000a900473ffffffffffffffffffffffffffffffffffffffff16600160006101000a81548173ffffffffffffffffffffffffffffffffffffffff021916908373ffffffffffffffffffffffffffffffffffffffff1602179055506000600a60006101000a81548160ff021916908315150217905550620001cf565b600082825260208201905092915050565b7f496e697469616c2066756e64696e672072657175697265640000000000000000600082015250565b6000620001956018836200014c565b9150620001a2826200015d565b602082019050919050565b60006020820190508181036000830152620001c88162000186565b9050919050565b612c1080620001df6000396000f3fe6080604052600436106101445760003560e01c80638da5cb5b116100b6578063ce4064e71161006f578063ce4064e714610436578063e3450e1314610461578063efa1c4821461048c578063f6711fbe146104b7578063f71d96cb146104d3578063fc442e3a146105105761014b565b80638da5cb5b146103555780638f71a265146103805780639ae5bb0e146103ab5780639b3e156a146103d6578063b3dbf4b414610401578063bb4722191461042c5761014b565b80634edbdc8a116101085780634edbdc8a14610245578063719ce73e14610270578063768de1db1461029b57806378d4b4df146102c45780637fe6938f14610301578063886e20341461032c5761014b565b80632f6fe396146101865780633ccfd60b146101b15780634355b9d2146101c85780634c9fb2bf146101f15780634d7c49e9146102085761014b565b3661014b57005b6040517f08c379a000000000000000000000000000000000000000000000000000000000815260040161017d90611fe7565b60405180910390fd5b34801561019257600080fd5b5061019b610539565b6040516101a89190612022565b60405180910390f35b3480156101bd57600080fd5b506101c661054c565b005b3480156101d457600080fd5b506101ef60048036038101906101ea91906120af565b610758565b005b3480156101fd57600080fd5b5061020661098f565b005b34801561021457600080fd5b5061022f600480360381019061022a91906120af565b610efc565b60405161023c91906120f5565b60405180910390f35b34801561025157600080fd5b5061025a610f14565b60405161026791906120f5565b60405180910390f35b34801561027c57600080fd5b50610285610f1a565b60405161029291906120f5565b60405180910390f35b3480156102a757600080fd5b506102c260048036038101906102bd919061213c565b610f22565b005b3480156102d057600080fd5b506102eb60048036038101906102e691906120af565b61102b565b6040516102f891906120f5565b60405180910390f35b34801561030d57600080fd5b50610316611043565b60405161032391906120f5565b60405180910390f35b34801561033857600080fd5b50610353600480360381019061034e919061213c565b611049565b005b34801561036157600080fd5b5061036a611152565b6040516103779190612178565b60405180910390f35b34801561038c57600080fd5b50610395611176565b6040516103a291906120f5565b60405180910390f35b3480156103b757600080fd5b506103c061117c565b6040516103cd91906120f5565b60405180910390f35b3480156103e257600080fd5b506103eb61123e565b6040516103f891906120f5565b60405180910390f35b34801561040d57600080fd5b50610416611244565b60405161042391906120f5565b60405180910390f35b6104346112ee565b005b34801561044257600080fd5b5061044b61161f565b60405161045891906120f5565b60405180910390f35b34801561046d57600080fd5b50610476611625565b6040516104839190612178565b60405180910390f35b34801561049857600080fd5b506104a161164b565b6040516104ae9190612251565b60405180910390f35b6104d160048036038101906104cc91906123b9565b6116d9565b005b3480156104df57600080fd5b506104fa60048036038101906104f5919061213c565b611d42565b6040516105079190612178565b60405180910390f35b34801561051c57600080fd5b506105376004803603810190610532919061213c565b611d81565b005b600a60009054906101000a900460ff1681565b60008054906101000a900473ffffffffffffffffffffffffffffffffffffffff1673ffffffffffffffffffffffffffffffffffffffff163373ffffffffffffffffffffffffffffffffffffffff16146105d1576040517f82b4290000000000000000000000000000000000000000000000000000000000815260040160405180910390fd5b600047905060008111610619576040517f08c379a0000000000000000000000000000000000000000000000000000000008152600401610610906124a3565b60405180910390fd5b60008060009054906101000a900473ffffffffffffffffffffffffffffffffffffffff1673ffffffffffffffffffffffffffffffffffffffff1682604051610660906124f4565b60006040518083038185875af1925050503d806000811461069d576040519150601f19603f3d011682016040523d82523d6000602084013e6106a2565b606091505b50509050806106e6576040517f08c379a00000000000000000000000000000000000000000000000000000000081526004016106dd90612555565b60405180910390fd5b60008054906101000a900473ffffffffffffffffffffffffffffffffffffffff1673ffffffffffffffffffffffffffffffffffffffff167f7fcf532c15f0a6db0bd6d0e038bea71d30d808c7d98cb3bf7268a95bf5081b658360405161074c91906120f5565b60405180910390a25050565b60008054906101000a900473ffffffffffffffffffffffffffffffffffffffff1673ffffffffffffffffffffffffffffffffffffffff163373ffffffffffffffffffffffffffffffffffffffff16146107dd576040517f82b4290000000000000000000000000000000000000000000000000000000000815260040160405180910390fd5b60006107e7610f1a565b0361081e576040517fb76ca43d00000000000000000000000000000000000000000000000000000000815260040160405180910390fd5b600073ffffffffffffffffffffffffffffffffffffffff168173ffffffffffffffffffffffffffffffffffffffff1603610884576040517f9c8d2cd200000000000000000000000000000000000000000000000000000000815260040160405180910390fd5b600061088e610f1a565b905060008273ffffffffffffffffffffffffffffffffffffffff16826040516108b6906124f4565b60006040518083038185875af1925050503d80600081146108f3576040519150601f19603f3d011682016040523d82523d6000602084013e6108f8565b606091505b505090508061093c576040517f08c379a0000000000000000000000000000000000000000000000000000000008152600401610933906125c1565b60405180910390fd5b8273ffffffffffffffffffffffffffffffffffffffff167f6fa1ae3f51a194d857cbe6cb9459898c29b220c48d53dc81d2d79adea5702b568360405161098291906120f5565b60405180910390a2505050565b60008054906101000a900473ffffffffffffffffffffffffffffffffffffffff1673ffffffffffffffffffffffffffffffffffffffff163373ffffffffffffffffffffffffffffffffffffffff1614610a14576040517f82b4290000000000000000000000000000000000000000000000000000000000815260040160405180910390fd5b600a60009054906101000a900460ff1615610a64576040517f08c379a0000000000000000000000000000000000000000000000000000000008152600401610a5b9061262d565b60405180910390fd5b6000610a6e610f1a565b03610aa5576040517fb76ca43d00000000000000000000000000000000000000000000000000000000815260040160405180910390fd5b600073ffffffffffffffffffffffffffffffffffffffff16600160009054906101000a900473ffffffffffffffffffffffffffffffffffffffff1673ffffffffffffffffffffffffffffffffffffffff1603610b2d576040517f9c8d2cd200000000000000000000000000000000000000000000000000000000815260040160405180910390fd5b6000610b37610f1a565b905060006064600a83610b4a919061267c565b610b5491906126ed565b90506000600160009054906101000a900473ffffffffffffffffffffffffffffffffffffffff1673ffffffffffffffffffffffffffffffffffffffff1682604051610b9e906124f4565b60006040518083038185875af1925050503d8060008114610bdb576040519150601f19603f3d011682016040523d82523d6000602084013e610be0565b606091505b5050905080610c24576040517f08c379a0000000000000000000000000000000000000000000000000000000008152600401610c1b9061276a565b60405180910390fd5b600160009054906101000a900473ffffffffffffffffffffffffffffffffffffffff1673ffffffffffffffffffffffffffffffffffffffff167f9f8a5abfe9d79cc8b97238355d25de4797d9b9153383b831e776735b38d4cdb283604051610c8c91906120f5565b60405180910390a260008284610ca2919061278a565b905060006002541115610e2b5760005b600680549050811015610e2957600060068281548110610cd557610cd46127be565b5b9060005260206000200160009054906101000a900473ffffffffffffffffffffffffffffffffffffffff1690506000600254600760008473ffffffffffffffffffffffffffffffffffffffff1673ffffffffffffffffffffffffffffffffffffffff1681526020019081526020016000205485610d52919061267c565b610d5c91906126ed565b90506000811115610e14578173ffffffffffffffffffffffffffffffffffffffff1681604051610d8b906124f4565b60006040518083038185875af1925050503d8060008114610dc8576040519150601f19603f3d011682016040523d82523d6000602084013e610dcd565b606091505b50508095505084610e13576040517f08c379a0000000000000000000000000000000000000000000000000000000008152600401610e0a90612839565b60405180910390fd5b5b50508080610e2190612859565b915050610cb2565b505b7f7d26ae2e18a5cd23971453551df3a6cecfe10ac466cf513431fde2467840ed7f81604051610e5a91906120f5565b60405180910390a16001600a60006101000a81548160ff0219169083151502179055507f4c4660db760944215f41e957066d756ad5fd0eed1b4640632322eb06f77b034d42600954604051610eb09291906128a1565b60405180910390a17f8ac50fcf3d00dee234d54465411e35ea967c640e5c9aad390f167af64c2a8e83610ee1610f1a565b604051610eee91906120f5565b60405180910390a150505050565b60076020528060005260406000206000915090505481565b60025481565b600047905090565b60008054906101000a900473ffffffffffffffffffffffffffffffffffffffff1673ffffffffffffffffffffffffffffffffffffffff163373ffffffffffffffffffffffffffffffffffffffff1614610fa7576040517f82b4290000000000000000000000000000000000000000000000000000000000815260040160405180910390fd5b60008111610fea576040517f08c379a0000000000000000000000000000000000000000000000000000000008152600401610fe19061293c565b60405180910390fd5b806003819055507ff11fddb6cfb2f6a89b6fa411be3b1fe813a389446b2c7ebf85fca9d0e08d092c8160405161102091906120f5565b60405180910390a150565b60086020528060005260406000206000915090505481565b60045481565b60008054906101000a900473ffffffffffffffffffffffffffffffffffffffff1673ffffffffffffffffffffffffffffffffffffffff163373ffffffffffffffffffffffffffffffffffffffff16146110ce576040517f82b4290000000000000000000000000000000000000000000000000000000000815260040160405180910390fd5b60008111611111576040517f08c379a0000000000000000000000000000000000000000000000000000000008152600401611108906129ce565b60405180910390fd5b806005819055507f93d2574a7b2675112bb4a34c59c274079e3087894d7f15a15641d450a9c97acb8160405161114791906120f5565b60405180910390a150565b60008054906101000a900473ffffffffffffffffffffffffffffffffffffffff1681565b60095481565b6000601e600254116111c257600160025461119791906129ee565b66038d7ea4c680006111a9919061267c565b6611c37937e080006111bb91906129ee565b905061123b565b6000667c58508723800090506000601e60016002546111e191906129ee565b6111eb919061278a565b905060006111fa606483611e8a565b611205607d84611e8a565b61120f91906126ed565b90506000818461121f919061267c565b905060055481116112305780611234565b6005545b9450505050505b90565b60035481565b6000601e6002541161127e5760025466038d7ea4c68000611265919061267c565b6611c37937e0800061127791906129ee565b90506112eb565b6000667c58508723800090506000601e60025461129b919061278a565b905060006112aa606483611e8a565b6112b5607d84611e8a565b6112bf91906126ed565b9050600081846112cf919061267c565b905060055481116112e057806112e4565b6005545b9450505050505b90565b60008054906101000a900473ffffffffffffffffffffffffffffffffffffffff1673ffffffffffffffffffffffffffffffffffffffff163373ffffffffffffffffffffffffffffffffffffffff1614611373576040517f82b4290000000000000000000000000000000000000000000000000000000000815260040160405180910390fd5b60003411156113b4577f8ac50fcf3d00dee234d54465411e35ea967c640e5c9aad390f167af64c2a8e83476040516113ab91906120f5565b60405180910390a15b60005b6006805490508110156114a1576000600682815481106113da576113d96127be565b5b9060005260206000200160009054906101000a900473ffffffffffffffffffffffffffffffffffffffff169050600760008273ffffffffffffffffffffffffffffffffffffffff1673ffffffffffffffffffffffffffffffffffffffff16815260200190815260200160002060009055600860008273ffffffffffffffffffffffffffffffffffffffff1673ffffffffffffffffffffffffffffffffffffffff1681526020019081526020016000206000905550808061149990612859565b9150506113b7565b50600660006114b09190611f26565b6000600a60006101000a81548160ff021916908315150217905550600060028190555060008054906101000a900473ffffffffffffffffffffffffffffffffffffffff16600160006101000a81548173ffffffffffffffffffffffffffffffffffffffff021916908373ffffffffffffffffffffffffffffffffffffffff160217905550426009819055507f389a851c813bc96190bd02f7aa164331a438c2275cb1083cd03931f8a526e58f60095460405161156c91906120f5565b60405180910390a17f50ad08f58a27f2851d7e3a1b3a6a46b290f2ce677e99642d30ff639721e777906009546040516115a591906120f5565b60405180910390a17f097f38bd15981ec437e7e5f59ce1ea94c4c0520fbbfaeebde079ca4ba5a771fc6009546040516115de91906120f5565b60405180910390a17f8ac50fcf3d00dee234d54465411e35ea967c640e5c9aad390f167af64c2a8e834760405161161591906120f5565b60405180910390a1565b60055481565b600160009054906101000a900473ffffffffffffffffffffffffffffffffffffffff1681565b606060068054806020026020016040519081016040528092919081815260200182805480156116cf57602002820191906000526020600020905b8160009054906101000a900473ffffffffffffffffffffffffffffffffffffffff1673ffffffffffffffffffffffffffffffffffffffff1681526020019060010190808311611685575b5050505050905090565b6004546009546116e991906129ee565b421115611722576040517fb76ca43d00000000000000000000000000000000000000000000000000000000815260040160405180910390fd5b600a60009054906101000a900460ff1615611769576040517fb76ca43d00000000000000000000000000000000000000000000000000000000815260040160405180910390fd5b60008054906101000a900473ffffffffffffffffffffffffffffffffffffffff1673ffffffffffffffffffffffffffffffffffffffff163373ffffffffffffffffffffffffffffffffffffffff16036117ee576040517f82b4290000000000000000000000000000000000000000000000000000000000815260040160405180910390fd5b60006117f8610f1a565b0361182f576040517fb76ca43d00000000000000000000000000000000000000000000000000000000815260040160405180910390fd5b600082510361186a576040517f19e4cb1000000000000000000000000000000000000000000000000000000000815260040160405180910390fd5b600354600760003373ffffffffffffffffffffffffffffffffffffffff1673ffffffffffffffffffffffffffffffffffffffff16815260200190815260200160002054106118f1576003546040517fd68834110000000000000000000000000000000000000000000000000000000081526004016118e891906120f5565b60405180910390fd5b60006118fb611244565b9050803410156119445780346040517f2f59832200000000000000000000000000000000000000000000000000000000815260040161193b9291906128a1565b60405180910390fd5b60006064605034611955919061267c565b61195f91906126ed565b90506000813461196f919061278a565b905060008060009054906101000a900473ffffffffffffffffffffffffffffffffffffffff1673ffffffffffffffffffffffffffffffffffffffff16826040516119b8906124f4565b60006040518083038185875af1925050503d80600081146119f5576040519150601f19603f3d011682016040523d82523d6000602084013e6119fa565b606091505b5050905080611a3e576040517f08c379a0000000000000000000000000000000000000000000000000000000008152600401611a3590612a6e565b60405180910390fd5b6000600760003373ffffffffffffffffffffffffffffffffffffffff1673ffffffffffffffffffffffffffffffffffffffff1681526020019081526020016000205403611ae9576006339080600181540180825580915050600190039060005260206000200160009091909190916101000a81548173ffffffffffffffffffffffffffffffffffffffff021916908373ffffffffffffffffffffffffffffffffffffffff1602179055505b600760003373ffffffffffffffffffffffffffffffffffffffff1673ffffffffffffffffffffffffffffffffffffffff1681526020019081526020016000206000815480929190611b3990612859565b919050555083600860003373ffffffffffffffffffffffffffffffffffffffff1673ffffffffffffffffffffffffffffffffffffffff1681526020019081526020016000206000828254611b8d91906129ee565b9250508190555033600160006101000a81548173ffffffffffffffffffffffffffffffffffffffff021916908373ffffffffffffffffffffffffffffffffffffffff16021790555060026000815480929190611be890612859565b9190505550426009819055503373ffffffffffffffffffffffffffffffffffffffff167f484cf9a2b144a79d50ad4a6c852c88d377be171af3edce6f3fa94a6718f1d14734874342604051611c409493929190612afc565b60405180910390a27f1d10a40d09ae13f42d8a863f4881bb8c7fc588a0a0d8ad00dd7c4ef77d23ce42611c7161117c565b600254604051611c829291906128a1565b60405180910390a17f8ac50fcf3d00dee234d54465411e35ea967c640e5c9aad390f167af64c2a8e83611cb3610f1a565b604051611cc091906120f5565b60405180910390a17f097f38bd15981ec437e7e5f59ce1ea94c4c0520fbbfaeebde079ca4ba5a771fc600954604051611cf991906120f5565b60405180910390a17fed8d1315e9eb6ebe7c3f2c6c84931e9e72f34c13c09eda0392c8e704d4dc199f600254604051611d3291906120f5565b60405180910390a1505050505050565b60068181548110611d5257600080fd5b906000526020600020016000915054906101000a900473ffffffffffffffffffffffffffffffffffffffff1681565b60008054906101000a900473ffffffffffffffffffffffffffffffffffffffff1673ffffffffffffffffffffffffffffffffffffffff163373ffffffffffffffffffffffffffffffffffffffff1614611e06576040517f82b4290000000000000000000000000000000000000000000000000000000000815260040160405180910390fd5b60008111611e49576040517f08c379a0000000000000000000000000000000000000000000000000000000008152600401611e4090612bba565b60405180910390fd5b806004819055507f4c1644e685edccbaa71de19cc8947d453fbe78ba8ee874764a69f0f4fd32c1fc81604051611e7f91906120f5565b60405180910390a150565b6000806001905060005b83811015611f1a578482611ea8919061267c565b9150847fffffffffffffffffffffffffffffffffffffffffffffffffffffffffffffffff611ed691906126ed565b821115611f07577fffffffffffffffffffffffffffffffffffffffffffffffffffffffffffffffff92505050611f20565b8080611f1290612859565b915050611e94565b50809150505b92915050565b5080546000825590600052602060002090810190611f449190611f47565b50565b5b80821115611f60576000816000905550600101611f48565b5090565b600082825260208201905092915050565b7f46616c6c6261636b2066756e6374696f6e206973206e6f7420696d706c656d6560008201527f6e74656400000000000000000000000000000000000000000000000000000000602082015250565b6000611fd1602483611f64565b9150611fdc82611f75565b604082019050919050565b6000602082019050818103600083015261200081611fc4565b9050919050565b60008115159050919050565b61201c81612007565b82525050565b60006020820190506120376000830184612013565b92915050565b6000604051905090565b600080fd5b600080fd5b600073ffffffffffffffffffffffffffffffffffffffff82169050919050565b600061207c82612051565b9050919050565b61208c81612071565b811461209757600080fd5b50565b6000813590506120a981612083565b92915050565b6000602082840312156120c5576120c4612047565b5b60006120d38482850161209a565b91505092915050565b6000819050919050565b6120ef816120dc565b82525050565b600060208201905061210a60008301846120e6565b92915050565b612119816120dc565b811461212457600080fd5b50565b60008135905061213681612110565b92915050565b60006020828403121561215257612151612047565b5b600061216084828501612127565b91505092915050565b61217281612071565b82525050565b600060208201905061218d6000830184612169565b92915050565b600081519050919050565b600082825260208201905092915050565b6000819050602082019050919050565b6121c881612071565b82525050565b60006121da83836121bf565b60208301905092915050565b6000602082019050919050565b60006121fe82612193565b612208818561219e565b9350612213836121af565b8060005b8381101561224457815161222b88826121ce565b9750612236836121e6565b925050600181019050612217565b5085935050505092915050565b6000602082019050818103600083015261226b81846121f3565b905092915050565b600080fd5b600080fd5b6000601f19601f8301169050919050565b7f4e487b7100000000000000000000000000000000000000000000000000000000600052604160045260246000fd5b6122c68261227d565b810181811067ffffffffffffffff821117156122e5576122e461228e565b5b80604052505050565b60006122f861203d565b905061230482826122bd565b919050565b600067ffffffffffffffff8211156123245761232361228e565b5b61232d8261227d565b9050602081019050919050565b82818337600083830152505050565b600061235c61235784612309565b6122ee565b90508281526020810184848401111561237857612377612278565b5b61238384828561233a565b509392505050565b600082601f8301126123a05761239f612273565b5b81356123b0848260208601612349565b91505092915050565b600080604083850312156123d0576123cf612047565b5b600083013567ffffffffffffffff8111156123ee576123ed61204c565b5b6123fa8582860161238b565b925050602083013567ffffffffffffffff81111561241b5761241a61204c565b5b6124278582860161238b565b9150509250929050565b7f4e6f2066756e647320617661696c61626c6520666f722077697468647261776160008201527f6c00000000000000000000000000000000000000000000000000000000000000602082015250565b600061248d602183611f64565b915061249882612431565b604082019050919050565b600060208201905081810360008301526124bc81612480565b9050919050565b600081905092915050565b50565b60006124de6000836124c3565b91506124e9826124ce565b600082019050919050565b60006124ff826124d1565b9150819050919050565b7f5769746864726177616c206661696c6564000000000000000000000000000000600082015250565b600061253f601183611f64565b915061254a82612509565b602082019050919050565b6000602082019050818103600083015261256e81612532565b9050919050565b7f5472616e7366657220746f20726563697069656e74206661696c656400000000600082015250565b60006125ab601c83611f64565b91506125b682612575565b602082019050919050565b600060208201905081810360008301526125da8161259e565b9050919050565b7f47616d652068617320616c726561647920656e64656400000000000000000000600082015250565b6000612617601683611f64565b9150612622826125e1565b602082019050919050565b600060208201905081810360008301526126468161260a565b9050919050565b7f4e487b7100000000000000000000000000000000000000000000000000000000600052601160045260246000fd5b6000612687826120dc565b9150612692836120dc565b92508282026126a0816120dc565b915082820484148315176126b7576126b661264d565b5b5092915050565b7f4e487b7100000000000000000000000000000000000000000000000000000000600052601260045260246000fd5b60006126f8826120dc565b9150612703836120dc565b925082612713576127126126be565b5b828204905092915050565b7f5472616e7366657220746f206c61737420706c61796572206661696c65640000600082015250565b6000612754601e83611f64565b915061275f8261271e565b602082019050919050565b6000602082019050818103600083015261278381612747565b9050919050565b6000612795826120dc565b91506127a0836120dc565b92508282039050818111156127b8576127b761264d565b5b92915050565b7f4e487b7100000000000000000000000000000000000000000000000000000000600052603260045260246000fd5b7f506c6179657220726577617264207472616e73666572206661696c6564000000600082015250565b6000612823601d83611f64565b915061282e826127ed565b602082019050919050565b6000602082019050818103600083015261285281612816565b9050919050565b6000612864826120dc565b91507fffffffffffffffffffffffffffffffffffffffffffffffffffffffffffffffff82036128965761289561264d565b5b600182019050919050565b60006040820190506128b660008301856120e6565b6128c360208301846120e6565b9392505050565b7f4d41585f51554552494553206d7573742062652067726561746572207468616e60008201527f2030000000000000000000000000000000000000000000000000000000000000602082015250565b6000612926602283611f64565b9150612931826128ca565b604082019050919050565b6000602082019050818103600083015261295581612919565b9050919050565b7f4d41585f51554552595f464545206d757374206265206772656174657220746860008201527f616e203000000000000000000000000000000000000000000000000000000000602082015250565b60006129b8602483611f64565b91506129c38261295c565b604082019050919050565b600060208201905081810360008301526129e7816129ab565b9050919050565b60006129f9826120dc565b9150612a04836120dc565b9250828201905080821115612a1c57612a1b61264d565b5b92915050565b7f4f776e6572207472616e73666572206661696c65640000000000000000000000600082015250565b6000612a58601583611f64565b9150612a6382612a22565b602082019050919050565b60006020820190508181036000830152612a8781612a4b565b9050919050565b600081519050919050565b60005b83811015612ab7578082015181840152602081019050612a9c565b60008484015250505050565b6000612ace82612a8e565b612ad88185611f64565b9350612ae8818560208601612a99565b612af18161227d565b840191505092915050565b6000608082019050612b1160008301876120e6565b8181036020830152612b238186612ac3565b9050612b3260408301856120e6565b612b3f60608301846120e6565b95945050505050565b7f49444c455f54494d455f4c494d4954206d75737420626520677265617465722060008201527f7468616e20300000000000000000000000000000000000000000000000000000602082015250565b6000612ba4602683611f64565b9150612baf82612b48565b604082019050919050565b60006020820190508181036000830152612bd381612b97565b905091905056fea26469706673582212209c63056048d7790af6e70bddbd222f82ac2834e8befb23b87e42c99e6ef086c564736f6c63430008120033",
  "linkReferences": {},
  "deployedLinkReferences": {}
}