{
  "_format": "hh-sol-artifact-1",
  "contractName": "LittlefingerGame",
  "sourceName": "contracts/LittlefingerGame.sol",
  "abi": [
    {
      "inputs": [],
      "stateMutability": "payable",
      "type": "constructor"
    },
    {
      "inputs": [],
      "name": "GameExhausted",
      "type": "error"
    },
    {
      "inputs": [
        {
          "internalType": "uint256",
          "name": "requiredFee",
          "type": "uint256"
        },
        {
          "internalType": "uint256",
          "name": "sentFee",
          "type": "uint256"
        }
      ],
      "name": "InsufficientQueryFee",
      "type": "error"
    },
    {
      "inputs": [],
      "name": "InvalidQuery",
      "type": "error"
    },
    {
      "inputs": [],
      "name": "InvalidRecipient",
      "type": "error"
    },
    {
      "inputs": [
        {
          "internalType": "uint256",
          "name": "maxQueries",
          "type": "uint256"
        }
      ],
      "name": "MaxQueriesReached",
      "type": "error"
    },
    {
      "inputs": [],
      "name": "Unauthorized",
      "type": "error"
    },
    {
      "anonymous": false,
      "inputs": [
        {
          "indexed": false,
          "internalType": "uint256",
          "name": "prizePool",
          "type": "uint256"
        }
      ],
      "name": "CurrentPrizePool",
      "type": "event"
    },
    {
      "anonymous": false,
      "inputs": [
        {
          "indexed": false,
          "internalType": "uint256",
          "name": "currentTimestamp",
          "type": "uint256"
        },
        {
          "indexed": false,
          "internalType": "uint256",
          "name": "lastInteraction",
          "type": "uint256"
        }
      ],
      "name": "GameEnded",
      "type": "event"
    },
    {
      "anonymous": false,
      "inputs": [
        {
          "indexed": false,
          "internalType": "uint256",
          "name": "lastInteraction",
          "type": "uint256"
        }
      ],
      "name": "GameIdleSince",
      "type": "event"
    },
    {
      "anonymous": false,
      "inputs": [
        {
          "indexed": false,
          "internalType": "uint256",
          "name": "timestamp",
          "type": "uint256"
        }
      ],
      "name": "GameResetByOwner",
      "type": "event"
    },
    {
      "anonymous": false,
      "inputs": [
        {
          "indexed": false,
          "internalType": "uint256",
          "name": "timestamp",
          "type": "uint256"
        }
      ],
      "name": "GameStarted",
      "type": "event"
    },
    {
      "anonymous": false,
      "inputs": [
        {
          "indexed": false,
          "internalType": "uint256",
          "name": "newIdleTimeLimit",
          "type": "uint256"
        }
      ],
      "name": "IdleTimeLimitUpdated",
      "type": "event"
    },
    {
      "anonymous": false,
      "inputs": [
        {
          "indexed": true,
          "internalType": "address",
          "name": "player",
          "type": "address"
        },
        {
          "indexed": false,
          "internalType": "uint256",
          "name": "amount",
          "type": "uint256"
        }
      ],
      "name": "LastPlayerRewardAfterGameExhaustion",
      "type": "event"
    },
    {
      "anonymous": false,
      "inputs": [
        {
          "indexed": false,
          "internalType": "uint256",
          "name": "newMaxQueries",
          "type": "uint256"
        }
      ],
      "name": "MaxQueriesUpdated",
      "type": "event"
    },
    {
      "anonymous": false,
      "inputs": [
        {
          "indexed": false,
          "internalType": "uint256",
          "name": "newMaxQueryFee",
          "type": "uint256"
        }
      ],
      "name": "MaxQueryFeeUpdated",
      "type": "event"
    },
    {
      "anonymous": false,
      "inputs": [
        {
          "indexed": false,
          "internalType": "uint256",
          "name": "nextFee",
          "type": "uint256"
        },
        {
          "indexed": false,
          "internalType": "uint256",
          "name": "currentCount",
          "type": "uint256"
        }
      ],
      "name": "NextQueryFee",
      "type": "event"
    },
    {
      "anonymous": false,
      "inputs": [
        {
          "indexed": true,
          "internalType": "address",
          "name": "winner",
          "type": "address"
        },
        {
          "indexed": false,
          "internalType": "uint256",
          "name": "amount",
          "type": "uint256"
        }
      ],
      "name": "PrizeTransferApproved",
      "type": "event"
    },
    {
      "anonymous": false,
      "inputs": [
        {
          "indexed": true,
          "internalType": "address",
          "name": "player",
          "type": "address"
        },
        {
          "indexed": false,
          "internalType": "uint256",
          "name": "feeAmount",
          "type": "uint256"
        },
        {
          "indexed": false,
          "internalType": "string",
          "name": "queryID",
          "type": "string"
        },
        {
          "indexed": false,
          "internalType": "uint256",
          "name": "blockNumber",
          "type": "uint256"
        },
        {
          "indexed": false,
          "internalType": "uint256",
          "name": "timestamp",
          "type": "uint256"
        }
      ],
      "name": "QueryFeePaid",
      "type": "event"
    },
    {
      "anonymous": false,
      "inputs": [
        {
          "indexed": false,
          "internalType": "uint256",
          "name": "totalAmount",
          "type": "uint256"
        }
      ],
      "name": "RestOfThePlayersRewardAfterGameExhaustion",
      "type": "event"
    },
    {
      "anonymous": false,
      "inputs": [
        {
          "indexed": false,
          "internalType": "uint256",
          "name": "totalUniquePlayers",
          "type": "uint256"
        }
      ],
      "name": "TotalParticipants",
      "type": "event"
    },
    {
      "anonymous": false,
      "inputs": [
        {
          "indexed": false,
          "internalType": "uint256",
          "name": "globalQueryCount",
          "type": "uint256"
        }
      ],
      "name": "TotalQueries",
      "type": "event"
    },
    {
      "anonymous": false,
      "inputs": [
        {
          "indexed": true,
          "internalType": "address",
          "name": "owner",
          "type": "address"
        },
        {
          "indexed": false,
          "internalType": "uint256",
          "name": "amount",
          "type": "uint256"
        }
      ],
      "name": "Withdrawal",
      "type": "event"
    },
    {
      "stateMutability": "payable",
      "type": "fallback"
    },
    {
      "inputs": [],
      "name": "IDLE_TIME_LIMIT",
      "outputs": [
        {
          "internalType": "uint256",
          "name": "",
          "type": "uint256"
        }
      ],
      "stateMutability": "view",
      "type": "function"
    },
    {
      "inputs": [],
      "name": "MAX_QUERIES",
      "outputs": [
        {
          "internalType": "uint256",
          "name": "",
          "type": "uint256"
        }
      ],
      "stateMutability": "view",
      "type": "function"
    },
    {
      "inputs": [],
      "name": "MAX_QUERY_FEE",
      "outputs": [
        {
          "internalType": "uint256",
          "name": "",
          "type": "uint256"
        }
      ],
      "stateMutability": "view",
      "type": "function"
    },
    {
      "inputs": [
        {
          "internalType": "address",
          "name": "recipient",
          "type": "address"
        }
      ],
      "name": "approveTransfer",
      "outputs": [],
      "stateMutability": "nonpayable",
      "type": "function"
    },
    {
      "inputs": [],
      "name": "calculateNextQueryFee",
      "outputs": [
        {
          "internalType": "uint256",
          "name": "",
          "type": "uint256"
        }
      ],
      "stateMutability": "view",
      "type": "function"
    },
    {
      "inputs": [],
      "name": "calculateQueryFee",
      "outputs": [
        {
          "internalType": "uint256",
          "name": "",
          "type": "uint256"
        }
      ],
      "stateMutability": "view",
      "type": "function"
    },
    {
      "inputs": [],
      "name": "endGameDueToExhaustion",
      "outputs": [],
      "stateMutability": "nonpayable",
      "type": "function"
    },
    {
      "inputs": [],
      "name": "gameEnded",
      "outputs": [
        {
          "internalType": "bool",
          "name": "",
          "type": "bool"
        }
      ],
      "stateMutability": "view",
      "type": "function"
    },
    {
      "inputs": [],
      "name": "getAllPlayers",
      "outputs": [
        {
          "internalType": "address[]",
          "name": "",
          "type": "address[]"
        }
      ],
      "stateMutability": "view",
      "type": "function"
    },
    {
      "inputs": [],
      "name": "globalQueryCount",
      "outputs": [
        {
          "internalType": "uint256",
          "name": "",
          "type": "uint256"
        }
      ],
      "stateMutability": "view",
      "type": "function"
    },
    {
      "inputs": [],
      "name": "lastInteraction",
      "outputs": [
        {
          "internalType": "uint256",
          "name": "",
          "type": "uint256"
        }
      ],
      "stateMutability": "view",
      "type": "function"
    },
    {
      "inputs": [],
      "name": "lastPlayer",
      "outputs": [
        {
          "internalType": "address",
          "name": "",
          "type": "address"
        }
      ],
      "stateMutability": "view",
      "type": "function"
    },
    {
      "inputs": [],
      "name": "owner",
      "outputs": [
        {
          "internalType": "address",
          "name": "",
          "type": "address"
        }
      ],
      "stateMutability": "view",
      "type": "function"
    },
    {
      "inputs": [
        {
          "internalType": "address",
          "name": "",
          "type": "address"
        }
      ],
      "name": "playerQueryCount",
      "outputs": [
        {
          "internalType": "uint256",
          "name": "",
          "type": "uint256"
        }
      ],
      "stateMutability": "view",
      "type": "function"
    },
    {
      "inputs": [
        {
          "internalType": "address",
          "name": "",
          "type": "address"
        }
      ],
      "name": "playerTotalFee",
      "outputs": [
        {
          "internalType": "uint256",
          "name": "",
          "type": "uint256"
        }
      ],
      "stateMutability": "view",
      "type": "function"
    },
    {
      "inputs": [
        {
          "internalType": "uint256",
          "name": "",
          "type": "uint256"
        }
      ],
      "name": "players",
      "outputs": [
        {
          "internalType": "address",
          "name": "",
          "type": "address"
        }
      ],
      "stateMutability": "view",
      "type": "function"
    },
    {
      "inputs": [],
      "name": "prizePool",
      "outputs": [
        {
          "internalType": "uint256",
          "name": "",
          "type": "uint256"
        }
      ],
      "stateMutability": "view",
      "type": "function"
    },
    {
      "inputs": [],
      "name": "resetGame",
      "outputs": [],
      "stateMutability": "payable",
      "type": "function"
    },
    {
      "inputs": [
        {
          "internalType": "uint256",
          "name": "newIdleTimeLimit",
          "type": "uint256"
        }
      ],
      "name": "setIdleTimeLimit",
      "outputs": [],
      "stateMutability": "nonpayable",
      "type": "function"
    },
    {
      "inputs": [
        {
          "internalType": "uint256",
          "name": "newMaxQueries",
          "type": "uint256"
        }
      ],
      "name": "setMaxQueries",
      "outputs": [],
      "stateMutability": "nonpayable",
      "type": "function"
    },
    {
      "inputs": [
        {
          "internalType": "uint256",
          "name": "newMaxQueryFee",
          "type": "uint256"
        }
      ],
      "name": "setMaxQueryFee",
      "outputs": [],
      "stateMutability": "nonpayable",
      "type": "function"
    },
    {
      "inputs": [
        {
          "internalType": "string",
          "name": "query",
          "type": "string"
        },
        {
          "internalType": "string",
          "name": "queryID",
          "type": "string"
        }
      ],
      "name": "submitQuery",
      "outputs": [],
      "stateMutability": "payable",
      "type": "function"
    },
    {
      "inputs": [],
      "name": "totalUniquePlayers",
      "outputs": [
        {
          "internalType": "uint256",
          "name": "",
          "type": "uint256"
        }
      ],
      "stateMutability": "view",
      "type": "function"
    },
    {
      "inputs": [],
      "name": "withdraw",
      "outputs": [],
      "stateMutability": "nonpayable",
      "type": "function"
    },
    {
      "stateMutability": "payable",
      "type": "receive"
    }
  ],
  "bytecode": "0x60806040526000600255600060035561138860045562093a80600555670de0b6b3a76400006006556000600b60006101000a81548160ff021916908315150217905550336000806101000a81548173ffffffffffffffffffffffffffffffffffffffff021916908373ffffffffffffffffffffffffffffffffffffffff16021790555060003411620000c8576040517f08c379a0000000000000000000000000000000000000000000000000000000008152600401620000bf90620001b2565b60405180910390fd5b42600a8190555060008054906101000a900473ffffffffffffffffffffffffffffffffffffffff16600160006101000a81548173ffffffffffffffffffffffffffffffffffffffff021916908373ffffffffffffffffffffffffffffffffffffffff1602179055506000600b60006101000a81548160ff021916908315150217905550620001d4565b600082825260208201905092915050565b7f496e697469616c2066756e64696e672072657175697265640000000000000000600082015250565b60006200019a60188362000151565b9150620001a78262000162565b602082019050919050565b60006020820190508181036000830152620001cd816200018b565b9050919050565b612cd480620001e46000396000f3fe60806040526004361061014f5760003560e01c80638da5cb5b116100b6578063ce4064e71161006f578063ce4064e71461046c578063e3450e1314610497578063efa1c482146104c2578063f6711fbe146104ed578063f71d96cb14610509578063fc442e3a1461054657610156565b80638da5cb5b1461038b5780638f71a265146103b65780639ae5bb0e146103e15780639b3e156a1461040c578063b3dbf4b414610437578063bb4722191461046257610156565b8063719ce73e11610108578063719ce73e1461027b578063768de1db146102a657806378d4b4df146102cf5780637fe6938f1461030c578063886e2034146103375780638a6091551461036057610156565b80632f6fe396146101915780633ccfd60b146101bc5780634355b9d2146101d35780634c9fb2bf146101fc5780634d7c49e9146102135780634edbdc8a1461025057610156565b3661015657005b6040517f08c379a0000000000000000000000000000000000000000000000000000000008152600401610188906120ab565b60405180910390fd5b34801561019d57600080fd5b506101a661056f565b6040516101b391906120e6565b60405180910390f35b3480156101c857600080fd5b506101d1610582565b005b3480156101df57600080fd5b506101fa60048036038101906101f59190612173565b6107c5565b005b34801561020857600080fd5b506102116109fc565b005b34801561021f57600080fd5b5061023a60048036038101906102359190612173565b610f69565b60405161024791906121b9565b60405180910390f35b34801561025c57600080fd5b50610265610f81565b60405161027291906121b9565b60405180910390f35b34801561028757600080fd5b50610290610f87565b60405161029d91906121b9565b60405180910390f35b3480156102b257600080fd5b506102cd60048036038101906102c89190612200565b610f8f565b005b3480156102db57600080fd5b506102f660048036038101906102f19190612173565b611098565b60405161030391906121b9565b60405180910390f35b34801561031857600080fd5b506103216110b0565b60405161032e91906121b9565b60405180910390f35b34801561034357600080fd5b5061035e60048036038101906103599190612200565b6110b6565b005b34801561036c57600080fd5b506103756111bf565b60405161038291906121b9565b60405180910390f35b34801561039757600080fd5b506103a06111c5565b6040516103ad919061223c565b60405180910390f35b3480156103c257600080fd5b506103cb6111e9565b6040516103d891906121b9565b60405180910390f35b3480156103ed57600080fd5b506103f66111ef565b60405161040391906121b9565b60405180910390f35b34801561041857600080fd5b506104216112b1565b60405161042e91906121b9565b60405180910390f35b34801561044357600080fd5b5061044c6112b7565b60405161045991906121b9565b60405180910390f35b61046a611361565b005b34801561047857600080fd5b50610481611692565b60405161048e91906121b9565b60405180910390f35b3480156104a357600080fd5b506104ac611698565b6040516104b9919061223c565b60405180910390f35b3480156104ce57600080fd5b506104d76116be565b6040516104e49190612315565b60405180910390f35b6105076004803603810190610502919061247d565b61174c565b005b34801561051557600080fd5b50610530600480360381019061052b9190612200565b611e06565b60405161053d919061223c565b60405180910390f35b34801561055257600080fd5b5061056d60048036038101906105689190612200565b611e45565b005b600b60009054906101000a900460ff1681565b60008054906101000a900473ffffffffffffffffffffffffffffffffffffffff1673ffffffffffffffffffffffffffffffffffffffff163373ffffffffffffffffffffffffffffffffffffffff1614610607576040517f82b4290000000000000000000000000000000000000000000000000000000000815260040160405180910390fd5b60004790506000811161064f576040517f08c379a000000000000000000000000000000000000000000000000000000000815260040161064690612567565b60405180910390fd5b60008060009054906101000a900473ffffffffffffffffffffffffffffffffffffffff1673ffffffffffffffffffffffffffffffffffffffff1682604051610696906125b8565b60006040518083038185875af1925050503d80600081146106d3576040519150601f19603f3d011682016040523d82523d6000602084013e6106d8565b606091505b505090508061071c576040517f08c379a000000000000000000000000000000000000000000000000000000000815260040161071390612619565b60405180910390fd5b60008054906101000a900473ffffffffffffffffffffffffffffffffffffffff1673ffffffffffffffffffffffffffffffffffffffff167f7fcf532c15f0a6db0bd6d0e038bea71d30d808c7d98cb3bf7268a95bf5081b658360405161078291906121b9565b60405180910390a27f8ac50fcf3d00dee234d54465411e35ea967c640e5c9aad390f167af64c2a8e83476040516107b991906121b9565b60405180910390a15050565b60008054906101000a900473ffffffffffffffffffffffffffffffffffffffff1673ffffffffffffffffffffffffffffffffffffffff163373ffffffffffffffffffffffffffffffffffffffff161461084a576040517f82b4290000000000000000000000000000000000000000000000000000000000815260040160405180910390fd5b6000610854610f87565b0361088b576040517fb76ca43d00000000000000000000000000000000000000000000000000000000815260040160405180910390fd5b600073ffffffffffffffffffffffffffffffffffffffff168173ffffffffffffffffffffffffffffffffffffffff16036108f1576040517f9c8d2cd200000000000000000000000000000000000000000000000000000000815260040160405180910390fd5b60006108fb610f87565b905060008273ffffffffffffffffffffffffffffffffffffffff1682604051610923906125b8565b60006040518083038185875af1925050503d8060008114610960576040519150601f19603f3d011682016040523d82523d6000602084013e610965565b606091505b50509050806109a9576040517f08c379a00000000000000000000000000000000000000000000000000000000081526004016109a090612685565b60405180910390fd5b8273ffffffffffffffffffffffffffffffffffffffff167f6fa1ae3f51a194d857cbe6cb9459898c29b220c48d53dc81d2d79adea5702b56836040516109ef91906121b9565b60405180910390a2505050565b60008054906101000a900473ffffffffffffffffffffffffffffffffffffffff1673ffffffffffffffffffffffffffffffffffffffff163373ffffffffffffffffffffffffffffffffffffffff1614610a81576040517f82b4290000000000000000000000000000000000000000000000000000000000815260040160405180910390fd5b600b60009054906101000a900460ff1615610ad1576040517f08c379a0000000000000000000000000000000000000000000000000000000008152600401610ac8906126f1565b60405180910390fd5b6000610adb610f87565b03610b12576040517fb76ca43d00000000000000000000000000000000000000000000000000000000815260040160405180910390fd5b600073ffffffffffffffffffffffffffffffffffffffff16600160009054906101000a900473ffffffffffffffffffffffffffffffffffffffff1673ffffffffffffffffffffffffffffffffffffffff1603610b9a576040517f9c8d2cd200000000000000000000000000000000000000000000000000000000815260040160405180910390fd5b6000610ba4610f87565b905060006064600a83610bb79190612740565b610bc191906127b1565b90506000600160009054906101000a900473ffffffffffffffffffffffffffffffffffffffff1673ffffffffffffffffffffffffffffffffffffffff1682604051610c0b906125b8565b60006040518083038185875af1925050503d8060008114610c48576040519150601f19603f3d011682016040523d82523d6000602084013e610c4d565b606091505b5050905080610c91576040517f08c379a0000000000000000000000000000000000000000000000000000000008152600401610c889061282e565b60405180910390fd5b600160009054906101000a900473ffffffffffffffffffffffffffffffffffffffff1673ffffffffffffffffffffffffffffffffffffffff167f9f8a5abfe9d79cc8b97238355d25de4797d9b9153383b831e776735b38d4cdb283604051610cf991906121b9565b60405180910390a260008284610d0f919061284e565b905060006003541115610e985760005b600780549050811015610e9657600060078281548110610d4257610d41612882565b5b9060005260206000200160009054906101000a900473ffffffffffffffffffffffffffffffffffffffff1690506000600354600860008473ffffffffffffffffffffffffffffffffffffffff1673ffffffffffffffffffffffffffffffffffffffff1681526020019081526020016000205485610dbf9190612740565b610dc991906127b1565b90506000811115610e81578173ffffffffffffffffffffffffffffffffffffffff1681604051610df8906125b8565b60006040518083038185875af1925050503d8060008114610e35576040519150601f19603f3d011682016040523d82523d6000602084013e610e3a565b606091505b50508095505084610e80576040517f08c379a0000000000000000000000000000000000000000000000000000000008152600401610e77906128fd565b60405180910390fd5b5b50508080610e8e9061291d565b915050610d1f565b505b7f7d26ae2e18a5cd23971453551df3a6cecfe10ac466cf513431fde2467840ed7f81604051610ec791906121b9565b60405180910390a16001600b60006101000a81548160ff0219169083151502179055507f4c4660db760944215f41e957066d756ad5fd0eed1b4640632322eb06f77b034d42600a54604051610f1d929190612965565b60405180910390a17f8ac50fcf3d00dee234d54465411e35ea967c640e5c9aad390f167af64c2a8e83610f4e610f87565b604051610f5b91906121b9565b60405180910390a150505050565b60086020528060005260406000206000915090505481565b60035481565b600047905090565b60008054906101000a900473ffffffffffffffffffffffffffffffffffffffff1673ffffffffffffffffffffffffffffffffffffffff163373ffffffffffffffffffffffffffffffffffffffff1614611014576040517f82b4290000000000000000000000000000000000000000000000000000000000815260040160405180910390fd5b60008111611057576040517f08c379a000000000000000000000000000000000000000000000000000000000815260040161104e90612a00565b60405180910390fd5b806004819055507ff11fddb6cfb2f6a89b6fa411be3b1fe813a389446b2c7ebf85fca9d0e08d092c8160405161108d91906121b9565b60405180910390a150565b60096020528060005260406000206000915090505481565b60055481565b60008054906101000a900473ffffffffffffffffffffffffffffffffffffffff1673ffffffffffffffffffffffffffffffffffffffff163373ffffffffffffffffffffffffffffffffffffffff161461113b576040517f82b4290000000000000000000000000000000000000000000000000000000000815260040160405180910390fd5b6000811161117e576040517f08c379a000000000000000000000000000000000000000000000000000000000815260040161117590612a92565b60405180910390fd5b806006819055507f93d2574a7b2675112bb4a34c59c274079e3087894d7f15a15641d450a9c97acb816040516111b491906121b9565b60405180910390a150565b60025481565b60008054906101000a900473ffffffffffffffffffffffffffffffffffffffff1681565b600a5481565b6000601e6003541161123557600160035461120a9190612ab2565b66038d7ea4c6800061121c9190612740565b6611c37937e0800061122e9190612ab2565b90506112ae565b6000667c58508723800090506000601e60016003546112549190612ab2565b61125e919061284e565b9050600061126d606483611f4e565b611278607d84611f4e565b61128291906127b1565b9050600081846112929190612740565b905060065481116112a357806112a7565b6006545b9450505050505b90565b60045481565b6000601e600354116112f15760035466038d7ea4c680006112d89190612740565b6611c37937e080006112ea9190612ab2565b905061135e565b6000667c58508723800090506000601e60035461130e919061284e565b9050600061131d606483611f4e565b611328607d84611f4e565b61133291906127b1565b9050600081846113429190612740565b905060065481116113535780611357565b6006545b9450505050505b90565b60008054906101000a900473ffffffffffffffffffffffffffffffffffffffff1673ffffffffffffffffffffffffffffffffffffffff163373ffffffffffffffffffffffffffffffffffffffff16146113e6576040517f82b4290000000000000000000000000000000000000000000000000000000000815260040160405180910390fd5b6000341115611427577f8ac50fcf3d00dee234d54465411e35ea967c640e5c9aad390f167af64c2a8e834760405161141e91906121b9565b60405180910390a15b60005b6007805490508110156115145760006007828154811061144d5761144c612882565b5b9060005260206000200160009054906101000a900473ffffffffffffffffffffffffffffffffffffffff169050600860008273ffffffffffffffffffffffffffffffffffffffff1673ffffffffffffffffffffffffffffffffffffffff16815260200190815260200160002060009055600960008273ffffffffffffffffffffffffffffffffffffffff1673ffffffffffffffffffffffffffffffffffffffff1681526020019081526020016000206000905550808061150c9061291d565b91505061142a565b50600760006115239190611fea565b6000600b60006101000a81548160ff021916908315150217905550600060038190555060008054906101000a900473ffffffffffffffffffffffffffffffffffffffff16600160006101000a81548173ffffffffffffffffffffffffffffffffffffffff021916908373ffffffffffffffffffffffffffffffffffffffff16021790555042600a819055507f389a851c813bc96190bd02f7aa164331a438c2275cb1083cd03931f8a526e58f600a546040516115df91906121b9565b60405180910390a17f50ad08f58a27f2851d7e3a1b3a6a46b290f2ce677e99642d30ff639721e77790600a5460405161161891906121b9565b60405180910390a17f097f38bd15981ec437e7e5f59ce1ea94c4c0520fbbfaeebde079ca4ba5a771fc600a5460405161165191906121b9565b60405180910390a17f8ac50fcf3d00dee234d54465411e35ea967c640e5c9aad390f167af64c2a8e834760405161168891906121b9565b60405180910390a1565b60065481565b600160009054906101000a900473ffffffffffffffffffffffffffffffffffffffff1681565b6060600780548060200260200160405190810160405280929190818152602001828054801561174257602002820191906000526020600020905b8160009054906101000a900473ffffffffffffffffffffffffffffffffffffffff1673ffffffffffffffffffffffffffffffffffffffff16815260200190600101908083116116f8575b5050505050905090565b600554600a5461175c9190612ab2565b421115611795576040517fb76ca43d00000000000000000000000000000000000000000000000000000000815260040160405180910390fd5b600b60009054906101000a900460ff16156117dc576040517fb76ca43d00000000000000000000000000000000000000000000000000000000815260040160405180910390fd5b60008054906101000a900473ffffffffffffffffffffffffffffffffffffffff1673ffffffffffffffffffffffffffffffffffffffff163373ffffffffffffffffffffffffffffffffffffffff1603611861576040517f82b4290000000000000000000000000000000000000000000000000000000000815260040160405180910390fd5b600061186b610f87565b036118a2576040517fb76ca43d00000000000000000000000000000000000000000000000000000000815260040160405180910390fd5b60008251036118dd576040517f19e4cb1000000000000000000000000000000000000000000000000000000000815260040160405180910390fd5b600454600860003373ffffffffffffffffffffffffffffffffffffffff1673ffffffffffffffffffffffffffffffffffffffff1681526020019081526020016000205410611964576004546040517fd688341100000000000000000000000000000000000000000000000000000000815260040161195b91906121b9565b60405180910390fd5b600061196e6112b7565b9050803410156119b75780346040517f2f5983220000000000000000000000000000000000000000000000000000000081526004016119ae929190612965565b60405180910390fd5b600060646050346119c89190612740565b6119d291906127b1565b9050600081346119e2919061284e565b905060008060009054906101000a900473ffffffffffffffffffffffffffffffffffffffff1673ffffffffffffffffffffffffffffffffffffffff1682604051611a2b906125b8565b60006040518083038185875af1925050503d8060008114611a68576040519150601f19603f3d011682016040523d82523d6000602084013e611a6d565b606091505b5050905080611ab1576040517f08c379a0000000000000000000000000000000000000000000000000000000008152600401611aa890612b32565b60405180910390fd5b6000600860003373ffffffffffffffffffffffffffffffffffffffff1673ffffffffffffffffffffffffffffffffffffffff1681526020019081526020016000205403611b74576007339080600181540180825580915050600190039060005260206000200160009091909190916101000a81548173ffffffffffffffffffffffffffffffffffffffff021916908373ffffffffffffffffffffffffffffffffffffffff16021790555060026000815480929190611b6e9061291d565b91905055505b600860003373ffffffffffffffffffffffffffffffffffffffff1673ffffffffffffffffffffffffffffffffffffffff1681526020019081526020016000206000815480929190611bc49061291d565b919050555083600960003373ffffffffffffffffffffffffffffffffffffffff1673ffffffffffffffffffffffffffffffffffffffff1681526020019081526020016000206000828254611c189190612ab2565b9250508190555033600160006101000a81548173ffffffffffffffffffffffffffffffffffffffff021916908373ffffffffffffffffffffffffffffffffffffffff16021790555060036000815480929190611c739061291d565b919050555042600a819055503373ffffffffffffffffffffffffffffffffffffffff167f484cf9a2b144a79d50ad4a6c852c88d377be171af3edce6f3fa94a6718f1d14734874342604051611ccb9493929190612bc0565b60405180910390a27f1d10a40d09ae13f42d8a863f4881bb8c7fc588a0a0d8ad00dd7c4ef77d23ce42611cfc6111ef565b600354604051611d0d929190612965565b60405180910390a17f8ac50fcf3d00dee234d54465411e35ea967c640e5c9aad390f167af64c2a8e83611d3e610f87565b604051611d4b91906121b9565b60405180910390a17f097f38bd15981ec437e7e5f59ce1ea94c4c0520fbbfaeebde079ca4ba5a771fc600a54604051611d8491906121b9565b60405180910390a17fed8d1315e9eb6ebe7c3f2c6c84931e9e72f34c13c09eda0392c8e704d4dc199f600354604051611dbd91906121b9565b60405180910390a17ffa0270d8853acb2923387f25a5030a0a0117a0f27dc518d436d86c3548723924600254604051611df691906121b9565b60405180910390a1505050505050565b60078181548110611e1657600080fd5b906000526020600020016000915054906101000a900473ffffffffffffffffffffffffffffffffffffffff1681565b60008054906101000a900473ffffffffffffffffffffffffffffffffffffffff1673ffffffffffffffffffffffffffffffffffffffff163373ffffffffffffffffffffffffffffffffffffffff1614611eca576040517f82b4290000000000000000000000000000000000000000000000000000000000815260040160405180910390fd5b60008111611f0d576040517f08c379a0000000000000000000000000000000000000000000000000000000008152600401611f0490612c7e565b60405180910390fd5b806005819055507f4c1644e685edccbaa71de19cc8947d453fbe78ba8ee874764a69f0f4fd32c1fc81604051611f4391906121b9565b60405180910390a150565b6000806001905060005b83811015611fde578482611f6c9190612740565b9150847fffffffffffffffffffffffffffffffffffffffffffffffffffffffffffffffff611f9a91906127b1565b821115611fcb577fffffffffffffffffffffffffffffffffffffffffffffffffffffffffffffffff92505050611fe4565b8080611fd69061291d565b915050611f58565b50809150505b92915050565b5080546000825590600052602060002090810190612008919061200b565b50565b5b8082111561202457600081600090555060010161200c565b5090565b600082825260208201905092915050565b7f46616c6c6261636b2066756e6374696f6e206973206e6f7420696d706c656d6560008201527f6e74656400000000000000000000000000000000000000000000000000000000602082015250565b6000612095602483612028565b91506120a082612039565b604082019050919050565b600060208201905081810360008301526120c481612088565b9050919050565b60008115159050919050565b6120e0816120cb565b82525050565b60006020820190506120fb60008301846120d7565b92915050565b6000604051905090565b600080fd5b600080fd5b600073ffffffffffffffffffffffffffffffffffffffff82169050919050565b600061214082612115565b9050919050565b61215081612135565b811461215b57600080fd5b50565b60008135905061216d81612147565b92915050565b6000602082840312156121895761218861210b565b5b60006121978482850161215e565b91505092915050565b6000819050919050565b6121b3816121a0565b82525050565b60006020820190506121ce60008301846121aa565b92915050565b6121dd816121a0565b81146121e857600080fd5b50565b6000813590506121fa816121d4565b92915050565b6000602082840312156122165761221561210b565b5b6000612224848285016121eb565b91505092915050565b61223681612135565b82525050565b6000602082019050612251600083018461222d565b92915050565b600081519050919050565b600082825260208201905092915050565b6000819050602082019050919050565b61228c81612135565b82525050565b600061229e8383612283565b60208301905092915050565b6000602082019050919050565b60006122c282612257565b6122cc8185612262565b93506122d783612273565b8060005b838110156123085781516122ef8882612292565b97506122fa836122aa565b9250506001810190506122db565b5085935050505092915050565b6000602082019050818103600083015261232f81846122b7565b905092915050565b600080fd5b600080fd5b6000601f19601f8301169050919050565b7f4e487b7100000000000000000000000000000000000000000000000000000000600052604160045260246000fd5b61238a82612341565b810181811067ffffffffffffffff821117156123a9576123a8612352565b5b80604052505050565b60006123bc612101565b90506123c88282612381565b919050565b600067ffffffffffffffff8211156123e8576123e7612352565b5b6123f182612341565b9050602081019050919050565b82818337600083830152505050565b600061242061241b846123cd565b6123b2565b90508281526020810184848401111561243c5761243b61233c565b5b6124478482856123fe565b509392505050565b600082601f83011261246457612463612337565b5b813561247484826020860161240d565b91505092915050565b600080604083850312156124945761249361210b565b5b600083013567ffffffffffffffff8111156124b2576124b1612110565b5b6124be8582860161244f565b925050602083013567ffffffffffffffff8111156124df576124de612110565b5b6124eb8582860161244f565b9150509250929050565b7f4e6f2066756e647320617661696c61626c6520666f722077697468647261776160008201527f6c00000000000000000000000000000000000000000000000000000000000000602082015250565b6000612551602183612028565b915061255c826124f5565b604082019050919050565b6000602082019050818103600083015261258081612544565b9050919050565b600081905092915050565b50565b60006125a2600083612587565b91506125ad82612592565b600082019050919050565b60006125c382612595565b9150819050919050565b7f5769746864726177616c206661696c6564000000000000000000000000000000600082015250565b6000612603601183612028565b915061260e826125cd565b602082019050919050565b60006020820190508181036000830152612632816125f6565b9050919050565b7f5472616e7366657220746f20726563697069656e74206661696c656400000000600082015250565b600061266f601c83612028565b915061267a82612639565b602082019050919050565b6000602082019050818103600083015261269e81612662565b9050919050565b7f47616d652068617320616c726561647920656e64656400000000000000000000600082015250565b60006126db601683612028565b91506126e6826126a5565b602082019050919050565b6000602082019050818103600083015261270a816126ce565b9050919050565b7f4e487b7100000000000000000000000000000000000000000000000000000000600052601160045260246000fd5b600061274b826121a0565b9150612756836121a0565b9250828202612764816121a0565b9150828204841483151761277b5761277a612711565b5b5092915050565b7f4e487b7100000000000000000000000000000000000000000000000000000000600052601260045260246000fd5b60006127bc826121a0565b91506127c7836121a0565b9250826127d7576127d6612782565b5b828204905092915050565b7f5472616e7366657220746f206c61737420706c61796572206661696c65640000600082015250565b6000612818601e83612028565b9150612823826127e2565b602082019050919050565b600060208201905081810360008301526128478161280b565b9050919050565b6000612859826121a0565b9150612864836121a0565b925082820390508181111561287c5761287b612711565b5b92915050565b7f4e487b7100000000000000000000000000000000000000000000000000000000600052603260045260246000fd5b7f506c6179657220726577617264207472616e73666572206661696c6564000000600082015250565b60006128e7601d83612028565b91506128f2826128b1565b602082019050919050565b60006020820190508181036000830152612916816128da565b9050919050565b6000612928826121a0565b91507fffffffffffffffffffffffffffffffffffffffffffffffffffffffffffffffff820361295a57612959612711565b5b600182019050919050565b600060408201905061297a60008301856121aa565b61298760208301846121aa565b9392505050565b7f4d41585f51554552494553206d7573742062652067726561746572207468616e60008201527f2030000000000000000000000000000000000000000000000000000000000000602082015250565b60006129ea602283612028565b91506129f58261298e565b604082019050919050565b60006020820190508181036000830152612a19816129dd565b9050919050565b7f4d41585f51554552595f464545206d757374206265206772656174657220746860008201527f616e203000000000000000000000000000000000000000000000000000000000602082015250565b6000612a7c602483612028565b9150612a8782612a20565b604082019050919050565b60006020820190508181036000830152612aab81612a6f565b9050919050565b6000612abd826121a0565b9150612ac8836121a0565b9250828201905080821115612ae057612adf612711565b5b92915050565b7f4f776e6572207472616e73666572206661696c65640000000000000000000000600082015250565b6000612b1c601583612028565b9150612b2782612ae6565b602082019050919050565b60006020820190508181036000830152612b4b81612b0f565b9050919050565b600081519050919050565b60005b83811015612b7b578082015181840152602081019050612b60565b60008484015250505050565b6000612b9282612b52565b612b9c8185612028565b9350612bac818560208601612b5d565b612bb581612341565b840191505092915050565b6000608082019050612bd560008301876121aa565b8181036020830152612be78186612b87565b9050612bf660408301856121aa565b612c0360608301846121aa565b95945050505050565b7f49444c455f54494d455f4c494d4954206d75737420626520677265617465722060008201527f7468616e20300000000000000000000000000000000000000000000000000000602082015250565b6000612c68602683612028565b9150612c7382612c0c565b604082019050919050565b60006020820190508181036000830152612c9781612c5b565b905091905056fea2646970667358221220ab137f761305ee90891ad5399ef46d1eda2467c9dbd454422d9707347dce020b64736f6c63430008120033",
  "linkReferences": {},
  "deployedLinkReferences": {}
}