{
  "_format": "hh-sol-artifact-1",
  "contractName": "LittlefingerGame",
  "sourceName": "contracts/LittlefingerGame.sol",
  "abi": [
    {
      "inputs": [],
      "stateMutability": "payable",
      "type": "constructor"
    },
    {
      "inputs": [],
      "name": "GameExhausted",
      "type": "error"
    },
    {
      "inputs": [
        {
          "internalType": "uint256",
          "name": "requiredFee",
          "type": "uint256"
        },
        {
          "internalType": "uint256",
          "name": "sentFee",
          "type": "uint256"
        }
      ],
      "name": "InsufficientQueryFee",
      "type": "error"
    },
    {
      "inputs": [],
      "name": "InvalidQuery",
      "type": "error"
    },
    {
      "inputs": [],
      "name": "InvalidRecipient",
      "type": "error"
    },
    {
      "inputs": [
        {
          "internalType": "uint256",
          "name": "maxQueries",
          "type": "uint256"
        }
      ],
      "name": "MaxQueriesReached",
      "type": "error"
    },
    {
      "inputs": [],
      "name": "Unauthorized",
      "type": "error"
    },
    {
      "anonymous": false,
      "inputs": [
        {
          "indexed": false,
          "internalType": "uint256",
          "name": "prizePool",
          "type": "uint256"
        }
      ],
      "name": "CurrentPrizePool",
      "type": "event"
    },
    {
      "anonymous": false,
      "inputs": [
        {
          "indexed": false,
          "internalType": "uint256",
          "name": "currentTimestamp",
          "type": "uint256"
        },
        {
          "indexed": false,
          "internalType": "uint256",
          "name": "lastInteraction",
          "type": "uint256"
        }
      ],
      "name": "GameEnded",
      "type": "event"
    },
    {
      "anonymous": false,
      "inputs": [
        {
          "indexed": false,
          "internalType": "uint256",
          "name": "lastInteraction",
          "type": "uint256"
        }
      ],
      "name": "GameIdleSince",
      "type": "event"
    },
    {
      "anonymous": false,
      "inputs": [
        {
          "indexed": false,
          "internalType": "uint256",
          "name": "timestamp",
          "type": "uint256"
        }
      ],
      "name": "GameResetByOwner",
      "type": "event"
    },
    {
      "anonymous": false,
      "inputs": [
        {
          "indexed": false,
          "internalType": "uint256",
          "name": "timestamp",
          "type": "uint256"
        }
      ],
      "name": "GameStarted",
      "type": "event"
    },
    {
      "anonymous": false,
      "inputs": [
        {
          "indexed": false,
          "internalType": "uint256",
          "name": "newIdleTimeLimit",
          "type": "uint256"
        }
      ],
      "name": "IdleTimeLimitUpdated",
      "type": "event"
    },
    {
      "anonymous": false,
      "inputs": [
        {
          "indexed": true,
          "internalType": "address",
          "name": "player",
          "type": "address"
        },
        {
          "indexed": false,
          "internalType": "uint256",
          "name": "amount",
          "type": "uint256"
        }
      ],
      "name": "LastPlayerRewardAfterGameExhaustion",
      "type": "event"
    },
    {
      "anonymous": false,
      "inputs": [
        {
          "indexed": false,
          "internalType": "uint256",
          "name": "newMaxQueries",
          "type": "uint256"
        }
      ],
      "name": "MaxQueriesUpdated",
      "type": "event"
    },
    {
      "anonymous": false,
      "inputs": [
        {
          "indexed": false,
          "internalType": "uint256",
          "name": "newMaxQueryFee",
          "type": "uint256"
        }
      ],
      "name": "MaxQueryFeeUpdated",
      "type": "event"
    },
    {
      "anonymous": false,
      "inputs": [
        {
          "indexed": false,
          "internalType": "uint256",
          "name": "nextFee",
          "type": "uint256"
        },
        {
          "indexed": false,
          "internalType": "uint256",
          "name": "currentCount",
          "type": "uint256"
        }
      ],
      "name": "NextQueryFee",
      "type": "event"
    },
    {
      "anonymous": false,
      "inputs": [
        {
          "indexed": true,
          "internalType": "address",
          "name": "winner",
          "type": "address"
        },
        {
          "indexed": false,
          "internalType": "uint256",
          "name": "amount",
          "type": "uint256"
        }
      ],
      "name": "PrizeTransferApproved",
      "type": "event"
    },
    {
      "anonymous": false,
      "inputs": [
        {
          "indexed": true,
          "internalType": "address",
          "name": "player",
          "type": "address"
        },
        {
          "indexed": false,
          "internalType": "uint256",
          "name": "feeAmount",
          "type": "uint256"
        },
        {
          "indexed": false,
          "internalType": "string",
          "name": "queryID",
          "type": "string"
        },
        {
          "indexed": false,
          "internalType": "uint256",
          "name": "blockNumber",
          "type": "uint256"
        },
        {
          "indexed": false,
          "internalType": "uint256",
          "name": "timestamp",
          "type": "uint256"
        }
      ],
      "name": "QueryFeePaid",
      "type": "event"
    },
    {
      "anonymous": false,
      "inputs": [
        {
          "indexed": false,
          "internalType": "uint256",
          "name": "totalAmount",
          "type": "uint256"
        }
      ],
      "name": "RestOfThePlayersRewardAfterGameExhaustion",
      "type": "event"
    },
    {
      "anonymous": false,
      "inputs": [
        {
          "indexed": true,
          "internalType": "address",
          "name": "owner",
          "type": "address"
        },
        {
          "indexed": false,
          "internalType": "uint256",
          "name": "amount",
          "type": "uint256"
        }
      ],
      "name": "Withdrawal",
      "type": "event"
    },
    {
      "stateMutability": "payable",
      "type": "fallback"
    },
    {
      "inputs": [],
      "name": "IDLE_TIME_LIMIT",
      "outputs": [
        {
          "internalType": "uint256",
          "name": "",
          "type": "uint256"
        }
      ],
      "stateMutability": "view",
      "type": "function"
    },
    {
      "inputs": [],
      "name": "MAX_QUERIES",
      "outputs": [
        {
          "internalType": "uint256",
          "name": "",
          "type": "uint256"
        }
      ],
      "stateMutability": "view",
      "type": "function"
    },
    {
      "inputs": [],
      "name": "MAX_QUERY_FEE",
      "outputs": [
        {
          "internalType": "uint256",
          "name": "",
          "type": "uint256"
        }
      ],
      "stateMutability": "view",
      "type": "function"
    },
    {
      "inputs": [
        {
          "internalType": "address",
          "name": "recipient",
          "type": "address"
        }
      ],
      "name": "approveTransfer",
      "outputs": [],
      "stateMutability": "nonpayable",
      "type": "function"
    },
    {
      "inputs": [],
      "name": "calculateNextQueryFee",
      "outputs": [
        {
          "internalType": "uint256",
          "name": "",
          "type": "uint256"
        }
      ],
      "stateMutability": "view",
      "type": "function"
    },
    {
      "inputs": [],
      "name": "calculateQueryFee",
      "outputs": [
        {
          "internalType": "uint256",
          "name": "",
          "type": "uint256"
        }
      ],
      "stateMutability": "view",
      "type": "function"
    },
    {
      "inputs": [],
      "name": "endGameDueToExhaustion",
      "outputs": [],
      "stateMutability": "nonpayable",
      "type": "function"
    },
    {
      "inputs": [],
      "name": "gameEnded",
      "outputs": [
        {
          "internalType": "bool",
          "name": "",
          "type": "bool"
        }
      ],
      "stateMutability": "view",
      "type": "function"
    },
    {
      "inputs": [],
      "name": "getAllPlayers",
      "outputs": [
        {
          "internalType": "address[]",
          "name": "",
          "type": "address[]"
        }
      ],
      "stateMutability": "view",
      "type": "function"
    },
    {
      "inputs": [],
      "name": "globalQueryCount",
      "outputs": [
        {
          "internalType": "uint256",
          "name": "",
          "type": "uint256"
        }
      ],
      "stateMutability": "view",
      "type": "function"
    },
    {
      "inputs": [],
      "name": "lastInteraction",
      "outputs": [
        {
          "internalType": "uint256",
          "name": "",
          "type": "uint256"
        }
      ],
      "stateMutability": "view",
      "type": "function"
    },
    {
      "inputs": [],
      "name": "lastPlayer",
      "outputs": [
        {
          "internalType": "address",
          "name": "",
          "type": "address"
        }
      ],
      "stateMutability": "view",
      "type": "function"
    },
    {
      "inputs": [],
      "name": "owner",
      "outputs": [
        {
          "internalType": "address",
          "name": "",
          "type": "address"
        }
      ],
      "stateMutability": "view",
      "type": "function"
    },
    {
      "inputs": [
        {
          "internalType": "address",
          "name": "",
          "type": "address"
        }
      ],
      "name": "playerQueryCount",
      "outputs": [
        {
          "internalType": "uint256",
          "name": "",
          "type": "uint256"
        }
      ],
      "stateMutability": "view",
      "type": "function"
    },
    {
      "inputs": [
        {
          "internalType": "address",
          "name": "",
          "type": "address"
        }
      ],
      "name": "playerTotalFee",
      "outputs": [
        {
          "internalType": "uint256",
          "name": "",
          "type": "uint256"
        }
      ],
      "stateMutability": "view",
      "type": "function"
    },
    {
      "inputs": [
        {
          "internalType": "uint256",
          "name": "",
          "type": "uint256"
        }
      ],
      "name": "players",
      "outputs": [
        {
          "internalType": "address",
          "name": "",
          "type": "address"
        }
      ],
      "stateMutability": "view",
      "type": "function"
    },
    {
      "inputs": [],
      "name": "prizePool",
      "outputs": [
        {
          "internalType": "uint256",
          "name": "",
          "type": "uint256"
        }
      ],
      "stateMutability": "view",
      "type": "function"
    },
    {
      "inputs": [],
      "name": "resetGame",
      "outputs": [],
      "stateMutability": "payable",
      "type": "function"
    },
    {
      "inputs": [
        {
          "internalType": "uint256",
          "name": "newIdleTimeLimit",
          "type": "uint256"
        }
      ],
      "name": "setIdleTimeLimit",
      "outputs": [],
      "stateMutability": "nonpayable",
      "type": "function"
    },
    {
      "inputs": [
        {
          "internalType": "uint256",
          "name": "newMaxQueries",
          "type": "uint256"
        }
      ],
      "name": "setMaxQueries",
      "outputs": [],
      "stateMutability": "nonpayable",
      "type": "function"
    },
    {
      "inputs": [
        {
          "internalType": "uint256",
          "name": "newMaxQueryFee",
          "type": "uint256"
        }
      ],
      "name": "setMaxQueryFee",
      "outputs": [],
      "stateMutability": "nonpayable",
      "type": "function"
    },
    {
      "inputs": [
        {
          "internalType": "string",
          "name": "query",
          "type": "string"
        },
        {
          "internalType": "string",
          "name": "queryID",
          "type": "string"
        }
      ],
      "name": "submitQuery",
      "outputs": [],
      "stateMutability": "payable",
      "type": "function"
    },
    {
      "inputs": [],
      "name": "withdraw",
      "outputs": [],
      "stateMutability": "nonpayable",
      "type": "function"
    },
    {
      "stateMutability": "payable",
      "type": "receive"
    }
  ],
  "bytecode": "0x6080604052600060025561138860035562093a80600455670de0b6b3a76400006005556000600a60006101000a81548160ff021916908315150217905550336000806101000a81548173ffffffffffffffffffffffffffffffffffffffff021916908373ffffffffffffffffffffffffffffffffffffffff16021790555060003411620000c3576040517f08c379a0000000000000000000000000000000000000000000000000000000008152600401620000ba90620001ad565b60405180910390fd5b4260098190555060008054906101000a900473ffffffffffffffffffffffffffffffffffffffff16600160006101000a81548173ffffffffffffffffffffffffffffffffffffffff021916908373ffffffffffffffffffffffffffffffffffffffff1602179055506000600a60006101000a81548160ff021916908315150217905550620001cf565b600082825260208201905092915050565b7f496e697469616c2066756e64696e672072657175697265640000000000000000600082015250565b6000620001956018836200014c565b9150620001a2826200015d565b602082019050919050565b60006020820190508181036000830152620001c88162000186565b9050919050565b612cdd80620001df6000396000f3fe6080604052600436106101445760003560e01c80638da5cb5b116100b6578063ce4064e71161006f578063ce4064e714610436578063e3450e1314610461578063efa1c4821461048c578063f6711fbe146104b7578063f71d96cb146104d3578063fc442e3a146105105761014b565b80638da5cb5b146103555780638f71a265146103805780639ae5bb0e146103ab5780639b3e156a146103d6578063b3dbf4b414610401578063bb4722191461042c5761014b565b80634edbdc8a116101085780634edbdc8a14610245578063719ce73e14610270578063768de1db1461029b57806378d4b4df146102c45780637fe6938f14610301578063886e20341461032c5761014b565b80632f6fe396146101865780633ccfd60b146101b15780634355b9d2146101c85780634c9fb2bf146101f15780634d7c49e9146102085761014b565b3661014b57005b6040517f08c379a000000000000000000000000000000000000000000000000000000000815260040161017d90611f36565b60405180910390fd5b34801561019257600080fd5b5061019b610539565b6040516101a89190611f71565b60405180910390f35b3480156101bd57600080fd5b506101c661054c565b005b3480156101d457600080fd5b506101ef60048036038101906101ea9190611ffe565b610758565b005b3480156101fd57600080fd5b5061020661098f565b005b34801561021457600080fd5b5061022f600480360381019061022a9190611ffe565b610efc565b60405161023c9190612044565b60405180910390f35b34801561025157600080fd5b5061025a610f14565b6040516102679190612044565b60405180910390f35b34801561027c57600080fd5b50610285610f1a565b6040516102929190612044565b60405180910390f35b3480156102a757600080fd5b506102c260048036038101906102bd919061208b565b610f22565b005b3480156102d057600080fd5b506102eb60048036038101906102e69190611ffe565b61102b565b6040516102f89190612044565b60405180910390f35b34801561030d57600080fd5b50610316611043565b6040516103239190612044565b60405180910390f35b34801561033857600080fd5b50610353600480360381019061034e919061208b565b611049565b005b34801561036157600080fd5b5061036a611152565b60405161037791906120c7565b60405180910390f35b34801561038c57600080fd5b50610395611176565b6040516103a29190612044565b60405180910390f35b3480156103b757600080fd5b506103c061117c565b6040516103cd9190612044565b60405180910390f35b3480156103e257600080fd5b506103eb611256565b6040516103f89190612044565b60405180910390f35b34801561040d57600080fd5b5061041661125c565b6040516104239190612044565b60405180910390f35b610434611312565b005b34801561044257600080fd5b5061044b611643565b6040516104589190612044565b60405180910390f35b34801561046d57600080fd5b50610476611649565b60405161048391906120c7565b60405180910390f35b34801561049857600080fd5b506104a161166f565b6040516104ae91906121a0565b60405180910390f35b6104d160048036038101906104cc9190612308565b6116fd565b005b3480156104df57600080fd5b506104fa60048036038101906104f5919061208b565b611d2d565b60405161050791906120c7565b60405180910390f35b34801561051c57600080fd5b506105376004803603810190610532919061208b565b611d6c565b005b600a60009054906101000a900460ff1681565b60008054906101000a900473ffffffffffffffffffffffffffffffffffffffff1673ffffffffffffffffffffffffffffffffffffffff163373ffffffffffffffffffffffffffffffffffffffff16146105d1576040517f82b4290000000000000000000000000000000000000000000000000000000000815260040160405180910390fd5b600047905060008111610619576040517f08c379a0000000000000000000000000000000000000000000000000000000008152600401610610906123f2565b60405180910390fd5b60008060009054906101000a900473ffffffffffffffffffffffffffffffffffffffff1673ffffffffffffffffffffffffffffffffffffffff168260405161066090612443565b60006040518083038185875af1925050503d806000811461069d576040519150601f19603f3d011682016040523d82523d6000602084013e6106a2565b606091505b50509050806106e6576040517f08c379a00000000000000000000000000000000000000000000000000000000081526004016106dd906124a4565b60405180910390fd5b60008054906101000a900473ffffffffffffffffffffffffffffffffffffffff1673ffffffffffffffffffffffffffffffffffffffff167f7fcf532c15f0a6db0bd6d0e038bea71d30d808c7d98cb3bf7268a95bf5081b658360405161074c9190612044565b60405180910390a25050565b60008054906101000a900473ffffffffffffffffffffffffffffffffffffffff1673ffffffffffffffffffffffffffffffffffffffff163373ffffffffffffffffffffffffffffffffffffffff16146107dd576040517f82b4290000000000000000000000000000000000000000000000000000000000815260040160405180910390fd5b60006107e7610f1a565b0361081e576040517fb76ca43d00000000000000000000000000000000000000000000000000000000815260040160405180910390fd5b600073ffffffffffffffffffffffffffffffffffffffff168173ffffffffffffffffffffffffffffffffffffffff1603610884576040517f9c8d2cd200000000000000000000000000000000000000000000000000000000815260040160405180910390fd5b600061088e610f1a565b905060008273ffffffffffffffffffffffffffffffffffffffff16826040516108b690612443565b60006040518083038185875af1925050503d80600081146108f3576040519150601f19603f3d011682016040523d82523d6000602084013e6108f8565b606091505b505090508061093c576040517f08c379a000000000000000000000000000000000000000000000000000000000815260040161093390612510565b60405180910390fd5b8273ffffffffffffffffffffffffffffffffffffffff167f6fa1ae3f51a194d857cbe6cb9459898c29b220c48d53dc81d2d79adea5702b56836040516109829190612044565b60405180910390a2505050565b60008054906101000a900473ffffffffffffffffffffffffffffffffffffffff1673ffffffffffffffffffffffffffffffffffffffff163373ffffffffffffffffffffffffffffffffffffffff1614610a14576040517f82b4290000000000000000000000000000000000000000000000000000000000815260040160405180910390fd5b600a60009054906101000a900460ff1615610a64576040517f08c379a0000000000000000000000000000000000000000000000000000000008152600401610a5b9061257c565b60405180910390fd5b6000610a6e610f1a565b03610aa5576040517fb76ca43d00000000000000000000000000000000000000000000000000000000815260040160405180910390fd5b600073ffffffffffffffffffffffffffffffffffffffff16600160009054906101000a900473ffffffffffffffffffffffffffffffffffffffff1673ffffffffffffffffffffffffffffffffffffffff1603610b2d576040517f9c8d2cd200000000000000000000000000000000000000000000000000000000815260040160405180910390fd5b6000610b37610f1a565b905060006064600a83610b4a91906125cb565b610b54919061263c565b90506000600160009054906101000a900473ffffffffffffffffffffffffffffffffffffffff1673ffffffffffffffffffffffffffffffffffffffff1682604051610b9e90612443565b60006040518083038185875af1925050503d8060008114610bdb576040519150601f19603f3d011682016040523d82523d6000602084013e610be0565b606091505b5050905080610c24576040517f08c379a0000000000000000000000000000000000000000000000000000000008152600401610c1b906126b9565b60405180910390fd5b600160009054906101000a900473ffffffffffffffffffffffffffffffffffffffff1673ffffffffffffffffffffffffffffffffffffffff167f9f8a5abfe9d79cc8b97238355d25de4797d9b9153383b831e776735b38d4cdb283604051610c8c9190612044565b60405180910390a260008284610ca291906126d9565b905060006002541115610e2b5760005b600680549050811015610e2957600060068281548110610cd557610cd461270d565b5b9060005260206000200160009054906101000a900473ffffffffffffffffffffffffffffffffffffffff1690506000600254600760008473ffffffffffffffffffffffffffffffffffffffff1673ffffffffffffffffffffffffffffffffffffffff1681526020019081526020016000205485610d5291906125cb565b610d5c919061263c565b90506000811115610e14578173ffffffffffffffffffffffffffffffffffffffff1681604051610d8b90612443565b60006040518083038185875af1925050503d8060008114610dc8576040519150601f19603f3d011682016040523d82523d6000602084013e610dcd565b606091505b50508095505084610e13576040517f08c379a0000000000000000000000000000000000000000000000000000000008152600401610e0a90612788565b60405180910390fd5b5b50508080610e21906127a8565b915050610cb2565b505b7f7d26ae2e18a5cd23971453551df3a6cecfe10ac466cf513431fde2467840ed7f81604051610e5a9190612044565b60405180910390a16001600a60006101000a81548160ff0219169083151502179055507f4c4660db760944215f41e957066d756ad5fd0eed1b4640632322eb06f77b034d42600954604051610eb09291906127f0565b60405180910390a17f8ac50fcf3d00dee234d54465411e35ea967c640e5c9aad390f167af64c2a8e83610ee1610f1a565b604051610eee9190612044565b60405180910390a150505050565b60076020528060005260406000206000915090505481565b60025481565b600047905090565b60008054906101000a900473ffffffffffffffffffffffffffffffffffffffff1673ffffffffffffffffffffffffffffffffffffffff163373ffffffffffffffffffffffffffffffffffffffff1614610fa7576040517f82b4290000000000000000000000000000000000000000000000000000000000815260040160405180910390fd5b60008111610fea576040517f08c379a0000000000000000000000000000000000000000000000000000000008152600401610fe19061288b565b60405180910390fd5b806003819055507ff11fddb6cfb2f6a89b6fa411be3b1fe813a389446b2c7ebf85fca9d0e08d092c816040516110209190612044565b60405180910390a150565b60086020528060005260406000206000915090505481565b60045481565b60008054906101000a900473ffffffffffffffffffffffffffffffffffffffff1673ffffffffffffffffffffffffffffffffffffffff163373ffffffffffffffffffffffffffffffffffffffff16146110ce576040517f82b4290000000000000000000000000000000000000000000000000000000000815260040160405180910390fd5b60008111611111576040517f08c379a00000000000000000000000000000000000000000000000000000000081526004016111089061291d565b60405180910390fd5b806005819055507f93d2574a7b2675112bb4a34c59c274079e3087894d7f15a15641d450a9c97acb816040516111479190612044565b60405180910390a150565b60008054906101000a900473ffffffffffffffffffffffffffffffffffffffff1681565b60095481565b6000601e600254116111c2576001600254611197919061293d565b66038d7ea4c680006111a991906125cb565b6611c37937e080006111bb919061293d565b9050611253565b6000667c58508723800090506000601e60016002546111e1919061293d565b6111eb91906126d9565b60646111f79190612aa4565b601e6001600254611208919061293d565b61121291906126d9565b607d61121e9190612aa4565b611228919061263c565b90506000818361123891906125cb565b90506005548111611249578061124d565b6005545b93505050505b90565b60035481565b6000601e600254116112965760025466038d7ea4c6800061127d91906125cb565b6611c37937e0800061128f919061293d565b905061130f565b6000667c58508723800090506000601e6002546112b391906126d9565b60646112bf9190612aa4565b601e6002546112ce91906126d9565b607d6112da9190612aa4565b6112e4919061263c565b9050600081836112f491906125cb565b905060055481116113055780611309565b6005545b93505050505b90565b60008054906101000a900473ffffffffffffffffffffffffffffffffffffffff1673ffffffffffffffffffffffffffffffffffffffff163373ffffffffffffffffffffffffffffffffffffffff1614611397576040517f82b4290000000000000000000000000000000000000000000000000000000000815260040160405180910390fd5b60003411156113d8577f8ac50fcf3d00dee234d54465411e35ea967c640e5c9aad390f167af64c2a8e83476040516113cf9190612044565b60405180910390a15b60005b6006805490508110156114c5576000600682815481106113fe576113fd61270d565b5b9060005260206000200160009054906101000a900473ffffffffffffffffffffffffffffffffffffffff169050600760008273ffffffffffffffffffffffffffffffffffffffff1673ffffffffffffffffffffffffffffffffffffffff16815260200190815260200160002060009055600860008273ffffffffffffffffffffffffffffffffffffffff1673ffffffffffffffffffffffffffffffffffffffff168152602001908152602001600020600090555080806114bd906127a8565b9150506113db565b50600660006114d49190611e75565b6000600a60006101000a81548160ff021916908315150217905550600060028190555060008054906101000a900473ffffffffffffffffffffffffffffffffffffffff16600160006101000a81548173ffffffffffffffffffffffffffffffffffffffff021916908373ffffffffffffffffffffffffffffffffffffffff160217905550426009819055507f389a851c813bc96190bd02f7aa164331a438c2275cb1083cd03931f8a526e58f6009546040516115909190612044565b60405180910390a17f50ad08f58a27f2851d7e3a1b3a6a46b290f2ce677e99642d30ff639721e777906009546040516115c99190612044565b60405180910390a17f097f38bd15981ec437e7e5f59ce1ea94c4c0520fbbfaeebde079ca4ba5a771fc6009546040516116029190612044565b60405180910390a17f8ac50fcf3d00dee234d54465411e35ea967c640e5c9aad390f167af64c2a8e83476040516116399190612044565b60405180910390a1565b60055481565b600160009054906101000a900473ffffffffffffffffffffffffffffffffffffffff1681565b606060068054806020026020016040519081016040528092919081815260200182805480156116f357602002820191906000526020600020905b8160009054906101000a900473ffffffffffffffffffffffffffffffffffffffff1673ffffffffffffffffffffffffffffffffffffffff16815260200190600101908083116116a9575b5050505050905090565b60045460095461170d919061293d565b421115611746576040517fb76ca43d00000000000000000000000000000000000000000000000000000000815260040160405180910390fd5b600a60009054906101000a900460ff161561178d576040517fb76ca43d00000000000000000000000000000000000000000000000000000000815260040160405180910390fd5b60008054906101000a900473ffffffffffffffffffffffffffffffffffffffff1673ffffffffffffffffffffffffffffffffffffffff163373ffffffffffffffffffffffffffffffffffffffff1603611812576040517f82b4290000000000000000000000000000000000000000000000000000000000815260040160405180910390fd5b600061181c610f1a565b03611853576040517fb76ca43d00000000000000000000000000000000000000000000000000000000815260040160405180910390fd5b600082510361188e576040517f19e4cb1000000000000000000000000000000000000000000000000000000000815260040160405180910390fd5b600354600760003373ffffffffffffffffffffffffffffffffffffffff1673ffffffffffffffffffffffffffffffffffffffff1681526020019081526020016000205410611915576003546040517fd688341100000000000000000000000000000000000000000000000000000000815260040161190c9190612044565b60405180910390fd5b600061191f61125c565b9050803410156119685780346040517f2f59832200000000000000000000000000000000000000000000000000000000815260040161195f9291906127f0565b60405180910390fd5b6000606460503461197991906125cb565b611983919061263c565b90506000813461199391906126d9565b905060008060009054906101000a900473ffffffffffffffffffffffffffffffffffffffff1673ffffffffffffffffffffffffffffffffffffffff16826040516119dc90612443565b60006040518083038185875af1925050503d8060008114611a19576040519150601f19603f3d011682016040523d82523d6000602084013e611a1e565b606091505b5050905080611a62576040517f08c379a0000000000000000000000000000000000000000000000000000000008152600401611a5990612b3b565b60405180910390fd5b6000600760003373ffffffffffffffffffffffffffffffffffffffff1673ffffffffffffffffffffffffffffffffffffffff1681526020019081526020016000205403611b0d576006339080600181540180825580915050600190039060005260206000200160009091909190916101000a81548173ffffffffffffffffffffffffffffffffffffffff021916908373ffffffffffffffffffffffffffffffffffffffff1602179055505b600760003373ffffffffffffffffffffffffffffffffffffffff1673ffffffffffffffffffffffffffffffffffffffff1681526020019081526020016000206000815480929190611b5d906127a8565b919050555083600860003373ffffffffffffffffffffffffffffffffffffffff1673ffffffffffffffffffffffffffffffffffffffff1681526020019081526020016000206000828254611bb1919061293d565b9250508190555033600160006101000a81548173ffffffffffffffffffffffffffffffffffffffff021916908373ffffffffffffffffffffffffffffffffffffffff16021790555060026000815480929190611c0c906127a8565b9190505550426009819055503373ffffffffffffffffffffffffffffffffffffffff167f484cf9a2b144a79d50ad4a6c852c88d377be171af3edce6f3fa94a6718f1d14734874342604051611c649493929190612bc9565b60405180910390a27f1d10a40d09ae13f42d8a863f4881bb8c7fc588a0a0d8ad00dd7c4ef77d23ce42611c9561117c565b600254604051611ca69291906127f0565b60405180910390a17f8ac50fcf3d00dee234d54465411e35ea967c640e5c9aad390f167af64c2a8e83611cd7610f1a565b604051611ce49190612044565b60405180910390a17f097f38bd15981ec437e7e5f59ce1ea94c4c0520fbbfaeebde079ca4ba5a771fc600954604051611d1d9190612044565b60405180910390a1505050505050565b60068181548110611d3d57600080fd5b906000526020600020016000915054906101000a900473ffffffffffffffffffffffffffffffffffffffff1681565b60008054906101000a900473ffffffffffffffffffffffffffffffffffffffff1673ffffffffffffffffffffffffffffffffffffffff163373ffffffffffffffffffffffffffffffffffffffff1614611df1576040517f82b4290000000000000000000000000000000000000000000000000000000000815260040160405180910390fd5b60008111611e34576040517f08c379a0000000000000000000000000000000000000000000000000000000008152600401611e2b90612c87565b60405180910390fd5b806004819055507f4c1644e685edccbaa71de19cc8947d453fbe78ba8ee874764a69f0f4fd32c1fc81604051611e6a9190612044565b60405180910390a150565b5080546000825590600052602060002090810190611e939190611e96565b50565b5b80821115611eaf576000816000905550600101611e97565b5090565b600082825260208201905092915050565b7f46616c6c6261636b2066756e6374696f6e206973206e6f7420696d706c656d6560008201527f6e74656400000000000000000000000000000000000000000000000000000000602082015250565b6000611f20602483611eb3565b9150611f2b82611ec4565b604082019050919050565b60006020820190508181036000830152611f4f81611f13565b9050919050565b60008115159050919050565b611f6b81611f56565b82525050565b6000602082019050611f866000830184611f62565b92915050565b6000604051905090565b600080fd5b600080fd5b600073ffffffffffffffffffffffffffffffffffffffff82169050919050565b6000611fcb82611fa0565b9050919050565b611fdb81611fc0565b8114611fe657600080fd5b50565b600081359050611ff881611fd2565b92915050565b60006020828403121561201457612013611f96565b5b600061202284828501611fe9565b91505092915050565b6000819050919050565b61203e8161202b565b82525050565b60006020820190506120596000830184612035565b92915050565b6120688161202b565b811461207357600080fd5b50565b6000813590506120858161205f565b92915050565b6000602082840312156120a1576120a0611f96565b5b60006120af84828501612076565b91505092915050565b6120c181611fc0565b82525050565b60006020820190506120dc60008301846120b8565b92915050565b600081519050919050565b600082825260208201905092915050565b6000819050602082019050919050565b61211781611fc0565b82525050565b6000612129838361210e565b60208301905092915050565b6000602082019050919050565b600061214d826120e2565b61215781856120ed565b9350612162836120fe565b8060005b8381101561219357815161217a888261211d565b975061218583612135565b925050600181019050612166565b5085935050505092915050565b600060208201905081810360008301526121ba8184612142565b905092915050565b600080fd5b600080fd5b6000601f19601f8301169050919050565b7f4e487b7100000000000000000000000000000000000000000000000000000000600052604160045260246000fd5b612215826121cc565b810181811067ffffffffffffffff82111715612234576122336121dd565b5b80604052505050565b6000612247611f8c565b9050612253828261220c565b919050565b600067ffffffffffffffff821115612273576122726121dd565b5b61227c826121cc565b9050602081019050919050565b82818337600083830152505050565b60006122ab6122a684612258565b61223d565b9050828152602081018484840111156122c7576122c66121c7565b5b6122d2848285612289565b509392505050565b600082601f8301126122ef576122ee6121c2565b5b81356122ff848260208601612298565b91505092915050565b6000806040838503121561231f5761231e611f96565b5b600083013567ffffffffffffffff81111561233d5761233c611f9b565b5b612349858286016122da565b925050602083013567ffffffffffffffff81111561236a57612369611f9b565b5b612376858286016122da565b9150509250929050565b7f4e6f2066756e647320617661696c61626c6520666f722077697468647261776160008201527f6c00000000000000000000000000000000000000000000000000000000000000602082015250565b60006123dc602183611eb3565b91506123e782612380565b604082019050919050565b6000602082019050818103600083015261240b816123cf565b9050919050565b600081905092915050565b50565b600061242d600083612412565b91506124388261241d565b600082019050919050565b600061244e82612420565b9150819050919050565b7f5769746864726177616c206661696c6564000000000000000000000000000000600082015250565b600061248e601183611eb3565b915061249982612458565b602082019050919050565b600060208201905081810360008301526124bd81612481565b9050919050565b7f5472616e7366657220746f20726563697069656e74206661696c656400000000600082015250565b60006124fa601c83611eb3565b9150612505826124c4565b602082019050919050565b60006020820190508181036000830152612529816124ed565b9050919050565b7f47616d652068617320616c726561647920656e64656400000000000000000000600082015250565b6000612566601683611eb3565b915061257182612530565b602082019050919050565b6000602082019050818103600083015261259581612559565b9050919050565b7f4e487b7100000000000000000000000000000000000000000000000000000000600052601160045260246000fd5b60006125d68261202b565b91506125e18361202b565b92508282026125ef8161202b565b915082820484148315176126065761260561259c565b5b5092915050565b7f4e487b7100000000000000000000000000000000000000000000000000000000600052601260045260246000fd5b60006126478261202b565b91506126528361202b565b9250826126625761266161260d565b5b828204905092915050565b7f5472616e7366657220746f206c61737420706c61796572206661696c65640000600082015250565b60006126a3601e83611eb3565b91506126ae8261266d565b602082019050919050565b600060208201905081810360008301526126d281612696565b9050919050565b60006126e48261202b565b91506126ef8361202b565b92508282039050818111156127075761270661259c565b5b92915050565b7f4e487b7100000000000000000000000000000000000000000000000000000000600052603260045260246000fd5b7f506c6179657220726577617264207472616e73666572206661696c6564000000600082015250565b6000612772601d83611eb3565b915061277d8261273c565b602082019050919050565b600060208201905081810360008301526127a181612765565b9050919050565b60006127b38261202b565b91507fffffffffffffffffffffffffffffffffffffffffffffffffffffffffffffffff82036127e5576127e461259c565b5b600182019050919050565b60006040820190506128056000830185612035565b6128126020830184612035565b9392505050565b7f4d41585f51554552494553206d7573742062652067726561746572207468616e60008201527f2030000000000000000000000000000000000000000000000000000000000000602082015250565b6000612875602283611eb3565b915061288082612819565b604082019050919050565b600060208201905081810360008301526128a481612868565b9050919050565b7f4d41585f51554552595f464545206d757374206265206772656174657220746860008201527f616e203000000000000000000000000000000000000000000000000000000000602082015250565b6000612907602483611eb3565b9150612912826128ab565b604082019050919050565b60006020820190508181036000830152612936816128fa565b9050919050565b60006129488261202b565b91506129538361202b565b925082820190508082111561296b5761296a61259c565b5b92915050565b60008160011c9050919050565b6000808291508390505b60018511156129c8578086048111156129a4576129a361259c565b5b60018516156129b35780820291505b80810290506129c185612971565b9450612988565b94509492505050565b6000826129e15760019050612a9d565b816129ef5760009050612a9d565b8160018114612a055760028114612a0f57612a3e565b6001915050612a9d565b60ff841115612a2157612a2061259c565b5b8360020a915084821115612a3857612a3761259c565b5b50612a9d565b5060208310610133831016604e8410600b8410161715612a735782820a905083811115612a6e57612a6d61259c565b5b612a9d565b612a80848484600161297e565b92509050818404811115612a9757612a9661259c565b5b81810290505b9392505050565b6000612aaf8261202b565b9150612aba8361202b565b9250612ae77fffffffffffffffffffffffffffffffffffffffffffffffffffffffffffffffff84846129d1565b905092915050565b7f4f776e6572207472616e73666572206661696c65640000000000000000000000600082015250565b6000612b25601583611eb3565b9150612b3082612aef565b602082019050919050565b60006020820190508181036000830152612b5481612b18565b9050919050565b600081519050919050565b60005b83811015612b84578082015181840152602081019050612b69565b60008484015250505050565b6000612b9b82612b5b565b612ba58185611eb3565b9350612bb5818560208601612b66565b612bbe816121cc565b840191505092915050565b6000608082019050612bde6000830187612035565b8181036020830152612bf08186612b90565b9050612bff6040830185612035565b612c0c6060830184612035565b95945050505050565b7f49444c455f54494d455f4c494d4954206d75737420626520677265617465722060008201527f7468616e20300000000000000000000000000000000000000000000000000000602082015250565b6000612c71602683611eb3565b9150612c7c82612c15565b604082019050919050565b60006020820190508181036000830152612ca081612c64565b905091905056fea2646970667358221220d4b56bfc464ef3894221b524dac383ba54f4c44a9111506ffb5780c2f20dd28464736f6c63430008120033",
  "linkReferences": {},
  "deployedLinkReferences": {}
}