{
  "_format": "hh-sol-artifact-1",
  "contractName": "LittlefingerGame",
  "sourceName": "contracts/LittlefingerGame.sol",
  "abi": [
    {
      "inputs": [],
      "stateMutability": "payable",
      "type": "constructor"
    },
    {
      "inputs": [],
      "name": "GameExhausted",
      "type": "error"
    },
    {
      "inputs": [
        {
          "internalType": "uint256",
          "name": "requiredFee",
          "type": "uint256"
        },
        {
          "internalType": "uint256",
          "name": "sentFee",
          "type": "uint256"
        }
      ],
      "name": "InsufficientQueryFee",
      "type": "error"
    },
    {
      "inputs": [],
      "name": "InvalidQuery",
      "type": "error"
    },
    {
      "inputs": [],
      "name": "InvalidRecipient",
      "type": "error"
    },
    {
      "inputs": [
        {
          "internalType": "uint256",
          "name": "maxQueries",
          "type": "uint256"
        }
      ],
      "name": "MaxQueriesReached",
      "type": "error"
    },
    {
      "inputs": [],
      "name": "Unauthorized",
      "type": "error"
    },
    {
      "anonymous": false,
      "inputs": [
        {
          "indexed": false,
          "internalType": "uint256",
          "name": "prizePool",
          "type": "uint256"
        }
      ],
      "name": "CurrentPrizePool",
      "type": "event"
    },
    {
      "anonymous": false,
      "inputs": [
        {
          "indexed": false,
          "internalType": "uint256",
          "name": "currentTimestamp",
          "type": "uint256"
        },
        {
          "indexed": false,
          "internalType": "uint256",
          "name": "lastInteraction",
          "type": "uint256"
        }
      ],
      "name": "GameEnded",
      "type": "event"
    },
    {
      "anonymous": false,
      "inputs": [
        {
          "indexed": false,
          "internalType": "uint256",
          "name": "lastInteraction",
          "type": "uint256"
        }
      ],
      "name": "GameIdleSince",
      "type": "event"
    },
    {
      "anonymous": false,
      "inputs": [
        {
          "indexed": false,
          "internalType": "uint256",
          "name": "timestamp",
          "type": "uint256"
        }
      ],
      "name": "GameResetByOwner",
      "type": "event"
    },
    {
      "anonymous": false,
      "inputs": [
        {
          "indexed": false,
          "internalType": "uint256",
          "name": "timestamp",
          "type": "uint256"
        }
      ],
      "name": "GameStarted",
      "type": "event"
    },
    {
      "anonymous": false,
      "inputs": [
        {
          "indexed": false,
          "internalType": "uint256",
          "name": "newIdleTimeLimit",
          "type": "uint256"
        }
      ],
      "name": "IdleTimeLimitUpdated",
      "type": "event"
    },
    {
      "anonymous": false,
      "inputs": [
        {
          "indexed": true,
          "internalType": "address",
          "name": "player",
          "type": "address"
        },
        {
          "indexed": false,
          "internalType": "uint256",
          "name": "amount",
          "type": "uint256"
        }
      ],
      "name": "LastPlayerRewardAfterGameExhaustion",
      "type": "event"
    },
    {
      "anonymous": false,
      "inputs": [
        {
          "indexed": false,
          "internalType": "uint256",
          "name": "newMaxQueries",
          "type": "uint256"
        }
      ],
      "name": "MaxQueriesUpdated",
      "type": "event"
    },
    {
      "anonymous": false,
      "inputs": [
        {
          "indexed": false,
          "internalType": "uint256",
          "name": "newMaxQueryFee",
          "type": "uint256"
        }
      ],
      "name": "MaxQueryFeeUpdated",
      "type": "event"
    },
    {
      "anonymous": false,
      "inputs": [
        {
          "indexed": false,
          "internalType": "uint256",
          "name": "nextFee",
          "type": "uint256"
        },
        {
          "indexed": false,
          "internalType": "uint256",
          "name": "currentCount",
          "type": "uint256"
        }
      ],
      "name": "NextQueryFee",
      "type": "event"
    },
    {
      "anonymous": false,
      "inputs": [
        {
          "indexed": true,
          "internalType": "address",
          "name": "winner",
          "type": "address"
        },
        {
          "indexed": false,
          "internalType": "uint256",
          "name": "amount",
          "type": "uint256"
        }
      ],
      "name": "PrizeTransferApproved",
      "type": "event"
    },
    {
      "anonymous": false,
      "inputs": [
        {
          "indexed": true,
          "internalType": "address",
          "name": "player",
          "type": "address"
        },
        {
          "indexed": false,
          "internalType": "uint256",
          "name": "feeAmount",
          "type": "uint256"
        },
        {
          "indexed": false,
          "internalType": "string",
          "name": "queryID",
          "type": "string"
        },
        {
          "indexed": false,
          "internalType": "uint256",
          "name": "blockNumber",
          "type": "uint256"
        },
        {
          "indexed": false,
          "internalType": "uint256",
          "name": "timestamp",
          "type": "uint256"
        }
      ],
      "name": "QueryFeePaid",
      "type": "event"
    },
    {
      "anonymous": false,
      "inputs": [
        {
          "indexed": false,
          "internalType": "uint256",
          "name": "totalAmount",
          "type": "uint256"
        }
      ],
      "name": "RestOfThePlayersRewardAfterGameExhaustion",
      "type": "event"
    },
    {
      "anonymous": false,
      "inputs": [
        {
          "indexed": false,
          "internalType": "uint256",
          "name": "totalUniquePlayers",
          "type": "uint256"
        }
      ],
      "name": "TotalParticipants",
      "type": "event"
    },
    {
      "anonymous": false,
      "inputs": [
        {
          "indexed": false,
          "internalType": "uint256",
          "name": "globalQueryCount",
          "type": "uint256"
        }
      ],
      "name": "TotalQueries",
      "type": "event"
    },
    {
      "anonymous": false,
      "inputs": [
        {
          "indexed": true,
          "internalType": "address",
          "name": "owner",
          "type": "address"
        },
        {
          "indexed": false,
          "internalType": "uint256",
          "name": "amount",
          "type": "uint256"
        }
      ],
      "name": "Withdrawal",
      "type": "event"
    },
    {
      "stateMutability": "payable",
      "type": "fallback"
    },
    {
      "inputs": [],
      "name": "IDLE_TIME_LIMIT",
      "outputs": [
        {
          "internalType": "uint256",
          "name": "",
          "type": "uint256"
        }
      ],
      "stateMutability": "view",
      "type": "function"
    },
    {
      "inputs": [],
      "name": "MAX_QUERIES",
      "outputs": [
        {
          "internalType": "uint256",
          "name": "",
          "type": "uint256"
        }
      ],
      "stateMutability": "view",
      "type": "function"
    },
    {
      "inputs": [],
      "name": "MAX_QUERY_FEE",
      "outputs": [
        {
          "internalType": "uint256",
          "name": "",
          "type": "uint256"
        }
      ],
      "stateMutability": "view",
      "type": "function"
    },
    {
      "inputs": [
        {
          "internalType": "address",
          "name": "recipient",
          "type": "address"
        }
      ],
      "name": "approveTransfer",
      "outputs": [],
      "stateMutability": "nonpayable",
      "type": "function"
    },
    {
      "inputs": [],
      "name": "calculateNextQueryFee",
      "outputs": [
        {
          "internalType": "uint256",
          "name": "",
          "type": "uint256"
        }
      ],
      "stateMutability": "view",
      "type": "function"
    },
    {
      "inputs": [],
      "name": "calculateQueryFee",
      "outputs": [
        {
          "internalType": "uint256",
          "name": "",
          "type": "uint256"
        }
      ],
      "stateMutability": "view",
      "type": "function"
    },
    {
      "inputs": [],
      "name": "endGameDueToExhaustion",
      "outputs": [],
      "stateMutability": "nonpayable",
      "type": "function"
    },
    {
      "inputs": [],
      "name": "gameEnded",
      "outputs": [
        {
          "internalType": "bool",
          "name": "",
          "type": "bool"
        }
      ],
      "stateMutability": "view",
      "type": "function"
    },
    {
      "inputs": [],
      "name": "getAllPlayers",
      "outputs": [
        {
          "internalType": "address[]",
          "name": "",
          "type": "address[]"
        }
      ],
      "stateMutability": "view",
      "type": "function"
    },
    {
      "inputs": [],
      "name": "globalQueryCount",
      "outputs": [
        {
          "internalType": "uint256",
          "name": "",
          "type": "uint256"
        }
      ],
      "stateMutability": "view",
      "type": "function"
    },
    {
      "inputs": [],
      "name": "lastInteraction",
      "outputs": [
        {
          "internalType": "uint256",
          "name": "",
          "type": "uint256"
        }
      ],
      "stateMutability": "view",
      "type": "function"
    },
    {
      "inputs": [],
      "name": "lastPlayer",
      "outputs": [
        {
          "internalType": "address",
          "name": "",
          "type": "address"
        }
      ],
      "stateMutability": "view",
      "type": "function"
    },
    {
      "inputs": [],
      "name": "owner",
      "outputs": [
        {
          "internalType": "address",
          "name": "",
          "type": "address"
        }
      ],
      "stateMutability": "view",
      "type": "function"
    },
    {
      "inputs": [
        {
          "internalType": "address",
          "name": "",
          "type": "address"
        }
      ],
      "name": "playerQueryCount",
      "outputs": [
        {
          "internalType": "uint256",
          "name": "",
          "type": "uint256"
        }
      ],
      "stateMutability": "view",
      "type": "function"
    },
    {
      "inputs": [
        {
          "internalType": "address",
          "name": "",
          "type": "address"
        }
      ],
      "name": "playerTotalFee",
      "outputs": [
        {
          "internalType": "uint256",
          "name": "",
          "type": "uint256"
        }
      ],
      "stateMutability": "view",
      "type": "function"
    },
    {
      "inputs": [
        {
          "internalType": "uint256",
          "name": "",
          "type": "uint256"
        }
      ],
      "name": "players",
      "outputs": [
        {
          "internalType": "address",
          "name": "",
          "type": "address"
        }
      ],
      "stateMutability": "view",
      "type": "function"
    },
    {
      "inputs": [],
      "name": "prizePool",
      "outputs": [
        {
          "internalType": "uint256",
          "name": "",
          "type": "uint256"
        }
      ],
      "stateMutability": "view",
      "type": "function"
    },
    {
      "inputs": [],
      "name": "resetGame",
      "outputs": [],
      "stateMutability": "payable",
      "type": "function"
    },
    {
      "inputs": [
        {
          "internalType": "uint256",
          "name": "newIdleTimeLimit",
          "type": "uint256"
        }
      ],
      "name": "setIdleTimeLimit",
      "outputs": [],
      "stateMutability": "nonpayable",
      "type": "function"
    },
    {
      "inputs": [
        {
          "internalType": "uint256",
          "name": "newMaxQueries",
          "type": "uint256"
        }
      ],
      "name": "setMaxQueries",
      "outputs": [],
      "stateMutability": "nonpayable",
      "type": "function"
    },
    {
      "inputs": [
        {
          "internalType": "uint256",
          "name": "newMaxQueryFee",
          "type": "uint256"
        }
      ],
      "name": "setMaxQueryFee",
      "outputs": [],
      "stateMutability": "nonpayable",
      "type": "function"
    },
    {
      "inputs": [],
      "name": "startGame",
      "outputs": [],
      "stateMutability": "payable",
      "type": "function"
    },
    {
      "inputs": [
        {
          "internalType": "string",
          "name": "query",
          "type": "string"
        },
        {
          "internalType": "string",
          "name": "queryID",
          "type": "string"
        }
      ],
      "name": "submitQuery",
      "outputs": [],
      "stateMutability": "payable",
      "type": "function"
    },
    {
      "inputs": [],
      "name": "totalUniquePlayers",
      "outputs": [
        {
          "internalType": "uint256",
          "name": "",
          "type": "uint256"
        }
      ],
      "stateMutability": "view",
      "type": "function"
    },
    {
      "inputs": [],
      "name": "withdraw",
      "outputs": [],
      "stateMutability": "nonpayable",
      "type": "function"
    },
    {
      "stateMutability": "payable",
      "type": "receive"
    }
  ],
  "bytecode": "0x60806040526000600255600060035561138860045562093a80600555670de0b6b3a76400006006556000600b60006101000a81548160ff021916908315150217905550336000806101000a81548173ffffffffffffffffffffffffffffffffffffffff021916908373ffffffffffffffffffffffffffffffffffffffff16021790555060003411620000c8576040517f08c379a0000000000000000000000000000000000000000000000000000000008152600401620000bf90620001b2565b60405180910390fd5b42600a8190555060008054906101000a900473ffffffffffffffffffffffffffffffffffffffff16600160006101000a81548173ffffffffffffffffffffffffffffffffffffffff021916908373ffffffffffffffffffffffffffffffffffffffff1602179055506000600b60006101000a81548160ff021916908315150217905550620001d4565b600082825260208201905092915050565b7f496e697469616c2066756e64696e672072657175697265640000000000000000600082015250565b60006200019a60188362000151565b9150620001a78262000162565b602082019050919050565b60006020820190508181036000830152620001cd816200018b565b9050919050565b612ef580620001e46000396000f3fe60806040526004361061016a5760003560e01c80638da5cb5b116100d1578063ce4064e71161008a578063efa1c48211610064578063efa1c482146104e7578063f6711fbe14610512578063f71d96cb1461052e578063fc442e3a1461056b57610171565b8063ce4064e714610487578063d65ab5f2146104b2578063e3450e13146104bc57610171565b80638da5cb5b146103a65780638f71a265146103d15780639ae5bb0e146103fc5780639b3e156a14610427578063b3dbf4b414610452578063bb4722191461047d57610171565b8063719ce73e11610123578063719ce73e14610296578063768de1db146102c157806378d4b4df146102ea5780637fe6938f14610327578063886e2034146103525780638a6091551461037b57610171565b80632f6fe396146101ac5780633ccfd60b146101d75780634355b9d2146101ee5780634c9fb2bf146102175780634d7c49e91461022e5780634edbdc8a1461026b57610171565b3661017157005b6040517f08c379a00000000000000000000000000000000000000000000000000000000081526004016101a3906122cc565b60405180910390fd5b3480156101b857600080fd5b506101c1610594565b6040516101ce9190612307565b60405180910390f35b3480156101e357600080fd5b506101ec6105a7565b005b3480156101fa57600080fd5b5061021560048036038101906102109190612394565b6107ea565b005b34801561022357600080fd5b5061022c610a21565b005b34801561023a57600080fd5b5061025560048036038101906102509190612394565b610f8e565b60405161026291906123da565b60405180910390f35b34801561027757600080fd5b50610280610fa6565b60405161028d91906123da565b60405180910390f35b3480156102a257600080fd5b506102ab610fac565b6040516102b891906123da565b60405180910390f35b3480156102cd57600080fd5b506102e860048036038101906102e39190612421565b610fb4565b005b3480156102f657600080fd5b50610311600480360381019061030c9190612394565b6110bd565b60405161031e91906123da565b60405180910390f35b34801561033357600080fd5b5061033c6110d5565b60405161034991906123da565b60405180910390f35b34801561035e57600080fd5b5061037960048036038101906103749190612421565b6110db565b005b34801561038757600080fd5b506103906111e4565b60405161039d91906123da565b60405180910390f35b3480156103b257600080fd5b506103bb6111ea565b6040516103c8919061245d565b60405180910390f35b3480156103dd57600080fd5b506103e661120e565b6040516103f391906123da565b60405180910390f35b34801561040857600080fd5b50610411611214565b60405161041e91906123da565b60405180910390f35b34801561043357600080fd5b5061043c6112d6565b60405161044991906123da565b60405180910390f35b34801561045e57600080fd5b506104676112dc565b60405161047491906123da565b60405180910390f35b610485611386565b005b34801561049357600080fd5b5061049c6116b7565b6040516104a991906123da565b60405180910390f35b6104ba6116bd565b005b3480156104c857600080fd5b506104d16118b9565b6040516104de919061245d565b60405180910390f35b3480156104f357600080fd5b506104fc6118df565b6040516105099190612536565b60405180910390f35b61052c6004803603810190610527919061269e565b61196d565b005b34801561053a57600080fd5b5061055560048036038101906105509190612421565b612027565b604051610562919061245d565b60405180910390f35b34801561057757600080fd5b50610592600480360381019061058d9190612421565b612066565b005b600b60009054906101000a900460ff1681565b60008054906101000a900473ffffffffffffffffffffffffffffffffffffffff1673ffffffffffffffffffffffffffffffffffffffff163373ffffffffffffffffffffffffffffffffffffffff161461062c576040517f82b4290000000000000000000000000000000000000000000000000000000000815260040160405180910390fd5b600047905060008111610674576040517f08c379a000000000000000000000000000000000000000000000000000000000815260040161066b90612788565b60405180910390fd5b60008060009054906101000a900473ffffffffffffffffffffffffffffffffffffffff1673ffffffffffffffffffffffffffffffffffffffff16826040516106bb906127d9565b60006040518083038185875af1925050503d80600081146106f8576040519150601f19603f3d011682016040523d82523d6000602084013e6106fd565b606091505b5050905080610741576040517f08c379a00000000000000000000000000000000000000000000000000000000081526004016107389061283a565b60405180910390fd5b60008054906101000a900473ffffffffffffffffffffffffffffffffffffffff1673ffffffffffffffffffffffffffffffffffffffff167f7fcf532c15f0a6db0bd6d0e038bea71d30d808c7d98cb3bf7268a95bf5081b65836040516107a791906123da565b60405180910390a27f8ac50fcf3d00dee234d54465411e35ea967c640e5c9aad390f167af64c2a8e83476040516107de91906123da565b60405180910390a15050565b60008054906101000a900473ffffffffffffffffffffffffffffffffffffffff1673ffffffffffffffffffffffffffffffffffffffff163373ffffffffffffffffffffffffffffffffffffffff161461086f576040517f82b4290000000000000000000000000000000000000000000000000000000000815260040160405180910390fd5b6000610879610fac565b036108b0576040517fb76ca43d00000000000000000000000000000000000000000000000000000000815260040160405180910390fd5b600073ffffffffffffffffffffffffffffffffffffffff168173ffffffffffffffffffffffffffffffffffffffff1603610916576040517f9c8d2cd200000000000000000000000000000000000000000000000000000000815260040160405180910390fd5b6000610920610fac565b905060008273ffffffffffffffffffffffffffffffffffffffff1682604051610948906127d9565b60006040518083038185875af1925050503d8060008114610985576040519150601f19603f3d011682016040523d82523d6000602084013e61098a565b606091505b50509050806109ce576040517f08c379a00000000000000000000000000000000000000000000000000000000081526004016109c5906128a6565b60405180910390fd5b8273ffffffffffffffffffffffffffffffffffffffff167f6fa1ae3f51a194d857cbe6cb9459898c29b220c48d53dc81d2d79adea5702b5683604051610a1491906123da565b60405180910390a2505050565b60008054906101000a900473ffffffffffffffffffffffffffffffffffffffff1673ffffffffffffffffffffffffffffffffffffffff163373ffffffffffffffffffffffffffffffffffffffff1614610aa6576040517f82b4290000000000000000000000000000000000000000000000000000000000815260040160405180910390fd5b600b60009054906101000a900460ff1615610af6576040517f08c379a0000000000000000000000000000000000000000000000000000000008152600401610aed90612912565b60405180910390fd5b6000610b00610fac565b03610b37576040517fb76ca43d00000000000000000000000000000000000000000000000000000000815260040160405180910390fd5b600073ffffffffffffffffffffffffffffffffffffffff16600160009054906101000a900473ffffffffffffffffffffffffffffffffffffffff1673ffffffffffffffffffffffffffffffffffffffff1603610bbf576040517f9c8d2cd200000000000000000000000000000000000000000000000000000000815260040160405180910390fd5b6000610bc9610fac565b905060006064600a83610bdc9190612961565b610be691906129d2565b90506000600160009054906101000a900473ffffffffffffffffffffffffffffffffffffffff1673ffffffffffffffffffffffffffffffffffffffff1682604051610c30906127d9565b60006040518083038185875af1925050503d8060008114610c6d576040519150601f19603f3d011682016040523d82523d6000602084013e610c72565b606091505b5050905080610cb6576040517f08c379a0000000000000000000000000000000000000000000000000000000008152600401610cad90612a4f565b60405180910390fd5b60008284610cc49190612a6f565b905060006003541115610e4d5760005b600780549050811015610e4b57600060078281548110610cf757610cf6612aa3565b5b9060005260206000200160009054906101000a900473ffffffffffffffffffffffffffffffffffffffff1690506000600354600860008473ffffffffffffffffffffffffffffffffffffffff1673ffffffffffffffffffffffffffffffffffffffff1681526020019081526020016000205485610d749190612961565b610d7e91906129d2565b90506000811115610e36578173ffffffffffffffffffffffffffffffffffffffff1681604051610dad906127d9565b60006040518083038185875af1925050503d8060008114610dea576040519150601f19603f3d011682016040523d82523d6000602084013e610def565b606091505b50508095505084610e35576040517f08c379a0000000000000000000000000000000000000000000000000000000008152600401610e2c90612b1e565b60405180910390fd5b5b50508080610e4390612b3e565b915050610cd4565b505b6001600b60006101000a81548160ff021916908315150217905550600160009054906101000a900473ffffffffffffffffffffffffffffffffffffffff1673ffffffffffffffffffffffffffffffffffffffff167f9f8a5abfe9d79cc8b97238355d25de4797d9b9153383b831e776735b38d4cdb284604051610ed091906123da565b60405180910390a27f7d26ae2e18a5cd23971453551df3a6cecfe10ac466cf513431fde2467840ed7f81604051610f0791906123da565b60405180910390a17f4c4660db760944215f41e957066d756ad5fd0eed1b4640632322eb06f77b034d42600a54604051610f42929190612b86565b60405180910390a17f8ac50fcf3d00dee234d54465411e35ea967c640e5c9aad390f167af64c2a8e83610f73610fac565b604051610f8091906123da565b60405180910390a150505050565b60086020528060005260406000206000915090505481565b60035481565b600047905090565b60008054906101000a900473ffffffffffffffffffffffffffffffffffffffff1673ffffffffffffffffffffffffffffffffffffffff163373ffffffffffffffffffffffffffffffffffffffff1614611039576040517f82b4290000000000000000000000000000000000000000000000000000000000815260040160405180910390fd5b6000811161107c576040517f08c379a000000000000000000000000000000000000000000000000000000000815260040161107390612c21565b60405180910390fd5b806004819055507ff11fddb6cfb2f6a89b6fa411be3b1fe813a389446b2c7ebf85fca9d0e08d092c816040516110b291906123da565b60405180910390a150565b60096020528060005260406000206000915090505481565b60055481565b60008054906101000a900473ffffffffffffffffffffffffffffffffffffffff1673ffffffffffffffffffffffffffffffffffffffff163373ffffffffffffffffffffffffffffffffffffffff1614611160576040517f82b4290000000000000000000000000000000000000000000000000000000000815260040160405180910390fd5b600081116111a3576040517f08c379a000000000000000000000000000000000000000000000000000000000815260040161119a90612cb3565b60405180910390fd5b806006819055507f93d2574a7b2675112bb4a34c59c274079e3087894d7f15a15641d450a9c97acb816040516111d991906123da565b60405180910390a150565b60025481565b60008054906101000a900473ffffffffffffffffffffffffffffffffffffffff1681565b600a5481565b6000601e6003541161125a57600160035461122f9190612cd3565b66038d7ea4c680006112419190612961565b6611c37937e080006112539190612cd3565b90506112d3565b6000667c58508723800090506000601e60016003546112799190612cd3565b6112839190612a6f565b9050600061129260648361216f565b61129d607d8461216f565b6112a791906129d2565b9050600081846112b79190612961565b905060065481116112c857806112cc565b6006545b9450505050505b90565b60045481565b6000601e600354116113165760035466038d7ea4c680006112fd9190612961565b6611c37937e0800061130f9190612cd3565b9050611383565b6000667c58508723800090506000601e6003546113339190612a6f565b9050600061134260648361216f565b61134d607d8461216f565b61135791906129d2565b9050600081846113679190612961565b90506006548111611378578061137c565b6006545b9450505050505b90565b60008054906101000a900473ffffffffffffffffffffffffffffffffffffffff1673ffffffffffffffffffffffffffffffffffffffff163373ffffffffffffffffffffffffffffffffffffffff161461140b576040517f82b4290000000000000000000000000000000000000000000000000000000000815260040160405180910390fd5b600034111561144c577f8ac50fcf3d00dee234d54465411e35ea967c640e5c9aad390f167af64c2a8e834760405161144391906123da565b60405180910390a15b60005b6007805490508110156115395760006007828154811061147257611471612aa3565b5b9060005260206000200160009054906101000a900473ffffffffffffffffffffffffffffffffffffffff169050600860008273ffffffffffffffffffffffffffffffffffffffff1673ffffffffffffffffffffffffffffffffffffffff16815260200190815260200160002060009055600960008273ffffffffffffffffffffffffffffffffffffffff1673ffffffffffffffffffffffffffffffffffffffff1681526020019081526020016000206000905550808061153190612b3e565b91505061144f565b5060076000611548919061220b565b6000600b60006101000a81548160ff021916908315150217905550600060038190555060008054906101000a900473ffffffffffffffffffffffffffffffffffffffff16600160006101000a81548173ffffffffffffffffffffffffffffffffffffffff021916908373ffffffffffffffffffffffffffffffffffffffff16021790555042600a819055507f389a851c813bc96190bd02f7aa164331a438c2275cb1083cd03931f8a526e58f600a5460405161160491906123da565b60405180910390a17f50ad08f58a27f2851d7e3a1b3a6a46b290f2ce677e99642d30ff639721e77790600a5460405161163d91906123da565b60405180910390a17f097f38bd15981ec437e7e5f59ce1ea94c4c0520fbbfaeebde079ca4ba5a771fc600a5460405161167691906123da565b60405180910390a17f8ac50fcf3d00dee234d54465411e35ea967c640e5c9aad390f167af64c2a8e83476040516116ad91906123da565b60405180910390a1565b60065481565b60008054906101000a900473ffffffffffffffffffffffffffffffffffffffff1673ffffffffffffffffffffffffffffffffffffffff163373ffffffffffffffffffffffffffffffffffffffff1614611742576040517f82b4290000000000000000000000000000000000000000000000000000000000815260040160405180910390fd5b6000341115611783577f8ac50fcf3d00dee234d54465411e35ea967c640e5c9aad390f167af64c2a8e834760405161177a91906123da565b60405180910390a15b6000600b60006101000a81548160ff021916908315150217905550600060038190555060008054906101000a900473ffffffffffffffffffffffffffffffffffffffff16600160006101000a81548173ffffffffffffffffffffffffffffffffffffffff021916908373ffffffffffffffffffffffffffffffffffffffff16021790555042600a819055507f50ad08f58a27f2851d7e3a1b3a6a46b290f2ce677e99642d30ff639721e77790600a5460405161183f91906123da565b60405180910390a17f097f38bd15981ec437e7e5f59ce1ea94c4c0520fbbfaeebde079ca4ba5a771fc600a5460405161187891906123da565b60405180910390a17f8ac50fcf3d00dee234d54465411e35ea967c640e5c9aad390f167af64c2a8e83476040516118af91906123da565b60405180910390a1565b600160009054906101000a900473ffffffffffffffffffffffffffffffffffffffff1681565b6060600780548060200260200160405190810160405280929190818152602001828054801561196357602002820191906000526020600020905b8160009054906101000a900473ffffffffffffffffffffffffffffffffffffffff1673ffffffffffffffffffffffffffffffffffffffff1681526020019060010190808311611919575b5050505050905090565b600554600a5461197d9190612cd3565b4211156119b6576040517fb76ca43d00000000000000000000000000000000000000000000000000000000815260040160405180910390fd5b600b60009054906101000a900460ff16156119fd576040517fb76ca43d00000000000000000000000000000000000000000000000000000000815260040160405180910390fd5b60008054906101000a900473ffffffffffffffffffffffffffffffffffffffff1673ffffffffffffffffffffffffffffffffffffffff163373ffffffffffffffffffffffffffffffffffffffff1603611a82576040517f82b4290000000000000000000000000000000000000000000000000000000000815260040160405180910390fd5b6000611a8c610fac565b03611ac3576040517fb76ca43d00000000000000000000000000000000000000000000000000000000815260040160405180910390fd5b6000825103611afe576040517f19e4cb1000000000000000000000000000000000000000000000000000000000815260040160405180910390fd5b600454600860003373ffffffffffffffffffffffffffffffffffffffff1673ffffffffffffffffffffffffffffffffffffffff1681526020019081526020016000205410611b85576004546040517fd6883411000000000000000000000000000000000000000000000000000000008152600401611b7c91906123da565b60405180910390fd5b6000611b8f6112dc565b905080341015611bd85780346040517f2f598322000000000000000000000000000000000000000000000000000000008152600401611bcf929190612b86565b60405180910390fd5b60006064605034611be99190612961565b611bf391906129d2565b905060008134611c039190612a6f565b905060008060009054906101000a900473ffffffffffffffffffffffffffffffffffffffff1673ffffffffffffffffffffffffffffffffffffffff1682604051611c4c906127d9565b60006040518083038185875af1925050503d8060008114611c89576040519150601f19603f3d011682016040523d82523d6000602084013e611c8e565b606091505b5050905080611cd2576040517f08c379a0000000000000000000000000000000000000000000000000000000008152600401611cc990612d53565b60405180910390fd5b6000600860003373ffffffffffffffffffffffffffffffffffffffff1673ffffffffffffffffffffffffffffffffffffffff1681526020019081526020016000205403611d95576007339080600181540180825580915050600190039060005260206000200160009091909190916101000a81548173ffffffffffffffffffffffffffffffffffffffff021916908373ffffffffffffffffffffffffffffffffffffffff16021790555060026000815480929190611d8f90612b3e565b91905055505b600860003373ffffffffffffffffffffffffffffffffffffffff1673ffffffffffffffffffffffffffffffffffffffff1681526020019081526020016000206000815480929190611de590612b3e565b919050555083600960003373ffffffffffffffffffffffffffffffffffffffff1673ffffffffffffffffffffffffffffffffffffffff1681526020019081526020016000206000828254611e399190612cd3565b9250508190555033600160006101000a81548173ffffffffffffffffffffffffffffffffffffffff021916908373ffffffffffffffffffffffffffffffffffffffff16021790555060036000815480929190611e9490612b3e565b919050555042600a819055503373ffffffffffffffffffffffffffffffffffffffff167f484cf9a2b144a79d50ad4a6c852c88d377be171af3edce6f3fa94a6718f1d14734874342604051611eec9493929190612de1565b60405180910390a27f1d10a40d09ae13f42d8a863f4881bb8c7fc588a0a0d8ad00dd7c4ef77d23ce42611f1d611214565b600354604051611f2e929190612b86565b60405180910390a17f8ac50fcf3d00dee234d54465411e35ea967c640e5c9aad390f167af64c2a8e83611f5f610fac565b604051611f6c91906123da565b60405180910390a17f097f38bd15981ec437e7e5f59ce1ea94c4c0520fbbfaeebde079ca4ba5a771fc600a54604051611fa591906123da565b60405180910390a17fed8d1315e9eb6ebe7c3f2c6c84931e9e72f34c13c09eda0392c8e704d4dc199f600354604051611fde91906123da565b60405180910390a17ffa0270d8853acb2923387f25a5030a0a0117a0f27dc518d436d86c354872392460025460405161201791906123da565b60405180910390a1505050505050565b6007818154811061203757600080fd5b906000526020600020016000915054906101000a900473ffffffffffffffffffffffffffffffffffffffff1681565b60008054906101000a900473ffffffffffffffffffffffffffffffffffffffff1673ffffffffffffffffffffffffffffffffffffffff163373ffffffffffffffffffffffffffffffffffffffff16146120eb576040517f82b4290000000000000000000000000000000000000000000000000000000000815260040160405180910390fd5b6000811161212e576040517f08c379a000000000000000000000000000000000000000000000000000000000815260040161212590612e9f565b60405180910390fd5b806005819055507f4c1644e685edccbaa71de19cc8947d453fbe78ba8ee874764a69f0f4fd32c1fc8160405161216491906123da565b60405180910390a150565b6000806001905060005b838110156121ff57848261218d9190612961565b9150847fffffffffffffffffffffffffffffffffffffffffffffffffffffffffffffffff6121bb91906129d2565b8211156121ec577fffffffffffffffffffffffffffffffffffffffffffffffffffffffffffffffff92505050612205565b80806121f790612b3e565b915050612179565b50809150505b92915050565b5080546000825590600052602060002090810190612229919061222c565b50565b5b8082111561224557600081600090555060010161222d565b5090565b600082825260208201905092915050565b7f46616c6c6261636b2066756e6374696f6e206973206e6f7420696d706c656d6560008201527f6e74656400000000000000000000000000000000000000000000000000000000602082015250565b60006122b6602483612249565b91506122c18261225a565b604082019050919050565b600060208201905081810360008301526122e5816122a9565b9050919050565b60008115159050919050565b612301816122ec565b82525050565b600060208201905061231c60008301846122f8565b92915050565b6000604051905090565b600080fd5b600080fd5b600073ffffffffffffffffffffffffffffffffffffffff82169050919050565b600061236182612336565b9050919050565b61237181612356565b811461237c57600080fd5b50565b60008135905061238e81612368565b92915050565b6000602082840312156123aa576123a961232c565b5b60006123b88482850161237f565b91505092915050565b6000819050919050565b6123d4816123c1565b82525050565b60006020820190506123ef60008301846123cb565b92915050565b6123fe816123c1565b811461240957600080fd5b50565b60008135905061241b816123f5565b92915050565b6000602082840312156124375761243661232c565b5b60006124458482850161240c565b91505092915050565b61245781612356565b82525050565b6000602082019050612472600083018461244e565b92915050565b600081519050919050565b600082825260208201905092915050565b6000819050602082019050919050565b6124ad81612356565b82525050565b60006124bf83836124a4565b60208301905092915050565b6000602082019050919050565b60006124e382612478565b6124ed8185612483565b93506124f883612494565b8060005b8381101561252957815161251088826124b3565b975061251b836124cb565b9250506001810190506124fc565b5085935050505092915050565b6000602082019050818103600083015261255081846124d8565b905092915050565b600080fd5b600080fd5b6000601f19601f8301169050919050565b7f4e487b7100000000000000000000000000000000000000000000000000000000600052604160045260246000fd5b6125ab82612562565b810181811067ffffffffffffffff821117156125ca576125c9612573565b5b80604052505050565b60006125dd612322565b90506125e982826125a2565b919050565b600067ffffffffffffffff82111561260957612608612573565b5b61261282612562565b9050602081019050919050565b82818337600083830152505050565b600061264161263c846125ee565b6125d3565b90508281526020810184848401111561265d5761265c61255d565b5b61266884828561261f565b509392505050565b600082601f83011261268557612684612558565b5b813561269584826020860161262e565b91505092915050565b600080604083850312156126b5576126b461232c565b5b600083013567ffffffffffffffff8111156126d3576126d2612331565b5b6126df85828601612670565b925050602083013567ffffffffffffffff811115612700576126ff612331565b5b61270c85828601612670565b9150509250929050565b7f4e6f2066756e647320617661696c61626c6520666f722077697468647261776160008201527f6c00000000000000000000000000000000000000000000000000000000000000602082015250565b6000612772602183612249565b915061277d82612716565b604082019050919050565b600060208201905081810360008301526127a181612765565b9050919050565b600081905092915050565b50565b60006127c36000836127a8565b91506127ce826127b3565b600082019050919050565b60006127e4826127b6565b9150819050919050565b7f5769746864726177616c206661696c6564000000000000000000000000000000600082015250565b6000612824601183612249565b915061282f826127ee565b602082019050919050565b6000602082019050818103600083015261285381612817565b9050919050565b7f5472616e7366657220746f20726563697069656e74206661696c656400000000600082015250565b6000612890601c83612249565b915061289b8261285a565b602082019050919050565b600060208201905081810360008301526128bf81612883565b9050919050565b7f47616d652068617320616c726561647920656e64656400000000000000000000600082015250565b60006128fc601683612249565b9150612907826128c6565b602082019050919050565b6000602082019050818103600083015261292b816128ef565b9050919050565b7f4e487b7100000000000000000000000000000000000000000000000000000000600052601160045260246000fd5b600061296c826123c1565b9150612977836123c1565b9250828202612985816123c1565b9150828204841483151761299c5761299b612932565b5b5092915050565b7f4e487b7100000000000000000000000000000000000000000000000000000000600052601260045260246000fd5b60006129dd826123c1565b91506129e8836123c1565b9250826129f8576129f76129a3565b5b828204905092915050565b7f5472616e7366657220746f206c61737420706c61796572206661696c65640000600082015250565b6000612a39601e83612249565b9150612a4482612a03565b602082019050919050565b60006020820190508181036000830152612a6881612a2c565b9050919050565b6000612a7a826123c1565b9150612a85836123c1565b9250828203905081811115612a9d57612a9c612932565b5b92915050565b7f4e487b7100000000000000000000000000000000000000000000000000000000600052603260045260246000fd5b7f506c6179657220726577617264207472616e73666572206661696c6564000000600082015250565b6000612b08601d83612249565b9150612b1382612ad2565b602082019050919050565b60006020820190508181036000830152612b3781612afb565b9050919050565b6000612b49826123c1565b91507fffffffffffffffffffffffffffffffffffffffffffffffffffffffffffffffff8203612b7b57612b7a612932565b5b600182019050919050565b6000604082019050612b9b60008301856123cb565b612ba860208301846123cb565b9392505050565b7f4d41585f51554552494553206d7573742062652067726561746572207468616e60008201527f2030000000000000000000000000000000000000000000000000000000000000602082015250565b6000612c0b602283612249565b9150612c1682612baf565b604082019050919050565b60006020820190508181036000830152612c3a81612bfe565b9050919050565b7f4d41585f51554552595f464545206d757374206265206772656174657220746860008201527f616e203000000000000000000000000000000000000000000000000000000000602082015250565b6000612c9d602483612249565b9150612ca882612c41565b604082019050919050565b60006020820190508181036000830152612ccc81612c90565b9050919050565b6000612cde826123c1565b9150612ce9836123c1565b9250828201905080821115612d0157612d00612932565b5b92915050565b7f4f776e6572207472616e73666572206661696c65640000000000000000000000600082015250565b6000612d3d601583612249565b9150612d4882612d07565b602082019050919050565b60006020820190508181036000830152612d6c81612d30565b9050919050565b600081519050919050565b60005b83811015612d9c578082015181840152602081019050612d81565b60008484015250505050565b6000612db382612d73565b612dbd8185612249565b9350612dcd818560208601612d7e565b612dd681612562565b840191505092915050565b6000608082019050612df660008301876123cb565b8181036020830152612e088186612da8565b9050612e1760408301856123cb565b612e2460608301846123cb565b95945050505050565b7f49444c455f54494d455f4c494d4954206d75737420626520677265617465722060008201527f7468616e20300000000000000000000000000000000000000000000000000000602082015250565b6000612e89602683612249565b9150612e9482612e2d565b604082019050919050565b60006020820190508181036000830152612eb881612e7c565b905091905056fea264697066735822122071bf21a8d6d271bf9d594ea1db72afd5ef4beb0ab7a09afbec60ed07085fba5264736f6c63430008120033",
  "linkReferences": {},
  "deployedLinkReferences": {}
}